{
  "address": "0xa950bA1a01fE18d91Dd8a350DAE58F77563870c7",
  "abi": [
    {
      "inputs": [
        {
          "internalType": "int256",
          "name": "_value",
          "type": "int256"
        }
      ],
      "stateMutability": "nonpayable",
      "type": "constructor"
    },
    {
      "inputs": [],
      "name": "latestAnswer",
      "outputs": [
        {
          "internalType": "int256",
          "name": "",
          "type": "int256"
        }
      ],
      "stateMutability": "view",
      "type": "function"
    },
    {
      "inputs": [
        {
          "internalType": "int256",
          "name": "_value",
          "type": "int256"
        }
      ],
      "name": "set",
      "outputs": [],
      "stateMutability": "nonpayable",
      "type": "function"
    }
  ],
  "transactionHash": "0xf1e1e9c54ceb3906a9b50e3a4f52c6f84175da1aff5b2a7579a32a2cc48239b0",
  "args": [
    "160000000000"
  ],
  "numDeployments": 1,
  "solcInputHash": "ef30c679ec0e734b9949e6bb906c3fcc",
  "bytecode": "0x608060405234801561001057600080fd5b5060405161011138038061011183398101604081905261002f9161003e565b61003881600055565b50610057565b60006020828403121561005057600080fd5b5051919050565b60ac806100656000396000f3fe6080604052348015600f57600080fd5b506004361060325760003560e01c806350d25bcd146037578063e5c19b2d14604c575b600080fd5b60005460405190815260200160405180910390f35b605c6057366004605e565b600055565b005b600060208284031215606f57600080fd5b503591905056fea2646970667358221220af80af17bc68c4331acf400e8e445370b0efc28d84ef4964282073ebc7a582a364736f6c634300080c0033",
  "devdoc": {
    "kind": "dev",
    "methods": {},
    "version": 1
  },
  "userdoc": {
    "kind": "user",
    "methods": {},
    "version": 1
  },
  "storageLayout": {
    "storage": [
      {
        "astId": 10205,
        "contract": "contracts/ethregistrar/DummyOracle.sol:DummyOracle",
        "label": "value",
        "offset": 0,
        "slot": "0",
        "type": "t_int256"
      }
    ],
    "types": {
      "t_int256": {
        "encoding": "inplace",
        "label": "int256",
        "numberOfBytes": "32"
      }
    }
  }
}