{
  "address": "0x96a386bef3Ab62F8b166a3F2cdd352fD2a33FB51",
  "abi": [
    {
      "inputs": [
        {
          "internalType": "contract TomoNs",
          "name": "_tomoNs",
          "type": "address"
        },
        {
          "internalType": "contract INameWrapper",
          "name": "wrapperAddress",
          "type": "address"
        },
        {
          "internalType": "address",
          "name": "_trustedETHController",
          "type": "address"
        },
        {
          "internalType": "address",
          "name": "_trustedReverseRegistrar",
          "type": "address"
        }
      ],
      "stateMutability": "nonpayable",
      "type": "constructor"
    },
    {
      "anonymous": false,
      "inputs": [
        {
          "indexed": true,
          "internalType": "bytes32",
          "name": "node",
          "type": "bytes32"
        },
        {
          "indexed": true,
          "internalType": "uint256",
          "name": "contentType",
          "type": "uint256"
        }
      ],
      "name": "ABIChanged",
      "type": "event"
    },
    {
      "anonymous": false,
      "inputs": [
        {
          "indexed": true,
          "internalType": "bytes32",
          "name": "node",
          "type": "bytes32"
        },
        {
          "indexed": false,
          "internalType": "address",
          "name": "a",
          "type": "address"
        }
      ],
      "name": "AddrChanged",
      "type": "event"
    },
    {
      "anonymous": false,
      "inputs": [
        {
          "indexed": true,
          "internalType": "bytes32",
          "name": "node",
          "type": "bytes32"
        },
        {
          "indexed": false,
          "internalType": "uint256",
          "name": "coinType",
          "type": "uint256"
        },
        {
          "indexed": false,
          "internalType": "bytes",
          "name": "newAddress",
          "type": "bytes"
        }
      ],
      "name": "AddressChanged",
      "type": "event"
    },
    {
      "anonymous": false,
      "inputs": [
        {
          "indexed": true,
          "internalType": "address",
          "name": "owner",
          "type": "address"
        },
        {
          "indexed": true,
          "internalType": "address",
          "name": "operator",
          "type": "address"
        },
        {
          "indexed": false,
          "internalType": "bool",
          "name": "approved",
          "type": "bool"
        }
      ],
      "name": "ApprovalForAll",
      "type": "event"
    },
    {
      "anonymous": false,
      "inputs": [
        {
          "indexed": true,
          "internalType": "bytes32",
          "name": "node",
          "type": "bytes32"
        },
        {
          "indexed": false,
          "internalType": "bytes",
          "name": "hash",
          "type": "bytes"
        }
      ],
      "name": "ContenthashChanged",
      "type": "event"
    },
    {
      "anonymous": false,
      "inputs": [
        {
          "indexed": true,
          "internalType": "bytes32",
          "name": "node",
          "type": "bytes32"
        },
        {
          "indexed": false,
          "internalType": "bytes",
          "name": "name",
          "type": "bytes"
        },
        {
          "indexed": false,
          "internalType": "uint16",
          "name": "resource",
          "type": "uint16"
        },
        {
          "indexed": false,
          "internalType": "bytes",
          "name": "record",
          "type": "bytes"
        }
      ],
      "name": "DNSRecordChanged",
      "type": "event"
    },
    {
      "anonymous": false,
      "inputs": [
        {
          "indexed": true,
          "internalType": "bytes32",
          "name": "node",
          "type": "bytes32"
        },
        {
          "indexed": false,
          "internalType": "bytes",
          "name": "name",
          "type": "bytes"
        },
        {
          "indexed": false,
          "internalType": "uint16",
          "name": "resource",
          "type": "uint16"
        }
      ],
      "name": "DNSRecordDeleted",
      "type": "event"
    },
    {
      "anonymous": false,
      "inputs": [
        {
          "indexed": true,
          "internalType": "bytes32",
          "name": "node",
          "type": "bytes32"
        },
        {
          "indexed": false,
          "internalType": "bytes",
          "name": "lastzonehash",
          "type": "bytes"
        },
        {
          "indexed": false,
          "internalType": "bytes",
          "name": "zonehash",
          "type": "bytes"
        }
      ],
      "name": "DNSZonehashChanged",
      "type": "event"
    },
    {
      "anonymous": false,
      "inputs": [
        {
          "indexed": true,
          "internalType": "bytes32",
          "name": "node",
          "type": "bytes32"
        },
        {
          "indexed": true,
          "internalType": "bytes4",
          "name": "interfaceID",
          "type": "bytes4"
        },
        {
          "indexed": false,
          "internalType": "address",
          "name": "implementer",
          "type": "address"
        }
      ],
      "name": "InterfaceChanged",
      "type": "event"
    },
    {
      "anonymous": false,
      "inputs": [
        {
          "indexed": true,
          "internalType": "bytes32",
          "name": "node",
          "type": "bytes32"
        },
        {
          "indexed": false,
          "internalType": "string",
          "name": "name",
          "type": "string"
        }
      ],
      "name": "NameChanged",
      "type": "event"
    },
    {
      "anonymous": false,
      "inputs": [
        {
          "indexed": true,
          "internalType": "bytes32",
          "name": "node",
          "type": "bytes32"
        },
        {
          "indexed": false,
          "internalType": "bytes32",
          "name": "x",
          "type": "bytes32"
        },
        {
          "indexed": false,
          "internalType": "bytes32",
          "name": "y",
          "type": "bytes32"
        }
      ],
      "name": "PubkeyChanged",
      "type": "event"
    },
    {
      "anonymous": false,
      "inputs": [
        {
          "indexed": true,
          "internalType": "bytes32",
          "name": "node",
          "type": "bytes32"
        },
        {
          "indexed": true,
          "internalType": "string",
          "name": "indexedKey",
          "type": "string"
        },
        {
          "indexed": false,
          "internalType": "string",
          "name": "key",
          "type": "string"
        },
        {
          "indexed": false,
          "internalType": "string",
          "name": "value",
          "type": "string"
        }
      ],
      "name": "TextChanged",
      "type": "event"
    },
    {
      "anonymous": false,
      "inputs": [
        {
          "indexed": true,
          "internalType": "bytes32",
          "name": "node",
          "type": "bytes32"
        },
        {
          "indexed": false,
          "internalType": "uint64",
          "name": "newVersion",
          "type": "uint64"
        }
      ],
      "name": "VersionChanged",
      "type": "event"
    },
    {
      "inputs": [
        {
          "internalType": "bytes32",
          "name": "node",
          "type": "bytes32"
        },
        {
          "internalType": "uint256",
          "name": "contentTypes",
          "type": "uint256"
        }
      ],
      "name": "ABI",
      "outputs": [
        {
          "internalType": "uint256",
          "name": "",
          "type": "uint256"
        },
        {
          "internalType": "bytes",
          "name": "",
          "type": "bytes"
        }
      ],
      "stateMutability": "view",
      "type": "function"
    },
    {
      "inputs": [
        {
          "internalType": "bytes32",
          "name": "node",
          "type": "bytes32"
        }
      ],
      "name": "addr",
      "outputs": [
        {
          "internalType": "address payable",
          "name": "",
          "type": "address"
        }
      ],
      "stateMutability": "view",
      "type": "function"
    },
    {
      "inputs": [
        {
          "internalType": "bytes32",
          "name": "node",
          "type": "bytes32"
        },
        {
          "internalType": "uint256",
          "name": "coinType",
          "type": "uint256"
        }
      ],
      "name": "addr",
      "outputs": [
        {
          "internalType": "bytes",
          "name": "",
          "type": "bytes"
        }
      ],
      "stateMutability": "view",
      "type": "function"
    },
    {
      "inputs": [
        {
          "internalType": "bytes32",
          "name": "node",
          "type": "bytes32"
        }
      ],
      "name": "clearRecords",
      "outputs": [],
      "stateMutability": "nonpayable",
      "type": "function"
    },
    {
      "inputs": [
        {
          "internalType": "bytes32",
          "name": "node",
          "type": "bytes32"
        }
      ],
      "name": "contenthash",
      "outputs": [
        {
          "internalType": "bytes",
          "name": "",
          "type": "bytes"
        }
      ],
      "stateMutability": "view",
      "type": "function"
    },
    {
      "inputs": [
        {
          "internalType": "bytes32",
          "name": "node",
          "type": "bytes32"
        },
        {
          "internalType": "bytes32",
          "name": "name",
          "type": "bytes32"
        },
        {
          "internalType": "uint16",
          "name": "resource",
          "type": "uint16"
        }
      ],
      "name": "dnsRecord",
      "outputs": [
        {
          "internalType": "bytes",
          "name": "",
          "type": "bytes"
        }
      ],
      "stateMutability": "view",
      "type": "function"
    },
    {
      "inputs": [
        {
          "internalType": "bytes32",
          "name": "node",
          "type": "bytes32"
        },
        {
          "internalType": "bytes32",
          "name": "name",
          "type": "bytes32"
        }
      ],
      "name": "hasDNSRecords",
      "outputs": [
        {
          "internalType": "bool",
          "name": "",
          "type": "bool"
        }
      ],
      "stateMutability": "view",
      "type": "function"
    },
    {
      "inputs": [
        {
          "internalType": "bytes32",
          "name": "node",
          "type": "bytes32"
        },
        {
          "internalType": "bytes4",
          "name": "interfaceID",
          "type": "bytes4"
        }
      ],
      "name": "interfaceImplementer",
      "outputs": [
        {
          "internalType": "address",
          "name": "",
          "type": "address"
        }
      ],
      "stateMutability": "view",
      "type": "function"
    },
    {
      "inputs": [
        {
          "internalType": "address",
          "name": "account",
          "type": "address"
        },
        {
          "internalType": "address",
          "name": "operator",
          "type": "address"
        }
      ],
      "name": "isApprovedForAll",
      "outputs": [
        {
          "internalType": "bool",
          "name": "",
          "type": "bool"
        }
      ],
      "stateMutability": "view",
      "type": "function"
    },
    {
      "inputs": [
        {
          "internalType": "bytes[]",
          "name": "data",
          "type": "bytes[]"
        }
      ],
      "name": "multicall",
      "outputs": [
        {
          "internalType": "bytes[]",
          "name": "results",
          "type": "bytes[]"
        }
      ],
      "stateMutability": "nonpayable",
      "type": "function"
    },
    {
      "inputs": [
        {
          "internalType": "bytes32",
          "name": "nodehash",
          "type": "bytes32"
        },
        {
          "internalType": "bytes[]",
          "name": "data",
          "type": "bytes[]"
        }
      ],
      "name": "multicallWithNodeCheck",
      "outputs": [
        {
          "internalType": "bytes[]",
          "name": "results",
          "type": "bytes[]"
        }
      ],
      "stateMutability": "nonpayable",
      "type": "function"
    },
    {
      "inputs": [
        {
          "internalType": "bytes32",
          "name": "node",
          "type": "bytes32"
        }
      ],
      "name": "name",
      "outputs": [
        {
          "internalType": "string",
          "name": "",
          "type": "string"
        }
      ],
      "stateMutability": "view",
      "type": "function"
    },
    {
      "inputs": [
        {
          "internalType": "bytes32",
          "name": "node",
          "type": "bytes32"
        }
      ],
      "name": "pubkey",
      "outputs": [
        {
          "internalType": "bytes32",
          "name": "x",
          "type": "bytes32"
        },
        {
          "internalType": "bytes32",
          "name": "y",
          "type": "bytes32"
        }
      ],
      "stateMutability": "view",
      "type": "function"
    },
    {
      "inputs": [
        {
          "internalType": "bytes32",
          "name": "",
          "type": "bytes32"
        }
      ],
      "name": "recordVersions",
      "outputs": [
        {
          "internalType": "uint64",
          "name": "",
          "type": "uint64"
        }
      ],
      "stateMutability": "view",
      "type": "function"
    },
    {
      "inputs": [
        {
          "internalType": "bytes32",
          "name": "node",
          "type": "bytes32"
        },
        {
          "internalType": "uint256",
          "name": "contentType",
          "type": "uint256"
        },
        {
          "internalType": "bytes",
          "name": "data",
          "type": "bytes"
        }
      ],
      "name": "setABI",
      "outputs": [],
      "stateMutability": "nonpayable",
      "type": "function"
    },
    {
      "inputs": [
        {
          "internalType": "bytes32",
          "name": "node",
          "type": "bytes32"
        },
        {
          "internalType": "uint256",
          "name": "coinType",
          "type": "uint256"
        },
        {
          "internalType": "bytes",
          "name": "a",
          "type": "bytes"
        }
      ],
      "name": "setAddr",
      "outputs": [],
      "stateMutability": "nonpayable",
      "type": "function"
    },
    {
      "inputs": [
        {
          "internalType": "bytes32",
          "name": "node",
          "type": "bytes32"
        },
        {
          "internalType": "address",
          "name": "a",
          "type": "address"
        }
      ],
      "name": "setAddr",
      "outputs": [],
      "stateMutability": "nonpayable",
      "type": "function"
    },
    {
      "inputs": [
        {
          "internalType": "address",
          "name": "operator",
          "type": "address"
        },
        {
          "internalType": "bool",
          "name": "approved",
          "type": "bool"
        }
      ],
      "name": "setApprovalForAll",
      "outputs": [],
      "stateMutability": "nonpayable",
      "type": "function"
    },
    {
      "inputs": [
        {
          "internalType": "bytes32",
          "name": "node",
          "type": "bytes32"
        },
        {
          "internalType": "bytes",
          "name": "hash",
          "type": "bytes"
        }
      ],
      "name": "setContenthash",
      "outputs": [],
      "stateMutability": "nonpayable",
      "type": "function"
    },
    {
      "inputs": [
        {
          "internalType": "bytes32",
          "name": "node",
          "type": "bytes32"
        },
        {
          "internalType": "bytes",
          "name": "data",
          "type": "bytes"
        }
      ],
      "name": "setDNSRecords",
      "outputs": [],
      "stateMutability": "nonpayable",
      "type": "function"
    },
    {
      "inputs": [
        {
          "internalType": "bytes32",
          "name": "node",
          "type": "bytes32"
        },
        {
          "internalType": "bytes4",
          "name": "interfaceID",
          "type": "bytes4"
        },
        {
          "internalType": "address",
          "name": "implementer",
          "type": "address"
        }
      ],
      "name": "setInterface",
      "outputs": [],
      "stateMutability": "nonpayable",
      "type": "function"
    },
    {
      "inputs": [
        {
          "internalType": "bytes32",
          "name": "node",
          "type": "bytes32"
        },
        {
          "internalType": "string",
          "name": "newName",
          "type": "string"
        }
      ],
      "name": "setName",
      "outputs": [],
      "stateMutability": "nonpayable",
      "type": "function"
    },
    {
      "inputs": [
        {
          "internalType": "bytes32",
          "name": "node",
          "type": "bytes32"
        },
        {
          "internalType": "bytes32",
          "name": "x",
          "type": "bytes32"
        },
        {
          "internalType": "bytes32",
          "name": "y",
          "type": "bytes32"
        }
      ],
      "name": "setPubkey",
      "outputs": [],
      "stateMutability": "nonpayable",
      "type": "function"
    },
    {
      "inputs": [
        {
          "internalType": "bytes32",
          "name": "node",
          "type": "bytes32"
        },
        {
          "internalType": "string",
          "name": "key",
          "type": "string"
        },
        {
          "internalType": "string",
          "name": "value",
          "type": "string"
        }
      ],
      "name": "setText",
      "outputs": [],
      "stateMutability": "nonpayable",
      "type": "function"
    },
    {
      "inputs": [
        {
          "internalType": "bytes32",
          "name": "node",
          "type": "bytes32"
        },
        {
          "internalType": "bytes",
          "name": "hash",
          "type": "bytes"
        }
      ],
      "name": "setZonehash",
      "outputs": [],
      "stateMutability": "nonpayable",
      "type": "function"
    },
    {
      "inputs": [
        {
          "internalType": "bytes4",
          "name": "interfaceID",
          "type": "bytes4"
        }
      ],
      "name": "supportsInterface",
      "outputs": [
        {
          "internalType": "bool",
          "name": "",
          "type": "bool"
        }
      ],
      "stateMutability": "view",
      "type": "function"
    },
    {
      "inputs": [
        {
          "internalType": "bytes32",
          "name": "node",
          "type": "bytes32"
        },
        {
          "internalType": "string",
          "name": "key",
          "type": "string"
        }
      ],
      "name": "text",
      "outputs": [
        {
          "internalType": "string",
          "name": "",
          "type": "string"
        }
      ],
      "stateMutability": "view",
      "type": "function"
    },
    {
      "inputs": [
        {
          "internalType": "bytes32",
          "name": "node",
          "type": "bytes32"
        }
      ],
      "name": "zonehash",
      "outputs": [
        {
          "internalType": "bytes",
          "name": "",
          "type": "bytes"
        }
      ],
      "stateMutability": "view",
      "type": "function"
    }
  ],
  "transactionHash": "0xd9acbdd515ea84e7e889431ff3574334e34309ec91886aa777c8b9431616c3ac",
  "args": [
    "0xB377E85fe2233734b47C90e7403FAEFb40Ba9aE6",
    "0xc51131DF692Ea113aCe23a6F84F9DADfE725dB82",
    "0xB56455Cdc9D962dd49284baabF1545F0E10FD3D6",
    "0x2E52598E3d04Eb558983100eFFdDe889b660f7a3"
  ],
  "numDeployments": 1,
  "solcInputHash": "ef30c679ec0e734b9949e6bb906c3fcc",
  "bytecode": "0x6101006040523480156200001257600080fd5b5060405162002c7738038062002c77833981016040819052620000359162000071565b6001600160a01b0393841660805291831660a052821660c0521660e052620000d9565b6001600160a01b03811681146200006e57600080fd5b50565b600080600080608085870312156200008857600080fd5b8451620000958162000058565b6020860151909450620000a88162000058565b6040860151909350620000bb8162000058565b6060860151909250620000ce8162000058565b939692955090935050565b60805160a05160c05160e051612b5d6200011a60003960006115e9015260006115b70152600081816116a801526116f6015260006116310152612b5d6000f3fe608060405234801561001057600080fd5b50600436106101c45760003560e01c806377372213116100f9578063ce3decdc11610097578063e32954eb11610071578063e32954eb14610493578063e59d895d146104a6578063e985e9c5146104b9578063f1cb7e06146104f557600080fd5b8063ce3decdc1461042c578063d5fa2b001461043f578063d700ff331461045257600080fd5b8063a8fa5682116100d3578063a8fa56821461038e578063ac9650d8146103a1578063bc1c58d1146103c1578063c8690233146103d457600080fd5b806377372213146103555780638b95dd7114610368578063a22cb4651461037b57600080fd5b80633603d7581161016657806359d1d43c1161014057806359d1d43c146102fc5780635c98042b1461031c578063623195b01461032f578063691f34311461034257600080fd5b80633603d7581461028b5780633b3b57de1461029e5780634cbf6ba4146102b157600080fd5b8063124a319c116101a2578063124a319c146102195780632203ab561461024457806329cd62ea14610265578063304e6ade1461027857600080fd5b806301ffc9a7146101c95780630af179d7146101f157806310f13a8c14610206575b600080fd5b6101dc6101d7366004612292565b610508565b60405190151581526020015b60405180910390f35b6102046101ff3660046122ee565b610519565b005b610204610214366004612339565b61071f565b61022c6102273660046123b2565b6107ea565b6040516001600160a01b0390911681526020016101e8565b6102576102523660046123de565b610a3b565b6040516101e892919061245c565b610204610273366004612475565b610b71565b6102046102863660046122ee565b610c0b565b6102046102993660046124a1565b610c86565b61022c6102ac3660046124a1565b610d27565b6101dc6102bf3660046123de565b600082815260208181526040808320546001600160401b031683526006825280832094835293815283822092825291909152205461ffff16151590565b61030f61030a3660046122ee565b610d5a565b6040516101e891906124ba565b61030f61032a3660046124a1565b610e39565b61020461033d3660046124cd565b610ef7565b61030f6103503660046124a1565b610f93565b6102046103633660046122ee565b610fcc565b610204610376366004612535565b611047565b61020461038936600461260d565b61112b565b61030f61039c36600461264b565b611207565b6103b46103af3660046126cf565b611254565b6040516101e89190612710565b61030f6103cf3660046124a1565b611262565b6104176103e23660046124a1565b600081815260208181526040808320546001600160401b03168352600982528083209383529290522080546001909101549091565b604080519283526020830191909152016101e8565b61020461043a3660046122ee565b61129b565b61020461044d366004612772565b6113dc565b61047b6104603660046124a1565b6000602081905290815260409020546001600160401b031681565b6040516001600160401b0390911681526020016101e8565b6103b46104a1366004612797565b611403565b6102046104b43660046127d5565b611418565b6101dc6104c736600461280a565b6001600160a01b039182166000908152600b6020908152604080832093909416825291909152205460ff1690565b61030f6105033660046123de565b6114be565b600061051382611585565b92915050565b82610523816115aa565b61052c57600080fd5b600084815260208181526040808320548151601f87018490048402810184019092528582528392606092839285926001600160401b039091169183916105919183918d908d908190840183828082843760009201919091525092939250506117aa9050565b90505b805151602082015110156106b85761ffff87166105f657806040015196506105bb8161180b565b9450846040516020016105ce9190612838565b6040516020818303038152906040528051906020012092506105ef8161182c565b93506106aa565b60006106018261180b565b9050816040015161ffff168861ffff1614158061062557506106238682611848565b155b156106a8576106818c878a8e8e8080601f016020809104026020016040519081016040528093929190818152602001838380828437600092019190915250505060208801518d915061067890829061286a565b8b51158a611866565b8160400151975081602001519650809550858051906020012093506106a58261182c565b94505b505b6106b381611ad0565b610594565b50835115610713576107138a85888c8c8080601f0160208091040260200160405190810160405280939291908181526020018383808284376000920191909152508c925061070a91508290508f61286a565b89511588611866565b50505050505050505050565b84610729816115aa565b61073257600080fd5b600086815260208181526040808320546001600160401b03168352600a8252808320898452909152908190209051849184916107719089908990612881565b90815260405190819003602001902061078b92909161212b565b50848460405161079c929190612881565b6040518091039020867f448bc014f1536726cf8d54ff3d6481ed3cbc683c2591ca204274009afa09b1a1878787876040516107da94939291906128ba565b60405180910390a3505050505050565b600082815260208181526040808320546001600160401b031683526007825280832085845282528083206001600160e01b0319851684529091528120546001600160a01b0316801561083d579050610513565b600061084885610d27565b90506001600160a01b03811661086357600092505050610513565b6040516301ffc9a760e01b602482015260009081906001600160a01b0384169060440160408051601f198184030181529181526020820180516001600160e01b03166301ffc9a760e01b179052516108bb9190612838565b600060405180830381855afa9150503d80600081146108f6576040519150601f19603f3d011682016040523d82523d6000602084013e6108fb565b606091505b509150915081158061090e575060208151105b80610938575080601f81518110610927576109276128ec565b01602001516001600160f81b031916155b1561094a576000945050505050610513565b6040516001600160e01b0319871660248201526001600160a01b0384169060440160408051601f198184030181529181526020820180516001600160e01b03166301ffc9a760e01b179052516109a09190612838565b600060405180830381855afa9150503d80600081146109db576040519150601f19603f3d011682016040523d82523d6000602084013e6109e0565b606091505b5090925090508115806109f4575060208151105b80610a1e575080601f81518110610a0d57610a0d6128ec565b01602001516001600160f81b031916155b15610a30576000945050505050610513565b509095945050505050565b600082815260208181526040808320546001600160401b03168352600180835281842086855290925282206060915b848111610b515780851615801590610a9a575060008181526020839052604081208054610a9690612902565b9050115b15610b495780826000838152602001908152602001600020808054610abe90612902565b80601f0160208091040260200160405190810160405280929190818152602001828054610aea90612902565b8015610b375780601f10610b0c57610100808354040283529160200191610b37565b820191906000526020600020905b815481529060010190602001808311610b1a57829003601f168201915b50505050509050935093505050610b6a565b60011b610a6a565b5060006040518060200160405280600081525092509250505b9250929050565b82610b7b816115aa565b610b8457600080fd5b60408051808201825284815260208082018581526000888152808352848120546001600160401b031681526009835284812089825283528490209251835551600190920191909155815185815290810184905285917f1d6f5e03d3f63eb58751986629a5439baee5079ff04f345becb66e23eb154e4691015b60405180910390a250505050565b82610c15816115aa565b610c1e57600080fd5b600084815260208181526040808320546001600160401b03168352600382528083208784529091529020610c5390848461212b565b50837fe379c1624ed7e714cc0937528a32359d69d5281337765313dba4e081b72d75788484604051610bfd92919061293d565b80610c90816115aa565b610c9957600080fd5b600082815260208190526040812080546001600160401b031691610cbc83612951565b82546101009290920a6001600160401b03818102199093169183160217909155600084815260208181526040918290205491519190921681528492507fc6621ccb8f3f5a04bb6502154b2caf6adf5983fe76dfef1cfc9c42e3579db444910160405180910390a25050565b600080610d3583603c6114be565b9050805160001415610d4a5750600092915050565b610d5381611bb8565b9392505050565b600083815260208181526040808320546001600160401b03168352600a825280832086845290915290819020905160609190610d999085908590612881565b90815260200160405180910390208054610db290612902565b80601f0160208091040260200160405190810160405280929190818152602001828054610dde90612902565b8015610e2b5780601f10610e0057610100808354040283529160200191610e2b565b820191906000526020600020905b815481529060010190602001808311610e0e57829003601f168201915b505050505090509392505050565b600081815260208181526040808320546001600160401b03168352600482528083208484529091529020805460609190610e7290612902565b80601f0160208091040260200160405190810160405280929190818152602001828054610e9e90612902565b8015610eeb5780601f10610ec057610100808354040283529160200191610eeb565b820191906000526020600020905b815481529060010190602001808311610ece57829003601f168201915b50505050509050919050565b83610f01816115aa565b610f0a57600080fd5b83610f1660018261286a565b1615610f2157600080fd5b600085815260208181526040808320546001600160401b031683526001825280832088845282528083208784529091529020610f5e90848461212b565b50604051849086907faa121bbeef5f32f5961a2a28966e769023910fc9479059ee3495d4c1a696efe390600090a35050505050565b600081815260208181526040808320546001600160401b03168352600882528083208484529091529020805460609190610e7290612902565b82610fd6816115aa565b610fdf57600080fd5b600084815260208181526040808320546001600160401b0316835260088252808320878452909152902061101490848461212b565b50837fb7d29e911041e8d9b843369e890bcb72c9388692ba48b65ac54e7214c4c348f78484604051610bfd92919061293d565b82611051816115aa565b61105a57600080fd5b837f65412581168e88a1e60c6459d7f44ae83ad0832e670826c05a4e2476b57af752848460405161108c92919061245c565b60405180910390a2603c8314156110e457837f52d7d861f09ab3d26239d492e8968629f95e9e318cf0b73bfddc441522a15fd26110c884611bb8565b6040516001600160a01b03909116815260200160405180910390a25b600084815260208181526040808320546001600160401b0316835260028252808320878452825280832086845282529091208351611124928501906121af565b5050505050565b336001600160a01b038316141561119b5760405162461bcd60e51b815260206004820152602960248201527f455243313135353a2073657474696e6720617070726f76616c20737461747573604482015268103337b91039b2b63360b91b60648201526084015b60405180910390fd5b336000818152600b602090815260408083206001600160a01b03871680855290835292819020805460ff191686151590811790915590519081529192917f17307eab39ab6107e8899845ad3d59bd9653f200f220920489ca2b5937696c31910160405180910390a35050565b600083815260208181526040808320546001600160401b03168352600582528083208684528252808320858452825280832061ffff851684529091529020805460609190610db290612902565b6060610d5360008484611bd7565b600081815260208181526040808320546001600160401b03168352600382528083208484529091529020805460609190610e7290612902565b826112a5816115aa565b6112ae57600080fd5b600084815260208181526040808320546001600160401b031680845260048352818420888552909252822080549192916112e790612902565b80601f016020809104026020016040519081016040528092919081815260200182805461131390612902565b80156113605780601f1061133557610100808354040283529160200191611360565b820191906000526020600020905b81548152906001019060200180831161134357829003601f168201915b505050506001600160401b03841660009081526004602090815260408083208b84529091529020919250611397919050868661212b565b50857f8f15ed4b723ef428f250961da8315675b507046737e19319fc1a4d81bfe87f858287876040516113cc93929190612978565b60405180910390a2505050505050565b816113e6816115aa565b6113ef57600080fd5b6113fe83603c61037685611da6565b505050565b6060611410848484611bd7565b949350505050565b82611422816115aa565b61142b57600080fd5b600084815260208181526040808320546001600160401b031683526007825280832087845282528083206001600160e01b031987168085529083529281902080546001600160a01b0319166001600160a01b038716908117909155905190815286917f7c69f06bea0bdef565b709e93a147836b0063ba2dd89f02d0b7e8d931e6a6daa910160405180910390a350505050565b600082815260208181526040808320546001600160401b0316835260028252808320858452825280832084845290915290208054606091906114ff90612902565b80601f016020809104026020016040519081016040528092919081815260200182805461152b90612902565b80156115785780601f1061154d57610100808354040283529160200191611578565b820191906000526020600020905b81548152906001019060200180831161155b57829003601f168201915b5050505050905092915050565b60006001600160e01b03198216631674750f60e21b1480610513575061051382611dd6565b6000336001600160a01b037f000000000000000000000000000000000000000000000000000000000000000016148061160b5750336001600160a01b037f000000000000000000000000000000000000000000000000000000000000000016145b1561161857506001919050565b6040516302571be360e01b8152600481018390526000907f00000000000000000000000000000000000000000000000000000000000000006001600160a01b0316906302571be390602401602060405180830381865afa158015611680573d6000803e3d6000fd5b505050506040513d601f19601f820116820180604052508101906116a491906129a8565b90507f00000000000000000000000000000000000000000000000000000000000000006001600160a01b0316816001600160a01b0316141561176c576040516331a9108f60e11b8152600481018490527f00000000000000000000000000000000000000000000000000000000000000006001600160a01b031690636352211e90602401602060405180830381865afa158015611745573d6000803e3d6000fd5b505050506040513d601f19601f8201168201806040525081019061176991906129a8565b90505b6001600160a01b038116331480610d5357506001600160a01b0381166000908152600b6020908152604080832033845290915290205460ff16610d53565b6117f86040518060e001604052806060815260200160008152602001600061ffff168152602001600061ffff168152602001600063ffffffff16815260200160008152602001600081525090565b82815260c0810182905261051381611ad0565b60208101518151606091610513916118239082611dfb565b84519190611e52565b60a081015160c08201516060916105139161182390829061286a565b600081518351148015610d535750610d538360008460008751611ec8565b86516020880120600061187a878787611e52565b905083156119a1576001600160401b03831660009081526005602090815260408083208d84528252808320858452825280832061ffff8c168452909152902080546118c490612902565b159050611922576001600160401b03831660009081526006602090815260408083208d845282528083208584529091528120805461ffff1691611906836129c5565b91906101000a81548161ffff021916908361ffff160217905550505b6001600160401b03831660009081526005602090815260408083208d84528252808320858452825280832061ffff8c168452909152812061196291612223565b897f03528ed0c2a3ebc993b12ce3c16bb382f9c7d88ef7d8a1bf290eaf35955a12078a8a6040516119949291906129e3565b60405180910390a2610713565b6001600160401b03831660009081526005602090815260408083208d84528252808320858452825280832061ffff8c168452909152902080546119e390612902565b15159050611a42576001600160401b03831660009081526006602090815260408083208d845282528083208584529091528120805461ffff1691611a2683612a09565b91906101000a81548161ffff021916908361ffff160217905550505b6001600160401b03831660009081526005602090815260408083208d84528252808320858452825280832061ffff8c16845282529091208251611a87928401906121af565b50897f52a608b3303a48862d07a73d82fa221318c0027fbbcfb1b2329bface3f19ff2b8a8a84604051611abc93929190612a21565b60405180910390a250505050505050505050565b60c08101516020820181905281515111611ae75750565b6000611afb82600001518360200151611dfb565b8260200151611b0a9190612a50565b8251909150611b199082611eeb565b61ffff166040830152611b2d600282612a50565b8251909150611b3c9082611eeb565b61ffff166060830152611b50600282612a50565b8251909150611b5f9082611f13565b63ffffffff166080830152611b75600482612a50565b8251909150600090611b879083611eeb565b61ffff169050611b98600283612a50565b60a084018190529150611bab8183612a50565b60c0909301929092525050565b60008151601414611bc857600080fd5b5060200151600160601b900490565b6060816001600160401b03811115611bf157611bf161251f565b604051908082528060200260200182016040528015611c2457816020015b6060815260200190600190039081611c0f5790505b50905060005b82811015611d9e578415611ce6576000848483818110611c4c57611c4c6128ec565b9050602002810190611c5e9190612a68565b611c6d91602491600491612aae565b611c7691612ad8565b9050858114611ce45760405162461bcd60e51b815260206004820152603460248201527f6d756c746963616c6c3a20416c6c207265636f726473206d7573742068617665604482015273040c240dac2e8c6d0d2dcce40dcc2dacad0c2e6d60631b6064820152608401611192565b505b60008030868685818110611cfc57611cfc6128ec565b9050602002810190611d0e9190612a68565b604051611d1c929190612881565b600060405180830381855af49150503d8060008114611d57576040519150601f19603f3d011682016040523d82523d6000602084013e611d5c565b606091505b509150915081611d6b57600080fd5b80848481518110611d7e57611d7e6128ec565b602002602001018190525050508080611d9690612af6565b915050611c2a565b509392505050565b604080516014808252818301909252606091602082018180368337505050600160601b9290920260208301525090565b60006001600160e01b0319821663c869023360e01b1480610513575061051382611f3d565b6000815b83518110611e0f57611e0f612b11565b6000611e1b8583611f62565b60ff169050611e2b816001612a50565b611e359083612a50565b915080611e425750611e48565b50611dff565b611410838261286a565b8251606090611e618385612a50565b1115611e6c57600080fd5b6000826001600160401b03811115611e8657611e8661251f565b6040519080825280601f01601f191660200182016040528015611eb0576020820181803683370190505b50905060208082019086860101610a30828287611f86565b6000611ed5848484611fdc565b611ee0878785611fdc565b149695505050505050565b8151600090611efb836002612a50565b1115611f0657600080fd5b50016002015161ffff1690565b8151600090611f23836004612a50565b1115611f2e57600080fd5b50016004015163ffffffff1690565b60006001600160e01b0319821663691f343160e01b1480610513575061051382612000565b6000828281518110611f7657611f766128ec565b016020015160f81c905092915050565b60208110611fbe5781518352611f9d602084612a50565b9250611faa602083612a50565b9150611fb760208261286a565b9050611f86565b905182516020929092036101000a6000190180199091169116179052565b8251600090611feb8385612a50565b1115611ff657600080fd5b5091016020012090565b60006001600160e01b031982166304928c6760e21b148061051357506105138260006001600160e01b0319821663547d2b4160e11b148061205157506001600160e01b03198216635c98042b60e01b145b8061051357506105138260006001600160e01b0319821663bc1c58d160e01b148061051357506105138260006001600160e01b03198216631d9dabef60e11b14806120ac57506001600160e01b031982166378e5bf0360e11b145b8061051357506105138260006001600160e01b03198216631101d5ab60e11b148061051357506105138260006001600160e01b0319821663d700ff3360e01b148061051357506105138260006001600160e01b03198216634fbf043360e01b148061051357506301ffc9a760e01b6001600160e01b0319831614610513565b82805461213790612902565b90600052602060002090601f016020900481019282612159576000855561219f565b82601f106121725782800160ff1982351617855561219f565b8280016001018555821561219f579182015b8281111561219f578235825591602001919060010190612184565b506121ab929150612260565b5090565b8280546121bb90612902565b90600052602060002090601f0160209004810192826121dd576000855561219f565b82601f106121f657805160ff191683800117855561219f565b8280016001018555821561219f579182015b8281111561219f578251825591602001919060010190612208565b50805461222f90612902565b6000825580601f1061223f575050565b601f01602090049060005260206000209081019061225d9190612260565b50565b5b808211156121ab5760008155600101612261565b80356001600160e01b03198116811461228d57600080fd5b919050565b6000602082840312156122a457600080fd5b610d5382612275565b60008083601f8401126122bf57600080fd5b5081356001600160401b038111156122d657600080fd5b602083019150836020828501011115610b6a57600080fd5b60008060006040848603121561230357600080fd5b8335925060208401356001600160401b0381111561232057600080fd5b61232c868287016122ad565b9497909650939450505050565b60008060008060006060868803121561235157600080fd5b8535945060208601356001600160401b038082111561236f57600080fd5b61237b89838a016122ad565b9096509450604088013591508082111561239457600080fd5b506123a1888289016122ad565b969995985093965092949392505050565b600080604083850312156123c557600080fd5b823591506123d560208401612275565b90509250929050565b600080604083850312156123f157600080fd5b50508035926020909101359150565b60005b8381101561241b578181015183820152602001612403565b8381111561242a576000848401525b50505050565b60008151808452612448816020860160208601612400565b601f01601f19169290920160200192915050565b8281526040602082015260006114106040830184612430565b60008060006060848603121561248a57600080fd5b505081359360208301359350604090920135919050565b6000602082840312156124b357600080fd5b5035919050565b602081526000610d536020830184612430565b600080600080606085870312156124e357600080fd5b843593506020850135925060408501356001600160401b0381111561250757600080fd5b612513878288016122ad565b95989497509550505050565b634e487b7160e01b600052604160045260246000fd5b60008060006060848603121561254a57600080fd5b833592506020840135915060408401356001600160401b038082111561256f57600080fd5b818601915086601f83011261258357600080fd5b8135818111156125955761259561251f565b604051601f8201601f19908116603f011681019083821181831017156125bd576125bd61251f565b816040528281528960208487010111156125d657600080fd5b8260208601602083013760006020848301015280955050505050509250925092565b6001600160a01b038116811461225d57600080fd5b6000806040838503121561262057600080fd5b823561262b816125f8565b91506020830135801515811461264057600080fd5b809150509250929050565b60008060006060848603121561266057600080fd5b8335925060208401359150604084013561ffff8116811461268057600080fd5b809150509250925092565b60008083601f84011261269d57600080fd5b5081356001600160401b038111156126b457600080fd5b6020830191508360208260051b8501011115610b6a57600080fd5b600080602083850312156126e257600080fd5b82356001600160401b038111156126f857600080fd5b6127048582860161268b565b90969095509350505050565b6000602080830181845280855180835260408601915060408160051b870101925083870160005b8281101561276557603f19888603018452612753858351612430565b94509285019290850190600101612737565b5092979650505050505050565b6000806040838503121561278557600080fd5b823591506020830135612640816125f8565b6000806000604084860312156127ac57600080fd5b8335925060208401356001600160401b038111156127c957600080fd5b61232c8682870161268b565b6000806000606084860312156127ea57600080fd5b833592506127fa60208501612275565b91506040840135612680816125f8565b6000806040838503121561281d57600080fd5b8235612828816125f8565b91506020830135612640816125f8565b6000825161284a818460208701612400565b9190910192915050565b634e487b7160e01b600052601160045260246000fd5b60008282101561287c5761287c612854565b500390565b8183823760009101908152919050565b81835281816020850137506000828201602090810191909152601f909101601f19169091010190565b6040815260006128ce604083018688612891565b82810360208401526128e1818587612891565b979650505050505050565b634e487b7160e01b600052603260045260246000fd5b600181811c9082168061291657607f821691505b6020821081141561293757634e487b7160e01b600052602260045260246000fd5b50919050565b602081526000611410602083018486612891565b60006001600160401b038083168181141561296e5761296e612854565b6001019392505050565b60408152600061298b6040830186612430565b828103602084015261299e818587612891565b9695505050505050565b6000602082840312156129ba57600080fd5b8151610d53816125f8565b600061ffff8216806129d9576129d9612854565b6000190192915050565b6040815260006129f66040830185612430565b905061ffff831660208301529392505050565b600061ffff8083168181141561296e5761296e612854565b606081526000612a346060830186612430565b61ffff85166020840152828103604084015261299e8185612430565b60008219821115612a6357612a63612854565b500190565b6000808335601e19843603018112612a7f57600080fd5b8301803591506001600160401b03821115612a9957600080fd5b602001915036819003821315610b6a57600080fd5b60008085851115612abe57600080fd5b83861115612acb57600080fd5b5050820193919092039150565b8035602083101561051357600019602084900360031b1b1692915050565b6000600019821415612b0a57612b0a612854565b5060010190565b634e487b7160e01b600052600160045260246000fdfea264697066735822122023f39a14fea9ce5c329438ec993a8f190ea3484f14e1c792cd72595d9d15c18264736f6c634300080c0033",
  "devdoc": {
    "kind": "dev",
    "methods": {
      "ABI(bytes32,uint256)": {
        "params": {
          "contentTypes": "A bitwise OR of the ABI formats accepted by the caller.",
          "node": "The DNS node to query"
        },
        "returns": {
          "_0": "contentType The content type of the return value",
          "_1": "data The ABI data"
        }
      },
      "addr(bytes32)": {
        "params": {
          "node": "The DNS node to query."
        },
        "returns": {
          "_0": "The associated address."
        }
      },
      "clearRecords(bytes32)": {
        "params": {
          "node": "The node to update."
        }
      },
      "contenthash(bytes32)": {
        "params": {
          "node": "The DNS node to query."
        },
        "returns": {
          "_0": "The associated contenthash."
        }
      },
      "dnsRecord(bytes32,bytes32,uint16)": {
        "params": {
          "name": "the keccak-256 hash of the fully-qualified name for which to fetch the record",
          "node": "the namehash of the node for which to fetch the record",
          "resource": "the ID of the resource as per https://en.wikipedia.org/wiki/List_of_DNS_record_types"
        },
        "returns": {
          "_0": "the DNS record in wire format if present, otherwise empty"
        }
      },
      "hasDNSRecords(bytes32,bytes32)": {
        "params": {
          "name": "the namehash of the node for which to check the records",
          "node": "the namehash of the node for which to check the records"
        }
      },
      "interfaceImplementer(bytes32,bytes4)": {
        "params": {
          "interfaceID": "The EIP 165 interface ID to check for.",
          "node": "The DNS node to query."
        },
        "returns": {
          "_0": "The address that implements this interface, or 0 if the interface is unsupported."
        }
      },
      "isApprovedForAll(address,address)": {
        "details": "See {IERC1155-isApprovedForAll}."
      },
      "name(bytes32)": {
        "params": {
          "node": "The DNS node to query."
        },
        "returns": {
          "_0": "The associated name."
        }
      },
      "pubkey(bytes32)": {
        "params": {
          "node": "The DNS node to query"
        },
        "returns": {
          "x": "The X coordinate of the curve point for the public key.",
          "y": "The Y coordinate of the curve point for the public key."
        }
      },
      "setABI(bytes32,uint256,bytes)": {
        "params": {
          "contentType": "The content type of the ABI",
          "data": "The ABI data.",
          "node": "The node to update."
        }
      },
      "setAddr(bytes32,address)": {
        "params": {
          "a": "The address to set.",
          "node": "The node to update."
        }
      },
      "setApprovalForAll(address,bool)": {
        "details": "See {IERC1155-setApprovalForAll}."
      },
      "setContenthash(bytes32,bytes)": {
        "params": {
          "hash": "The contenthash to set",
          "node": "The node to update."
        }
      },
      "setDNSRecords(bytes32,bytes)": {
        "params": {
          "data": "the DNS wire format records to set",
          "node": "the namehash of the node for which to set the records"
        }
      },
      "setInterface(bytes32,bytes4,address)": {
        "params": {
          "implementer": "The address of a contract that implements this interface for this node.",
          "interfaceID": "The EIP 165 interface ID.",
          "node": "The node to update."
        }
      },
      "setName(bytes32,string)": {
        "params": {
          "node": "The node to update."
        }
      },
      "setPubkey(bytes32,bytes32,bytes32)": {
        "params": {
          "node": "The DNS node to query",
          "x": "the X coordinate of the curve point for the public key.",
          "y": "the Y coordinate of the curve point for the public key."
        }
      },
      "setText(bytes32,string,string)": {
        "params": {
          "key": "The key to set.",
          "node": "The node to update.",
          "value": "The text data value to set."
        }
      },
      "setZonehash(bytes32,bytes)": {
        "params": {
          "hash": "The zonehash to set",
          "node": "The node to update."
        }
      },
      "text(bytes32,string)": {
        "params": {
          "key": "The text data key to query.",
          "node": "The DNS node to query."
        },
        "returns": {
          "_0": "The associated text data."
        }
      },
      "zonehash(bytes32)": {
        "params": {
          "node": "The DNS node to query."
        },
        "returns": {
          "_0": "The associated contenthash."
        }
      }
    },
    "version": 1
  },
  "userdoc": {
    "kind": "user",
    "methods": {
      "ABI(bytes32,uint256)": {
        "notice": "Returns the ABI associated with an DNS node. Defined in EIP205."
      },
      "addr(bytes32)": {
        "notice": "Returns the address associated with an DNS node."
      },
      "clearRecords(bytes32)": {
        "notice": "Increments the record version associated with an TomoNs node. May only be called by the owner of that node in the TomoNs registry."
      },
      "contenthash(bytes32)": {
        "notice": "Returns the contenthash associated with an DNS node."
      },
      "dnsRecord(bytes32,bytes32,uint16)": {
        "notice": "Obtain a DNS record."
      },
      "hasDNSRecords(bytes32,bytes32)": {
        "notice": "Check if a given node has records."
      },
      "interfaceImplementer(bytes32,bytes4)": {
        "notice": "Returns the address of a contract that implements the specified interface for this name. If an implementer has not been set for this interfaceID and name, the resolver will query the contract at `addr()`. If `addr()` is set, a contract exists at that address, and that contract implements EIP165 and returns `true` for the specified interfaceID, its address will be returned."
      },
      "name(bytes32)": {
        "notice": "Returns the name associated with an DNS node, for reverse records. Defined in EIP181."
      },
      "pubkey(bytes32)": {
        "notice": "Returns the SECP256k1 public key associated with an DNS node. Defined in EIP 619."
      },
      "setABI(bytes32,uint256,bytes)": {
        "notice": "Sets the ABI associated with an DNS node. Nodes may have one ABI of each content type. To remove an ABI, set it to the empty string."
      },
      "setAddr(bytes32,address)": {
        "notice": "Sets the address associated with an DNS node. May only be called by the owner of that node in the DNS registry."
      },
      "setContenthash(bytes32,bytes)": {
        "notice": "Sets the contenthash associated with an DNS node. May only be called by the owner of that node in the DNS registry."
      },
      "setDNSRecords(bytes32,bytes)": {
        "notice": "Set one or more DNS records.  Records are supplied in wire-format. Records with the same node/name/resource must be supplied one after the other to ensure the data is updated correctly. For example, if the data was supplied:     a.example.com IN A 1.2.3.4     a.example.com IN A 5.6.7.8     www.example.com IN CNAME a.example.com. then this would store the two A records for a.example.com correctly as a single RRSET, however if the data was supplied:     a.example.com IN A 1.2.3.4     www.example.com IN CNAME a.example.com.     a.example.com IN A 5.6.7.8 then this would store the first A record, the CNAME, then the second A record which would overwrite the first."
      },
      "setInterface(bytes32,bytes4,address)": {
        "notice": "Sets an interface associated with a name. Setting the address to 0 restores the default behaviour of querying the contract at `addr()` for interface support."
      },
      "setName(bytes32,string)": {
        "notice": "Sets the name associated with an DNS node, for reverse records. May only be called by the owner of that node in the DNS registry."
      },
      "setPubkey(bytes32,bytes32,bytes32)": {
        "notice": "Sets the SECP256k1 public key associated with an DNS node."
      },
      "setText(bytes32,string,string)": {
        "notice": "Sets the text data associated with an DNS node and key. May only be called by the owner of that node in the DNS registry."
      },
      "setZonehash(bytes32,bytes)": {
        "notice": "setZonehash sets the hash for the zone. May only be called by the owner of that node in the DNS registry."
      },
      "text(bytes32,string)": {
        "notice": "Returns the text data associated with an DNS node and key."
      },
      "zonehash(bytes32)": {
        "notice": "zonehash obtains the hash for the zone."
      }
    },
    "notice": "A simple resolver anyone can use; only allows the owner of a node to set its address.",
    "version": 1
  },
  "storageLayout": {
    "storage": [
      {
        "astId": 14493,
        "contract": "contracts/resolvers/PublicResolver.sol:PublicResolver",
        "label": "recordVersions",
        "offset": 0,
        "slot": "0",
        "type": "t_mapping(t_bytes32,t_uint64)"
      },
      {
        "astId": 14587,
        "contract": "contracts/resolvers/PublicResolver.sol:PublicResolver",
        "label": "versionable_abis",
        "offset": 0,
        "slot": "1",
        "type": "t_mapping(t_uint64,t_mapping(t_bytes32,t_mapping(t_uint256,t_bytes_storage)))"
      },
      {
        "astId": 14741,
        "contract": "contracts/resolvers/PublicResolver.sol:PublicResolver",
        "label": "versionable_addresses",
        "offset": 0,
        "slot": "2",
        "type": "t_mapping(t_uint64,t_mapping(t_bytes32,t_mapping(t_uint256,t_bytes_storage)))"
      },
      {
        "astId": 14932,
        "contract": "contracts/resolvers/PublicResolver.sol:PublicResolver",
        "label": "versionable_hashes",
        "offset": 0,
        "slot": "3",
        "type": "t_mapping(t_uint64,t_mapping(t_bytes32,t_bytes_storage))"
      },
      {
        "astId": 15022,
        "contract": "contracts/resolvers/PublicResolver.sol:PublicResolver",
        "label": "versionable_zonehashes",
        "offset": 0,
        "slot": "4",
        "type": "t_mapping(t_uint64,t_mapping(t_bytes32,t_bytes_storage))"
      },
      {
        "astId": 15032,
        "contract": "contracts/resolvers/PublicResolver.sol:PublicResolver",
        "label": "versionable_records",
        "offset": 0,
        "slot": "5",
        "type": "t_mapping(t_uint64,t_mapping(t_bytes32,t_mapping(t_bytes32,t_mapping(t_uint16,t_bytes_storage))))"
      },
      {
        "astId": 15040,
        "contract": "contracts/resolvers/PublicResolver.sol:PublicResolver",
        "label": "versionable_nameEntriesCount",
        "offset": 0,
        "slot": "6",
        "type": "t_mapping(t_uint64,t_mapping(t_bytes32,t_mapping(t_bytes32,t_uint16)))"
      },
      {
        "astId": 15736,
        "contract": "contracts/resolvers/PublicResolver.sol:PublicResolver",
        "label": "versionable_interfaces",
        "offset": 0,
        "slot": "7",
        "type": "t_mapping(t_uint64,t_mapping(t_bytes32,t_mapping(t_bytes4,t_address)))"
      },
      {
        "astId": 15928,
        "contract": "contracts/resolvers/PublicResolver.sol:PublicResolver",
        "label": "versionable_names",
        "offset": 0,
        "slot": "8",
        "type": "t_mapping(t_uint64,t_mapping(t_bytes32,t_string_storage))"
      },
      {
        "astId": 16015,
        "contract": "contracts/resolvers/PublicResolver.sol:PublicResolver",
        "label": "versionable_pubkeys",
        "offset": 0,
        "slot": "9",
        "type": "t_mapping(t_uint64,t_mapping(t_bytes32,t_struct(PublicKey)16008_storage))"
      },
      {
        "astId": 16118,
        "contract": "contracts/resolvers/PublicResolver.sol:PublicResolver",
        "label": "versionable_texts",
        "offset": 0,
        "slot": "10",
        "type": "t_mapping(t_uint64,t_mapping(t_bytes32,t_mapping(t_string_memory_ptr,t_string_storage)))"
      },
      {
        "astId": 14144,
        "contract": "contracts/resolvers/PublicResolver.sol:PublicResolver",
        "label": "_operatorApprovals",
        "offset": 0,
        "slot": "11",
        "type": "t_mapping(t_address,t_mapping(t_address,t_bool))"
      }
    ],
    "types": {
      "t_address": {
        "encoding": "inplace",
        "label": "address",
        "numberOfBytes": "20"
      },
      "t_bool": {
        "encoding": "inplace",
        "label": "bool",
        "numberOfBytes": "1"
      },
      "t_bytes32": {
        "encoding": "inplace",
        "label": "bytes32",
        "numberOfBytes": "32"
      },
      "t_bytes4": {
        "encoding": "inplace",
        "label": "bytes4",
        "numberOfBytes": "4"
      },
      "t_bytes_storage": {
        "encoding": "bytes",
        "label": "bytes",
        "numberOfBytes": "32"
      },
      "t_mapping(t_address,t_bool)": {
        "encoding": "mapping",
        "key": "t_address",
        "label": "mapping(address => bool)",
        "numberOfBytes": "32",
        "value": "t_bool"
      },
      "t_mapping(t_address,t_mapping(t_address,t_bool))": {
        "encoding": "mapping",
        "key": "t_address",
        "label": "mapping(address => mapping(address => bool))",
        "numberOfBytes": "32",
        "value": "t_mapping(t_address,t_bool)"
      },
      "t_mapping(t_bytes32,t_bytes_storage)": {
        "encoding": "mapping",
        "key": "t_bytes32",
        "label": "mapping(bytes32 => bytes)",
        "numberOfBytes": "32",
        "value": "t_bytes_storage"
      },
      "t_mapping(t_bytes32,t_mapping(t_bytes32,t_mapping(t_uint16,t_bytes_storage)))": {
        "encoding": "mapping",
        "key": "t_bytes32",
        "label": "mapping(bytes32 => mapping(bytes32 => mapping(uint16 => bytes)))",
        "numberOfBytes": "32",
        "value": "t_mapping(t_bytes32,t_mapping(t_uint16,t_bytes_storage))"
      },
      "t_mapping(t_bytes32,t_mapping(t_bytes32,t_uint16))": {
        "encoding": "mapping",
        "key": "t_bytes32",
        "label": "mapping(bytes32 => mapping(bytes32 => uint16))",
        "numberOfBytes": "32",
        "value": "t_mapping(t_bytes32,t_uint16)"
      },
      "t_mapping(t_bytes32,t_mapping(t_bytes4,t_address))": {
        "encoding": "mapping",
        "key": "t_bytes32",
        "label": "mapping(bytes32 => mapping(bytes4 => address))",
        "numberOfBytes": "32",
        "value": "t_mapping(t_bytes4,t_address)"
      },
      "t_mapping(t_bytes32,t_mapping(t_string_memory_ptr,t_string_storage))": {
        "encoding": "mapping",
        "key": "t_bytes32",
        "label": "mapping(bytes32 => mapping(string => string))",
        "numberOfBytes": "32",
        "value": "t_mapping(t_string_memory_ptr,t_string_storage)"
      },
      "t_mapping(t_bytes32,t_mapping(t_uint16,t_bytes_storage))": {
        "encoding": "mapping",
        "key": "t_bytes32",
        "label": "mapping(bytes32 => mapping(uint16 => bytes))",
        "numberOfBytes": "32",
        "value": "t_mapping(t_uint16,t_bytes_storage)"
      },
      "t_mapping(t_bytes32,t_mapping(t_uint256,t_bytes_storage))": {
        "encoding": "mapping",
        "key": "t_bytes32",
        "label": "mapping(bytes32 => mapping(uint256 => bytes))",
        "numberOfBytes": "32",
        "value": "t_mapping(t_uint256,t_bytes_storage)"
      },
      "t_mapping(t_bytes32,t_string_storage)": {
        "encoding": "mapping",
        "key": "t_bytes32",
        "label": "mapping(bytes32 => string)",
        "numberOfBytes": "32",
        "value": "t_string_storage"
      },
      "t_mapping(t_bytes32,t_struct(PublicKey)16008_storage)": {
        "encoding": "mapping",
        "key": "t_bytes32",
        "label": "mapping(bytes32 => struct PubkeyResolver.PublicKey)",
        "numberOfBytes": "32",
        "value": "t_struct(PublicKey)16008_storage"
      },
      "t_mapping(t_bytes32,t_uint16)": {
        "encoding": "mapping",
        "key": "t_bytes32",
        "label": "mapping(bytes32 => uint16)",
        "numberOfBytes": "32",
        "value": "t_uint16"
      },
      "t_mapping(t_bytes32,t_uint64)": {
        "encoding": "mapping",
        "key": "t_bytes32",
        "label": "mapping(bytes32 => uint64)",
        "numberOfBytes": "32",
        "value": "t_uint64"
      },
      "t_mapping(t_bytes4,t_address)": {
        "encoding": "mapping",
        "key": "t_bytes4",
        "label": "mapping(bytes4 => address)",
        "numberOfBytes": "32",
        "value": "t_address"
      },
      "t_mapping(t_string_memory_ptr,t_string_storage)": {
        "encoding": "mapping",
        "key": "t_string_memory_ptr",
        "label": "mapping(string => string)",
        "numberOfBytes": "32",
        "value": "t_string_storage"
      },
      "t_mapping(t_uint16,t_bytes_storage)": {
        "encoding": "mapping",
        "key": "t_uint16",
        "label": "mapping(uint16 => bytes)",
        "numberOfBytes": "32",
        "value": "t_bytes_storage"
      },
      "t_mapping(t_uint256,t_bytes_storage)": {
        "encoding": "mapping",
        "key": "t_uint256",
        "label": "mapping(uint256 => bytes)",
        "numberOfBytes": "32",
        "value": "t_bytes_storage"
      },
      "t_mapping(t_uint64,t_mapping(t_bytes32,t_bytes_storage))": {
        "encoding": "mapping",
        "key": "t_uint64",
        "label": "mapping(uint64 => mapping(bytes32 => bytes))",
        "numberOfBytes": "32",
        "value": "t_mapping(t_bytes32,t_bytes_storage)"
      },
      "t_mapping(t_uint64,t_mapping(t_bytes32,t_mapping(t_bytes32,t_mapping(t_uint16,t_bytes_storage))))": {
        "encoding": "mapping",
        "key": "t_uint64",
        "label": "mapping(uint64 => mapping(bytes32 => mapping(bytes32 => mapping(uint16 => bytes))))",
        "numberOfBytes": "32",
        "value": "t_mapping(t_bytes32,t_mapping(t_bytes32,t_mapping(t_uint16,t_bytes_storage)))"
      },
      "t_mapping(t_uint64,t_mapping(t_bytes32,t_mapping(t_bytes32,t_uint16)))": {
        "encoding": "mapping",
        "key": "t_uint64",
        "label": "mapping(uint64 => mapping(bytes32 => mapping(bytes32 => uint16)))",
        "numberOfBytes": "32",
        "value": "t_mapping(t_bytes32,t_mapping(t_bytes32,t_uint16))"
      },
      "t_mapping(t_uint64,t_mapping(t_bytes32,t_mapping(t_bytes4,t_address)))": {
        "encoding": "mapping",
        "key": "t_uint64",
        "label": "mapping(uint64 => mapping(bytes32 => mapping(bytes4 => address)))",
        "numberOfBytes": "32",
        "value": "t_mapping(t_bytes32,t_mapping(t_bytes4,t_address))"
      },
      "t_mapping(t_uint64,t_mapping(t_bytes32,t_mapping(t_string_memory_ptr,t_string_storage)))": {
        "encoding": "mapping",
        "key": "t_uint64",
        "label": "mapping(uint64 => mapping(bytes32 => mapping(string => string)))",
        "numberOfBytes": "32",
        "value": "t_mapping(t_bytes32,t_mapping(t_string_memory_ptr,t_string_storage))"
      },
      "t_mapping(t_uint64,t_mapping(t_bytes32,t_mapping(t_uint256,t_bytes_storage)))": {
        "encoding": "mapping",
        "key": "t_uint64",
        "label": "mapping(uint64 => mapping(bytes32 => mapping(uint256 => bytes)))",
        "numberOfBytes": "32",
        "value": "t_mapping(t_bytes32,t_mapping(t_uint256,t_bytes_storage))"
      },
      "t_mapping(t_uint64,t_mapping(t_bytes32,t_string_storage))": {
        "encoding": "mapping",
        "key": "t_uint64",
        "label": "mapping(uint64 => mapping(bytes32 => string))",
        "numberOfBytes": "32",
        "value": "t_mapping(t_bytes32,t_string_storage)"
      },
      "t_mapping(t_uint64,t_mapping(t_bytes32,t_struct(PublicKey)16008_storage))": {
        "encoding": "mapping",
        "key": "t_uint64",
        "label": "mapping(uint64 => mapping(bytes32 => struct PubkeyResolver.PublicKey))",
        "numberOfBytes": "32",
        "value": "t_mapping(t_bytes32,t_struct(PublicKey)16008_storage)"
      },
      "t_string_memory_ptr": {
        "encoding": "bytes",
        "label": "string",
        "numberOfBytes": "32"
      },
      "t_string_storage": {
        "encoding": "bytes",
        "label": "string",
        "numberOfBytes": "32"
      },
      "t_struct(PublicKey)16008_storage": {
        "encoding": "inplace",
        "label": "struct PubkeyResolver.PublicKey",
        "members": [
          {
            "astId": 16005,
            "contract": "contracts/resolvers/PublicResolver.sol:PublicResolver",
            "label": "x",
            "offset": 0,
            "slot": "0",
            "type": "t_bytes32"
          },
          {
            "astId": 16007,
            "contract": "contracts/resolvers/PublicResolver.sol:PublicResolver",
            "label": "y",
            "offset": 0,
            "slot": "1",
            "type": "t_bytes32"
          }
        ],
        "numberOfBytes": "64"
      },
      "t_uint16": {
        "encoding": "inplace",
        "label": "uint16",
        "numberOfBytes": "2"
      },
      "t_uint256": {
        "encoding": "inplace",
        "label": "uint256",
        "numberOfBytes": "32"
      },
      "t_uint64": {
        "encoding": "inplace",
        "label": "uint64",
        "numberOfBytes": "8"
      }
    }
  }
}