{
  "address": "0x55E391cE0FdFDfD9350d271450d3316CdcBbe16F",
  "abi": [
    {
      "inputs": [
        {
          "internalType": "bytes",
          "name": "key",
          "type": "bytes"
        },
        {
          "internalType": "bytes",
          "name": "data",
          "type": "bytes"
        },
        {
          "internalType": "bytes",
          "name": "signature",
          "type": "bytes"
        }
      ],
      "name": "verify",
      "outputs": [
        {
          "internalType": "bool",
          "name": "",
          "type": "bool"
        }
      ],
      "stateMutability": "view",
      "type": "function"
    }
  ],
  "transactionHash": "0x3ca604d2ba2540fb75de322781e5d8afbfd902437a471253c85c0f05f626e3d0",
  "args": [],
  "numDeployments": 1,
  "solcInputHash": "ef30c679ec0e734b9949e6bb906c3fcc",
  "bytecode": "0x608060405234801561001057600080fd5b50610ef8806100206000396000f3fe608060405234801561001057600080fd5b506004361061002b5760003560e01c8063de8f50a114610030575b600080fd5b61004361003e366004610d62565b610057565b604051901515815260200160405180910390f35b60006101316002868660405161006e929190610dfc565b602060405180830381855afa15801561008b573d6000803e3d6000fd5b5050506040513d601f19601f820116820180604052508101906100ae9190610e0c565b6100ed85858080601f01602080910402602001604051908101604052809392919081815260200183838082843760009201919091525061013c92505050565b61012c8a8a8080601f0160208091040260200160405190810160405280939291908181526020018383808284376000920191909152506101cb92505050565b61024a565b979650505050505050565b610144610ce4565b815160401461019a5760405162461bcd60e51b815260206004820152601d60248201527f496e76616c69642070323536207369676e6174757265206c656e67746800000060448201526064015b60405180910390fd5b60408051808201909152806101b08460006103e8565b81526020908101906101c39085906103e8565b905292915050565b6101d3610ce4565b81516044146102245760405162461bcd60e51b815260206004820152601760248201527f496e76616c69642070323536206b6579206c656e6774680000000000000000006044820152606401610191565b604080518082019091528061023a8460046103e8565b81526020016101c38460246103e8565b8151600090158061026a57508251600080516020610ea383398151915211155b8061027757506020830151155b15610284575060006103e1565b81516020830151610295919061040c565b6102a1575060006103e1565b6000808080806102c68860016020020151600080516020610ea38339815191526104fe565b90506103247f6b17d1f2e12c4247f8bce6e563a440f277037d812deb33a0f4a13945d898c2967f4fe342e2fe1a7f9b8ee7eb4a7c0f9e162bce33576b315ececbb6406837bf51f5600080516020610ea3833981519152848d09610598565b885160208a01518b5193985091955061035292909190600080516020610ea383398151915290859009610598565b9094509150600061036586858786610665565b604081015190915061038057600096505050505050506103e1565b60006103a18260026020020151600160601b63ffffffff60c01b03196104fe565b9050600160601b63ffffffff60c01b0319808283098351098a519091506103d6600080516020610ea383398151915283610e3b565b149750505050505050505b9392505050565b81516000906103f8836020610e73565b111561040357600080fd5b50016020015190565b60008215806104285750600160601b63ffffffff60c01b031983145b80610431575081155b806104495750600160601b63ffffffff60c01b031982145b15610456575060006104f8565b6000600160601b63ffffffff60c01b031983840990506000600160601b63ffffffff60c01b031985600160601b63ffffffff60c01b0319878809099050600160601b63ffffffff60c01b0319806bfffffffffffffffffffffffd63ffffffff60c01b0319870982089050600160601b63ffffffff60c01b03197f5ac635d8aa3a93e7b3ebbd55769886bc651d06b0cc53b0f63bce3c3e27d2604b820890501490505b92915050565b600082158061050c57508183145b80610515575081155b15610522575060006104f8565b8183111561053d5781838161053957610539610e25565b0692505b600060018385835b81156105745781838161055a5761055a610e25565b949594048581029094039391928383029003919050610545565b600085121561058c5750505090830191506104f89050565b50929695505050505050565b600080826105ad576000805b9150915061065d565b82600114156105c057508390508261065d565b82600214156105d3576105a4858561068b565b508390508281816001806105e8600288610e3b565b6105f457600094508495505b600187901c96505b86156106495761060d8484846106bb565b9195509350915061061f600288610e3b565b6001141561063d5761063584848489898661090f565b919750955090505b600187901c96506105fc565b610654868683610a16565b95509550505050505b935093915050565b61066d610d02565b60008061067c87878787610a66565b90925090506101318282610a9b565b600080600061069c858560016106bb565b919650945090506106ae858583610a16565b92509250505b9250929050565b60008060008060008060006106d08a8a610af4565b156106e957600060018196509650965050505050610906565b600160601b63ffffffff60c01b0319888a099250600160601b63ffffffff60c01b0319600284099250600160601b63ffffffff60c01b03198a84099150600160601b63ffffffff60c01b03198983099150600160601b63ffffffff60c01b0319600283099150600160601b63ffffffff60c01b03198a8b099950600160601b63ffffffff60c01b031960038b099350600160601b63ffffffff60c01b03198889099750600160601b63ffffffff60c01b03196bfffffffffffffffffffffffd63ffffffff60c01b031989099750600160601b63ffffffff60c01b03198885089350600160601b63ffffffff60c01b03198485099050600160601b63ffffffff60c01b0319826002099950600160601b63ffffffff60c01b031961081a8b600160601b63ffffffff60c01b0319610e8b565b82089050600160601b63ffffffff60c01b031961084582600160601b63ffffffff60c01b0319610e8b565b83089950600160601b63ffffffff60c01b03198a85099950600160601b63ffffffff60c01b0319838a099850600160601b63ffffffff60c01b0319898a099850600160601b63ffffffff60c01b0319896002099850600160601b63ffffffff60c01b03196108c18a600160601b63ffffffff60c01b0319610e8b565b8b089550600160601b63ffffffff60c01b03198184099650600160601b63ffffffff60c01b03198384099450600160601b63ffffffff60c01b03198386099450505050505b93509350939050565b60008060008060008060006109248d8d610af4565b1561093b5789898996509650965050505050610a0a565b6109458a8a610af4565b1561095c578c8c8c96509650965050505050610a0a565b600160601b63ffffffff60c01b0319888d099350600160601b63ffffffff60c01b03198b8a099250600160601b63ffffffff60c01b0319888e099150600160601b63ffffffff60c01b03198b8b099050808214156109e057828414156109d6576109c78d8d8d6106bb565b96509650965050505050610a0a565b60006001816109c7565b6109fe600160601b63ffffffff60c01b0319898d0983838688610b18565b91985096509450505050505b96509650969350505050565b6000806000610a3384600160601b63ffffffff60c01b03196104fe565b9050600160601b63ffffffff60c01b03198187099250600160601b63ffffffff60c01b0319818609915050935093915050565b6000806000610a7b878760018888600161090f565b91985096509050610a8d878783610a16565b925092505094509492505050565b610aa3610d02565b600160601b63ffffffff60c01b0319600160000860408201819052600160601b63ffffffff60c01b031990840981526040810151600160601b63ffffffff60c01b0319908309602082015292915050565b600082158015610b02575081155b15610b0f575060016104f8565b50600092915050565b600080808080808080600160601b63ffffffff60c01b0319610b488b600160601b63ffffffff60c01b0319610e8b565b8a089050600160601b63ffffffff60c01b0319610b738c600160601b63ffffffff60c01b0319610e8b565b8d089450600160601b63ffffffff60c01b03198586099350600160601b63ffffffff60c01b03198182099150600160601b63ffffffff60c01b03198d83099150600160601b63ffffffff60c01b03198c8c089a50600160601b63ffffffff60c01b0319848c099a50600160601b63ffffffff60c01b0319610c028c600160601b63ffffffff60c01b0319610e8b565b83089150600160601b63ffffffff60c01b03198286099750600160601b63ffffffff60c01b03198585099250600160601b63ffffffff60c01b0319848d099b50600160601b63ffffffff60c01b0319610c6983600160601b63ffffffff60c01b0319610e8b565b8d089b50600160601b63ffffffff60c01b03198c82099050600160601b63ffffffff60c01b0319838a099850600160601b63ffffffff60c01b0319610cbc8a600160601b63ffffffff60c01b0319610e8b565b82089650600160601b63ffffffff60c01b03198d840995505050505050955095509592505050565b60405180604001604052806002906020820280368337509192915050565b60405180606001604052806003906020820280368337509192915050565b60008083601f840112610d3257600080fd5b50813567ffffffffffffffff811115610d4a57600080fd5b6020830191508360208285010111156106b457600080fd5b60008060008060008060608789031215610d7b57600080fd5b863567ffffffffffffffff80821115610d9357600080fd5b610d9f8a838b01610d20565b90985096506020890135915080821115610db857600080fd5b610dc48a838b01610d20565b90965094506040890135915080821115610ddd57600080fd5b50610dea89828a01610d20565b979a9699509497509295939492505050565b8183823760009101908152919050565b600060208284031215610e1e57600080fd5b5051919050565b634e487b7160e01b600052601260045260246000fd5b600082610e5857634e487b7160e01b600052601260045260246000fd5b500690565b634e487b7160e01b600052601160045260246000fd5b60008219821115610e8657610e86610e5d565b500190565b600082821015610e9d57610e9d610e5d565b50039056feffffffff00000000ffffffffffffffffbce6faada7179e84f3b9cac2fc632551a2646970667358221220fbbe43098d184aa79cd58030afd0f22f2f895f58d5ed9079d1bdcd4027013e1564736f6c634300080c0033",
  "devdoc": {
    "kind": "dev",
    "methods": {
      "verify(bytes,bytes,bytes)": {
        "details": "Verifies a signature.",
        "params": {
          "data": "The signed data to verify.",
          "key": "The public key to verify with.",
          "signature": "The signature to verify."
        },
        "returns": {
          "_0": "True iff the signature is valid."
        }
      }
    },
    "version": 1
  },
  "userdoc": {
    "kind": "user",
    "methods": {},
    "version": 1
  },
  "storageLayout": {
    "storage": [],
    "types": null
  }
}