{
  "address": "0x0111220F5C6579A069592e49A8bC209F2408053b",
  "abi": [
    {
      "inputs": [
        {
          "internalType": "contract TomoNs",
          "name": "_tomoNs",
          "type": "address"
        }
      ],
      "stateMutability": "nonpayable",
      "type": "constructor"
    },
    {
      "anonymous": false,
      "inputs": [
        {
          "indexed": true,
          "internalType": "address",
          "name": "controller",
          "type": "address"
        },
        {
          "indexed": false,
          "internalType": "bool",
          "name": "enabled",
          "type": "bool"
        }
      ],
      "name": "ControllerChanged",
      "type": "event"
    },
    {
      "anonymous": false,
      "inputs": [
        {
          "indexed": true,
          "internalType": "address",
          "name": "previousOwner",
          "type": "address"
        },
        {
          "indexed": true,
          "internalType": "address",
          "name": "newOwner",
          "type": "address"
        }
      ],
      "name": "OwnershipTransferred",
      "type": "event"
    },
    {
      "anonymous": false,
      "inputs": [
        {
          "indexed": true,
          "internalType": "bytes32",
          "name": "label",
          "type": "bytes32"
        }
      ],
      "name": "TLDLocked",
      "type": "event"
    },
    {
      "inputs": [
        {
          "internalType": "address",
          "name": "",
          "type": "address"
        }
      ],
      "name": "controllers",
      "outputs": [
        {
          "internalType": "bool",
          "name": "",
          "type": "bool"
        }
      ],
      "stateMutability": "view",
      "type": "function"
    },
    {
      "inputs": [
        {
          "internalType": "bytes32",
          "name": "label",
          "type": "bytes32"
        }
      ],
      "name": "lock",
      "outputs": [],
      "stateMutability": "nonpayable",
      "type": "function"
    },
    {
      "inputs": [
        {
          "internalType": "bytes32",
          "name": "",
          "type": "bytes32"
        }
      ],
      "name": "locked",
      "outputs": [
        {
          "internalType": "bool",
          "name": "",
          "type": "bool"
        }
      ],
      "stateMutability": "view",
      "type": "function"
    },
    {
      "inputs": [],
      "name": "owner",
      "outputs": [
        {
          "internalType": "address",
          "name": "",
          "type": "address"
        }
      ],
      "stateMutability": "view",
      "type": "function"
    },
    {
      "inputs": [],
      "name": "renounceOwnership",
      "outputs": [],
      "stateMutability": "nonpayable",
      "type": "function"
    },
    {
      "inputs": [
        {
          "internalType": "address",
          "name": "controller",
          "type": "address"
        },
        {
          "internalType": "bool",
          "name": "enabled",
          "type": "bool"
        }
      ],
      "name": "setController",
      "outputs": [],
      "stateMutability": "nonpayable",
      "type": "function"
    },
    {
      "inputs": [
        {
          "internalType": "address",
          "name": "resolver",
          "type": "address"
        }
      ],
      "name": "setResolver",
      "outputs": [],
      "stateMutability": "nonpayable",
      "type": "function"
    },
    {
      "inputs": [
        {
          "internalType": "bytes32",
          "name": "label",
          "type": "bytes32"
        },
        {
          "internalType": "address",
          "name": "owner",
          "type": "address"
        }
      ],
      "name": "setSubnodeOwner",
      "outputs": [],
      "stateMutability": "nonpayable",
      "type": "function"
    },
    {
      "inputs": [
        {
          "internalType": "bytes4",
          "name": "interfaceID",
          "type": "bytes4"
        }
      ],
      "name": "supportsInterface",
      "outputs": [
        {
          "internalType": "bool",
          "name": "",
          "type": "bool"
        }
      ],
      "stateMutability": "pure",
      "type": "function"
    },
    {
      "inputs": [],
      "name": "tomoNs",
      "outputs": [
        {
          "internalType": "contract TomoNs",
          "name": "",
          "type": "address"
        }
      ],
      "stateMutability": "view",
      "type": "function"
    },
    {
      "inputs": [
        {
          "internalType": "address",
          "name": "newOwner",
          "type": "address"
        }
      ],
      "name": "transferOwnership",
      "outputs": [],
      "stateMutability": "nonpayable",
      "type": "function"
    }
  ],
  "transactionHash": "0xfdbd6f73b85475b2250eb0f1236708998a02e455d4d62b404601aca68dba0192",
  "args": [
    "0x7A2D4D954866691334C70F633EdBc89A5aF5b50A"
  ],
  "numDeployments": 1,
  "solcInputHash": "e254095ffb285cde8a4a00f839e9ba85",
  "bytecode": "0x608060405234801561001057600080fd5b5060405161076338038061076383398101604081905261002f916100ad565b6100383361005d565b600280546001600160a01b0319166001600160a01b03929092169190911790556100dd565b600080546001600160a01b038381166001600160a01b0319831681178455604051919092169283917f8be0079c531659141344cd1fd0a4f28419497f9722a3daafe3b4186f6b6457e09190a35050565b6000602082840312156100bf57600080fd5b81516001600160a01b03811681146100d657600080fd5b9392505050565b610677806100ec6000396000f3fe608060405234801561001057600080fd5b50600436106100a95760003560e01c80638da5cb5b116100715780638da5cb5b1461012a578063c51b03bf1461014f578063cbe9e76414610162578063da8c229e14610185578063e0dba60f146101a8578063f2fde38b146101bb57600080fd5b806301670ba9146100ae57806301ffc9a7146100c35780634e543b26146100fc578063715018a61461010f5780638cb8ecec14610117575b600080fd5b6100c16100bc36600461053f565b6101ce565b005b6100e76100d1366004610558565b6001600160e01b0319166301ffc9a760e01b1490565b60405190151581526020015b60405180910390f35b6100c161010a3660046105a5565b61021c565b6100c161028d565b6100c16101253660046105c0565b6102a1565b6000546001600160a01b03165b6040516001600160a01b0390911681526020016100f3565b600254610137906001600160a01b031681565b6100e761017036600461053f565b60036020526000908152604090205460ff1681565b6100e76101933660046105a5565b60016020526000908152604090205460ff1681565b6100c16101b63660046105ec565b6103b5565b6100c16101c93660046105a5565b61041c565b6101d6610495565b60405181907f1764176cfa565853ba1ded547a830a9f9bff95231ef6fd228b3ddd617577756990600090a26000908152600360205260409020805460ff19166001179055565b610224610495565b600254604051630c4b7b8560e11b8152600060048201526001600160a01b03838116602483015290911690631896f70a90604401600060405180830381600087803b15801561027257600080fd5b505af1158015610286573d6000803e3d6000fd5b5050505050565b610295610495565b61029f60006104ef565b565b3360009081526001602052604090205460ff166103165760405162461bcd60e51b815260206004820152602860248201527f436f6e74726f6c6c61626c653a2043616c6c6572206973206e6f74206120636f604482015267373a3937b63632b960c11b60648201526084015b60405180910390fd5b60008281526003602052604090205460ff161561033257600080fd5b6002546040516306ab592360e01b815260006004820152602481018490526001600160a01b038381166044830152909116906306ab5923906064016020604051808303816000875af115801561038c573d6000803e3d6000fd5b505050506040513d601f19601f820116820180604052508101906103b09190610628565b505050565b6103bd610495565b6001600160a01b038216600081815260016020908152604091829020805460ff191685151590811790915591519182527f4c97694570a07277810af7e5669ffd5f6a2d6b74b6e9a274b8b870fd5114cf87910160405180910390a25050565b610424610495565b6001600160a01b0381166104895760405162461bcd60e51b815260206004820152602660248201527f4f776e61626c653a206e6577206f776e657220697320746865207a65726f206160448201526564647265737360d01b606482015260840161030d565b610492816104ef565b50565b6000546001600160a01b0316331461029f5760405162461bcd60e51b815260206004820181905260248201527f4f776e61626c653a2063616c6c6572206973206e6f7420746865206f776e6572604482015260640161030d565b600080546001600160a01b038381166001600160a01b0319831681178455604051919092169283917f8be0079c531659141344cd1fd0a4f28419497f9722a3daafe3b4186f6b6457e09190a35050565b60006020828403121561055157600080fd5b5035919050565b60006020828403121561056a57600080fd5b81356001600160e01b03198116811461058257600080fd5b9392505050565b80356001600160a01b03811681146105a057600080fd5b919050565b6000602082840312156105b757600080fd5b61058282610589565b600080604083850312156105d357600080fd5b823591506105e360208401610589565b90509250929050565b600080604083850312156105ff57600080fd5b61060883610589565b91506020830135801515811461061d57600080fd5b809150509250929050565b60006020828403121561063a57600080fd5b505191905056fea26469706673582212203992d982cc251e337f097bf22242a4ce2c504159401f2116b5471f378a369d6264736f6c634300080c0033",
  "devdoc": {
    "kind": "dev",
    "methods": {
      "owner()": {
        "details": "Returns the address of the current owner."
      },
      "renounceOwnership()": {
        "details": "Leaves the contract without owner. It will not be possible to call `onlyOwner` functions anymore. Can only be called by the current owner. NOTE: Renouncing ownership will leave the contract without an owner, thereby removing any functionality that is only available to the owner."
      },
      "transferOwnership(address)": {
        "details": "Transfers ownership of the contract to a new account (`newOwner`). Can only be called by the current owner."
      }
    },
    "version": 1
  },
  "userdoc": {
    "kind": "user",
    "methods": {},
    "version": 1
  },
  "storageLayout": {
    "storage": [
      {
        "astId": 529,
        "contract": "contracts/root/Root.sol:Root",
        "label": "_owner",
        "offset": 0,
        "slot": "0",
        "type": "t_address"
      },
      {
        "astId": 12115,
        "contract": "contracts/root/Root.sol:Root",
        "label": "controllers",
        "offset": 0,
        "slot": "1",
        "type": "t_mapping(t_address,t_bool)"
      },
      {
        "astId": 12185,
        "contract": "contracts/root/Root.sol:Root",
        "label": "tomoNs",
        "offset": 0,
        "slot": "2",
        "type": "t_contract(TomoNs)9707"
      },
      {
        "astId": 12189,
        "contract": "contracts/root/Root.sol:Root",
        "label": "locked",
        "offset": 0,
        "slot": "3",
        "type": "t_mapping(t_bytes32,t_bool)"
      }
    ],
    "types": {
      "t_address": {
        "encoding": "inplace",
        "label": "address",
        "numberOfBytes": "20"
      },
      "t_bool": {
        "encoding": "inplace",
        "label": "bool",
        "numberOfBytes": "1"
      },
      "t_bytes32": {
        "encoding": "inplace",
        "label": "bytes32",
        "numberOfBytes": "32"
      },
      "t_contract(TomoNs)9707": {
        "encoding": "inplace",
        "label": "contract TomoNs",
        "numberOfBytes": "20"
      },
      "t_mapping(t_address,t_bool)": {
        "encoding": "mapping",
        "key": "t_address",
        "label": "mapping(address => bool)",
        "numberOfBytes": "32",
        "value": "t_bool"
      },
      "t_mapping(t_bytes32,t_bool)": {
        "encoding": "mapping",
        "key": "t_bytes32",
        "label": "mapping(bytes32 => bool)",
        "numberOfBytes": "32",
        "value": "t_bool"
      }
    }
  }
}