{
  "address": "0x3c21a25f6901A255e0F8Fe7a282E75f8aad1922C",
  "abi": [
    {
      "inputs": [
        {
          "internalType": "contract DNSSEC",
          "name": "_dnssec",
          "type": "address"
        },
        {
          "internalType": "contract PublicSuffixList",
          "name": "_suffixes",
          "type": "address"
        },
        {
          "internalType": "contract TomoNs",
          "name": "_tomoNs",
          "type": "address"
        }
      ],
      "stateMutability": "nonpayable",
      "type": "constructor"
    },
    {
      "inputs": [],
      "name": "NoOwnerRecordFound",
      "type": "error"
    },
    {
      "inputs": [],
      "name": "StaleProof",
      "type": "error"
    },
    {
      "anonymous": false,
      "inputs": [
        {
          "indexed": true,
          "internalType": "bytes32",
          "name": "node",
          "type": "bytes32"
        },
        {
          "indexed": true,
          "internalType": "address",
          "name": "owner",
          "type": "address"
        },
        {
          "indexed": false,
          "internalType": "bytes",
          "name": "dnsname",
          "type": "bytes"
        },
        {
          "indexed": false,
          "internalType": "uint32",
          "name": "inception",
          "type": "uint32"
        }
      ],
      "name": "Claim",
      "type": "event"
    },
    {
      "anonymous": false,
      "inputs": [
        {
          "indexed": false,
          "internalType": "address",
          "name": "oracle",
          "type": "address"
        }
      ],
      "name": "NewOracle",
      "type": "event"
    },
    {
      "anonymous": false,
      "inputs": [
        {
          "indexed": false,
          "internalType": "address",
          "name": "suffixes",
          "type": "address"
        }
      ],
      "name": "NewPublicSuffixList",
      "type": "event"
    },
    {
      "inputs": [
        {
          "internalType": "bytes32",
          "name": "",
          "type": "bytes32"
        }
      ],
      "name": "inceptions",
      "outputs": [
        {
          "internalType": "uint32",
          "name": "",
          "type": "uint32"
        }
      ],
      "stateMutability": "view",
      "type": "function"
    },
    {
      "inputs": [],
      "name": "oracle",
      "outputs": [
        {
          "internalType": "contract DNSSEC",
          "name": "",
          "type": "address"
        }
      ],
      "stateMutability": "view",
      "type": "function"
    },
    {
      "inputs": [
        {
          "internalType": "bytes",
          "name": "name",
          "type": "bytes"
        },
        {
          "components": [
            {
              "internalType": "bytes",
              "name": "rrset",
              "type": "bytes"
            },
            {
              "internalType": "bytes",
              "name": "sig",
              "type": "bytes"
            }
          ],
          "internalType": "struct DNSSEC.RRSetWithSignature[]",
          "name": "input",
          "type": "tuple[]"
        }
      ],
      "name": "proveAndClaim",
      "outputs": [],
      "stateMutability": "nonpayable",
      "type": "function"
    },
    {
      "inputs": [
        {
          "internalType": "bytes",
          "name": "name",
          "type": "bytes"
        },
        {
          "components": [
            {
              "internalType": "bytes",
              "name": "rrset",
              "type": "bytes"
            },
            {
              "internalType": "bytes",
              "name": "sig",
              "type": "bytes"
            }
          ],
          "internalType": "struct DNSSEC.RRSetWithSignature[]",
          "name": "input",
          "type": "tuple[]"
        },
        {
          "internalType": "address",
          "name": "resolver",
          "type": "address"
        },
        {
          "internalType": "address",
          "name": "addr",
          "type": "address"
        }
      ],
      "name": "proveAndClaimWithResolver",
      "outputs": [],
      "stateMutability": "nonpayable",
      "type": "function"
    },
    {
      "inputs": [
        {
          "internalType": "contract PublicSuffixList",
          "name": "_suffixes",
          "type": "address"
        }
      ],
      "name": "setPublicSuffixList",
      "outputs": [],
      "stateMutability": "nonpayable",
      "type": "function"
    },
    {
      "inputs": [],
      "name": "suffixes",
      "outputs": [
        {
          "internalType": "contract PublicSuffixList",
          "name": "",
          "type": "address"
        }
      ],
      "stateMutability": "view",
      "type": "function"
    },
    {
      "inputs": [
        {
          "internalType": "bytes4",
          "name": "interfaceID",
          "type": "bytes4"
        }
      ],
      "name": "supportsInterface",
      "outputs": [
        {
          "internalType": "bool",
          "name": "",
          "type": "bool"
        }
      ],
      "stateMutability": "pure",
      "type": "function"
    },
    {
      "inputs": [],
      "name": "tomoNs",
      "outputs": [
        {
          "internalType": "contract TomoNs",
          "name": "",
          "type": "address"
        }
      ],
      "stateMutability": "view",
      "type": "function"
    }
  ],
  "transactionHash": "0x0b4312f786f7df668cc43c118d7f11359a03a20e8e1b28c0d7835bdbe04451ad",
  "args": [
    "0xf523f0690Eb86d6d47eF0cad1146EBeafBb758a5",
    "0x56e73f4B8f9D4256B22331B597281E6a320A7cc5",
    "0x669579145E221a9398B8d108ACbCC0608ADA90E5"
  ],
  "numDeployments": 1,
  "solcInputHash": "e254095ffb285cde8a4a00f839e9ba85",
  "bytecode": "0x60c06040523480156200001157600080fd5b5060405162001d0638038062001d068339810160408190526200003491620000f5565b6001600160a01b03831660a08190526040519081527fb3eacd0e351fafdfefdec84e1cd19679b38dbcd63ea7c2c24da17fd2bc3b3c0e9060200160405180910390a1600080546001600160a01b0319166001600160a01b0384169081179091556040519081527f9176b7f47e4504df5e5516c99d90d82ac7cbd49cc77e7f22ba2ac2f2e3a3eba89060200160405180910390a16001600160a01b031660805250620001499050565b6001600160a01b0381168114620000f257600080fd5b50565b6000806000606084860312156200010b57600080fd5b83516200011881620000dc565b60208501519093506200012b81620000dc565b60408501519092506200013e81620000dc565b809150509250925092565b60805160a051611b58620001ae6000396000818161015b0152610754015260008181610182015281816103120152818161042a015281816104ca01528181610549015281816106d301528181610b7801528181610c900152610d8f0152611b586000f3fe608060405234801561001057600080fd5b50600436106100885760003560e01c806329d566301161005b57806329d566301461011857806330349ebe1461012b5780637dc0d1d014610156578063c51b03bf1461017d57600080fd5b806301ffc9a71461008d57806306963218146100b55780631ecfc411146100ca57806325916d41146100dd575b600080fd5b6100a061009b3660046114b7565b6101a4565b60405190151581526020015b60405180910390f35b6100c86100c33660046116e1565b6101db565b005b6100c86100d836600461176a565b610530565b6101036100eb366004611787565b60016020526000908152604090205463ffffffff1681565b60405163ffffffff90911681526020016100ac565b6100c86101263660046117a0565b61068f565b60005461013e906001600160a01b031681565b6040516001600160a01b0390911681526020016100ac565b61013e7f000000000000000000000000000000000000000000000000000000000000000081565b61013e7f000000000000000000000000000000000000000000000000000000000000000081565b60006001600160e01b031982166301ffc9a760e01b14806101d557506001600160e01b031982166305e86a8560e31b145b92915050565b60008060006101ea878761074a565b91945092509050336001600160a01b038216146102645760405162461bcd60e51b815260206004820152602d60248201527f4f6e6c79206f776e65722063616e2063616c6c2070726f7665416e64436c616960448201526c36abb4ba342932b9b7b63b32b960991b60648201526084015b60405180910390fd5b6001600160a01b0384161561048e576001600160a01b0385166102d85760405162461bcd60e51b815260206004820152602660248201527f43616e6e6f74207365742061646472206966207265736f6c766572206973206e6044820152651bdd081cd95d60d21b606482015260840161025b565b6040516305ef2c7f60e41b815260048101849052602481018390523060448201526001600160a01b038681166064830152600060848301527f00000000000000000000000000000000000000000000000000000000000000001690635ef2c7f09060a401600060405180830381600087803b15801561035657600080fd5b505af115801561036a573d6000803e3d6000fd5b505050506000838360405160200161038c929190918252602082015260400190565b60408051808303601f1901815290829052805160209091012062d5fa2b60e81b8252600482018190526001600160a01b03878116602484015290925087169063d5fa2b0090604401600060405180830381600087803b1580156103ee57600080fd5b505af1158015610402573d6000803e3d6000fd5b5050604051635b0fc9c360e01b8152600481018490526001600160a01b0385811660248301527f0000000000000000000000000000000000000000000000000000000000000000169250635b0fc9c39150604401600060405180830381600087803b15801561047057600080fd5b505af1158015610484573d6000803e3d6000fd5b5050505050610527565b6040516305ef2c7f60e41b815260048101849052602481018390526001600160a01b0382811660448301528681166064830152600060848301527f00000000000000000000000000000000000000000000000000000000000000001690635ef2c7f09060a401600060405180830381600087803b15801561050e57600080fd5b505af1158015610522573d6000803e3d6000fd5b505050505b50505050505050565b6040516302571be360e01b8152600060048201819052907f00000000000000000000000000000000000000000000000000000000000000006001600160a01b0316906302571be390602401602060405180830381865afa158015610598573d6000803e3d6000fd5b505050506040513d601f19601f820116820180604052508101906105bc9190611804565b90506000816001600160a01b0316638da5cb5b6040518163ffffffff1660e01b8152600401602060405180830381865afa1580156105fe573d6000803e3d6000fd5b505050506040513d601f19601f820116820180604052508101906106229190611804565b9050336001600160a01b0382161461063957600080fd5b600080546001600160a01b0319166001600160a01b0385169081179091556040519081527f9176b7f47e4504df5e5516c99d90d82ac7cbd49cc77e7f22ba2ac2f2e3a3eba89060200160405180910390a1505050565b600080600061069e858561074a565b6040516306ab592360e01b815260048101849052602481018390526001600160a01b03828116604483015293965091945092507f0000000000000000000000000000000000000000000000000000000000000000909116906306ab5923906064016020604051808303816000875af115801561071e573d6000803e3d6000fd5b505050506040513d601f19601f820116820180604052508101906107429190611821565b505050505050565b60008060008060007f00000000000000000000000000000000000000000000000000000000000000006001600160a01b031663bdf95fef876040518263ffffffff1660e01b815260040161079e9190611892565b600060405180830381865afa1580156107bb573d6000803e3d6000fd5b505050506040513d6000823e601f3d908101601f191682016040526107e39190810190611917565b909250905060006107f48882610a03565b60ff16905061080588600183610a27565b945060006108386108178360016119c4565b6001848c5161082691906119dc565b61083091906119dc565b8b9190610a4b565b6000546040516327c482cf60e11b81529192506001600160a01b031690634f89059e906108699084906004016119f3565b602060405180830381865afa158015610886573d6000803e3d6000fd5b505050506040513d601f19601f820116820180604052508101906108aa9190611a06565b6109025760405162461bcd60e51b815260206004820152602360248201527f506172656e74206e616d65206d7573742062652061207075626c6963207375666044820152620ccd2f60eb1b606482015260840161025b565b61090d816000610acd565b96506000878760405160200161092d929190918252602082015260400190565b60408051601f1981840301815291815281516020928301206000818152600190935291205490915061096690859063ffffffff16610e10565b61098357604051632dd6a7af60e01b815260040160405180910390fd5b6000818152600160205260409020805463ffffffff191663ffffffff86161790556109ae8a86610e29565b5080965050856001600160a01b0316817f87db02a0e483e2818060eddcbb3488ce44e35aff49a70d92c2aa6c8046cf01e28c876040516109ef929190611a28565b60405180910390a350505050509250925092565b6000828281518110610a1757610a17611a50565b016020015160f81c905092915050565b8251600090610a3683856119c4565b1115610a4157600080fd5b5091016020012090565b8251606090610a5a83856119c4565b1115610a6557600080fd5b60008267ffffffffffffffff811115610a8057610a806114e1565b6040519080825280601f01601f191660200182016040528015610aaa576020820181803683370190505b50905060208082019086860101610ac2828287610efd565b509095945050505050565b600080610ada8484610a03565b60ff16905080610aee5750600090506101d5565b6000610b0e85610afe84876119c4565b610b099060016119c4565b610acd565b90506000610b28610b208660016119c4565b879085610a27565b604080516020810185905290810182905290915060600160408051601f198184030181529082905280516020909101206302571be360e01b82526004820181905294506000906001600160a01b037f000000000000000000000000000000000000000000000000000000000000000016906302571be390602401602060405180830381865afa158015610bbf573d6000803e3d6000fd5b505050506040513d601f19601f82011682018060405250810190610be39190611804565b90506001600160a01b0381161580610c0357506001600160a01b03811630145b610c625760405162461bcd60e51b815260206004820152602a60248201527f43616e6e6f7420656e61626c652061206e616d65206f776e656420627920736f6044820152696d656f6e6520656c736560b01b606482015260840161025b565b6001600160a01b0381163014610e065782610d6c576040516302571be360e01b8152600060048201819052907f00000000000000000000000000000000000000000000000000000000000000006001600160a01b0316906302571be390602401602060405180830381865afa158015610cdf573d6000803e3d6000fd5b505050506040513d601f19601f82011682018060405250810190610d039190611804565b60405163232e3b3b60e21b8152600481018590523060248201529091506001600160a01b03821690638cb8ecec90604401600060405180830381600087803b158015610d4e57600080fd5b505af1158015610d62573d6000803e3d6000fd5b5050505050610e06565b6040516306ab592360e01b815260048101849052602481018390523060448201527f00000000000000000000000000000000000000000000000000000000000000006001600160a01b0316906306ab5923906064016020604051808303816000875af1158015610de0573d6000803e3d6000fd5b505050506040513d601f19601f82011682018060405250810190610e049190611821565b505b5050505092915050565b600080610e1d8385611a66565b60030b12159392505050565b600080610e49604051806040016040528060608152602001600081525090565b610e6185516005610e5a91906119c4565b8290610f53565b50604080518082019091526005815264045f6f6e7360d81b6020820152610e89908290610fb8565b50610e948186610fb8565b506000610ea18582610fe6565b90505b80515160208201511015610eec57600080610ec3878460a00151611047565b925090508115610edc57945060019350610ef692505050565b5050610ee7816110b8565b610ea4565b5060008092509250505b9250929050565b60208110610f355781518352610f146020846119c4565b9250610f216020836119c4565b9150610f2e6020826119dc565b9050610efd565b905182516020929092036101000a6000190180199091169116179052565b604080518082019091526060815260006020820152610f73602083611ab0565b15610f9b57610f83602083611ab0565b610f8e9060206119dc565b610f9890836119c4565b91505b506020828101829052604080518085526000815290920101905290565b604080518082019091526060815260006020820152610fdf838460000151518485516111a0565b9392505050565b6110346040518060e001604052806060815260200160008152602001600061ffff168152602001600061ffff168152602001600063ffffffff16815260200160008152602001600081525090565b82815260c081018290526101d5816110b8565b6000805b83518310156110ac5760006110608585610a03565b60ff1690506110706001856119c4565b935060008061108087878561128a565b92509050811561109857935060019250610ef6915050565b6110a283876119c4565b955050505061104b565b50600093849350915050565b60c081015160208201819052815151116110cf5750565b60006110e3826000015183602001516112e7565b82602001516110f291906119c4565b82519091506111019082611346565b61ffff1660408301526111156002826119c4565b82519091506111249082611346565b61ffff1660608301526111386002826119c4565b8251909150611147908261136e565b63ffffffff16608083015261115d6004826119c4565b825190915060009061116f9083611346565b61ffff1690506111806002836119c4565b60a08401819052915061119381836119c4565b60c0909301929092525050565b60408051808201909152606081526000602082015282518211156111c357600080fd5b60208501516111d283866119c4565b111561120557611205856111f5876020015187866111f091906119c4565b611398565b611200906002611ad2565b6113af565b6000808651805187602083010193508088870111156112245787860182525b505050602084015b6020841061126457805182526112436020836119c4565b91506112506020826119c4565b905061125d6020856119dc565b935061122c565b51815160001960208690036101000a019081169019919091161790525083949350505050565b600080611297858561136e565b63ffffffff1663613d3078146112b2575060009050806112df565b602c8310156112c6575060009050806112df565b6112da856112d58660046119c4565b6113cc565b915091505b935093915050565b6000815b835181106112fb576112fb611af1565b60006113078583610a03565b60ff1690506113178160016119c4565b61132190836119c4565b91508061132e5750611334565b506112eb565b61133e83826119dc565b949350505050565b81516000906113568360026119c4565b111561136157600080fd5b50016002015161ffff1690565b815160009061137e8360046119c4565b111561138957600080fd5b50016004015163ffffffff1690565b6000818311156113a95750816101d5565b50919050565b81516113bb8383610f53565b506113c68382610fb8565b50505050565b60008060288385516113de91906119dc565b10156113ef57506000905080610ef6565b6000835b6113fe8560286119c4565b8110156114ab5760049190911b9060006114188783610a03565b60ff1690506030811015801561142e5750603a81105b156114475761143e6030826119dc565b83179250611498565b604181101580156114585750604781105b156114685761143e6037826119dc565b606181101580156114795750606781105b156114895761143e6057826119dc565b60008094509450505050610ef6565b50806114a381611b07565b9150506113f3565b50946001945092505050565b6000602082840312156114c957600080fd5b81356001600160e01b031981168114610fdf57600080fd5b634e487b7160e01b600052604160045260246000fd5b6040805190810167ffffffffffffffff8111828210171561151a5761151a6114e1565b60405290565b604051601f8201601f1916810167ffffffffffffffff81118282101715611549576115496114e1565b604052919050565b600067ffffffffffffffff82111561156b5761156b6114e1565b50601f01601f191660200190565b600082601f83011261158a57600080fd5b813561159d61159882611551565b611520565b8181528460208386010111156115b257600080fd5b816020850160208301376000918101602001919091529392505050565b600082601f8301126115e057600080fd5b8135602067ffffffffffffffff808311156115fd576115fd6114e1565b8260051b61160c838201611520565b938452858101830193838101908886111561162657600080fd5b84880192505b858310156116bd578235848111156116445760008081fd5b88016040818b03601f190181131561165c5760008081fd5b6116646114f7565b87830135878111156116765760008081fd5b6116848d8a83870101611579565b82525090820135908682111561169a5760008081fd5b6116a88c8984860101611579565b8189015284525050918401919084019061162c565b98975050505050505050565b6001600160a01b03811681146116de57600080fd5b50565b600080600080608085870312156116f757600080fd5b843567ffffffffffffffff8082111561170f57600080fd5b61171b88838901611579565b9550602087013591508082111561173157600080fd5b5061173e878288016115cf565b935050604085013561174f816116c9565b9150606085013561175f816116c9565b939692955090935050565b60006020828403121561177c57600080fd5b8135610fdf816116c9565b60006020828403121561179957600080fd5b5035919050565b600080604083850312156117b357600080fd5b823567ffffffffffffffff808211156117cb57600080fd5b6117d786838701611579565b935060208501359150808211156117ed57600080fd5b506117fa858286016115cf565b9150509250929050565b60006020828403121561181657600080fd5b8151610fdf816116c9565b60006020828403121561183357600080fd5b5051919050565b60005b8381101561185557818101518382015260200161183d565b838111156113c65750506000910152565b6000815180845261187e81602086016020860161183a565b601f01601f19169290920160200192915050565b60006020808301818452808551808352604092508286019150828160051b87010184880160005b8381101561190957888303603f19018552815180518785526118dd88860182611866565b91890151858303868b01529190506118f58183611866565b9689019694505050908601906001016118b9565b509098975050505050505050565b6000806040838503121561192a57600080fd5b825167ffffffffffffffff81111561194157600080fd5b8301601f8101851361195257600080fd5b805161196061159882611551565b81815286602083850101111561197557600080fd5b61198682602083016020860161183a565b809450505050602083015163ffffffff811681146119a357600080fd5b809150509250929050565b634e487b7160e01b600052601160045260246000fd5b600082198211156119d7576119d76119ae565b500190565b6000828210156119ee576119ee6119ae565b500390565b602081526000610fdf6020830184611866565b600060208284031215611a1857600080fd5b81518015158114610fdf57600080fd5b604081526000611a3b6040830185611866565b905063ffffffff831660208301529392505050565b634e487b7160e01b600052603260045260246000fd5b60008160030b8360030b6000811281637fffffff1901831281151615611a8e57611a8e6119ae565b81637fffffff018313811615611aa657611aa66119ae565b5090039392505050565b600082611acd57634e487b7160e01b600052601260045260246000fd5b500690565b6000816000190483118215151615611aec57611aec6119ae565b500290565b634e487b7160e01b600052600160045260246000fd5b6000600019821415611b1b57611b1b6119ae565b506001019056fea26469706673582212208512404bb4201dcd7bde12f3d48ddbb4ff4a8d291329cc0451d4cee89849acad64736f6c634300080c0033",
  "devdoc": {
    "details": "An TomoNs registrar that allows the owner of a TomoNs name to claim the      corresponding name in TomoNs.",
    "kind": "dev",
    "methods": {
      "proveAndClaim(bytes,(bytes,bytes)[])": {
        "details": "Submits proofs to the DNSSEC oracle, then claims a name using those proofs.",
        "params": {
          "input": "A chain of signed DNS RRSETs ending with a text record.",
          "name": "The name to claim, in DNS wire format."
        }
      }
    },
    "version": 1
  },
  "userdoc": {
    "kind": "user",
    "methods": {},
    "version": 1
  },
  "storageLayout": {
    "storage": [
      {
        "astId": 3779,
        "contract": "contracts/dnsregistrar/DNSRegistrar.sol:DNSRegistrar",
        "label": "suffixes",
        "offset": 0,
        "slot": "0",
        "type": "t_contract(PublicSuffixList)4346"
      },
      {
        "astId": 3783,
        "contract": "contracts/dnsregistrar/DNSRegistrar.sol:DNSRegistrar",
        "label": "inceptions",
        "offset": 0,
        "slot": "1",
        "type": "t_mapping(t_bytes32,t_uint32)"
      }
    ],
    "types": {
      "t_bytes32": {
        "encoding": "inplace",
        "label": "bytes32",
        "numberOfBytes": "32"
      },
      "t_contract(PublicSuffixList)4346": {
        "encoding": "inplace",
        "label": "contract PublicSuffixList",
        "numberOfBytes": "20"
      },
      "t_mapping(t_bytes32,t_uint32)": {
        "encoding": "mapping",
        "key": "t_bytes32",
        "label": "mapping(bytes32 => uint32)",
        "numberOfBytes": "32",
        "value": "t_uint32"
      },
      "t_uint32": {
        "encoding": "inplace",
        "label": "uint32",
        "numberOfBytes": "4"
      }
    }
  }
}