{
  "address": "0xf523f0690Eb86d6d47eF0cad1146EBeafBb758a5",
  "abi": [
    {
      "inputs": [
        {
          "internalType": "bytes",
          "name": "_anchors",
          "type": "bytes"
        }
      ],
      "stateMutability": "nonpayable",
      "type": "constructor"
    },
    {
      "inputs": [
        {
          "internalType": "uint16",
          "name": "class",
          "type": "uint16"
        }
      ],
      "name": "InvalidClass",
      "type": "error"
    },
    {
      "inputs": [
        {
          "internalType": "bytes",
          "name": "name",
          "type": "bytes"
        },
        {
          "internalType": "uint256",
          "name": "labelsExpected",
          "type": "uint256"
        }
      ],
      "name": "InvalidLabelCount",
      "type": "error"
    },
    {
      "inputs": [
        {
          "internalType": "uint16",
          "name": "proofType",
          "type": "uint16"
        }
      ],
      "name": "InvalidProofType",
      "type": "error"
    },
    {
      "inputs": [],
      "name": "InvalidRRSet",
      "type": "error"
    },
    {
      "inputs": [
        {
          "internalType": "bytes",
          "name": "rrsetName",
          "type": "bytes"
        },
        {
          "internalType": "bytes",
          "name": "signerName",
          "type": "bytes"
        }
      ],
      "name": "InvalidSignerName",
      "type": "error"
    },
    {
      "inputs": [
        {
          "internalType": "bytes",
          "name": "signerName",
          "type": "bytes"
        }
      ],
      "name": "NoMatchingProof",
      "type": "error"
    },
    {
      "inputs": [
        {
          "internalType": "bytes",
          "name": "signerName",
          "type": "bytes"
        },
        {
          "internalType": "bytes",
          "name": "proofName",
          "type": "bytes"
        }
      ],
      "name": "ProofNameMismatch",
      "type": "error"
    },
    {
      "inputs": [
        {
          "internalType": "uint32",
          "name": "expiration",
          "type": "uint32"
        },
        {
          "internalType": "uint32",
          "name": "now",
          "type": "uint32"
        }
      ],
      "name": "SignatureExpired",
      "type": "error"
    },
    {
      "inputs": [
        {
          "internalType": "uint32",
          "name": "inception",
          "type": "uint32"
        },
        {
          "internalType": "uint32",
          "name": "now",
          "type": "uint32"
        }
      ],
      "name": "SignatureNotValidYet",
      "type": "error"
    },
    {
      "inputs": [
        {
          "internalType": "uint16",
          "name": "rrsetType",
          "type": "uint16"
        },
        {
          "internalType": "uint16",
          "name": "sigType",
          "type": "uint16"
        }
      ],
      "name": "SignatureTypeMismatch",
      "type": "error"
    },
    {
      "anonymous": false,
      "inputs": [
        {
          "indexed": false,
          "internalType": "uint8",
          "name": "id",
          "type": "uint8"
        },
        {
          "indexed": false,
          "internalType": "address",
          "name": "addr",
          "type": "address"
        }
      ],
      "name": "AlgorithmUpdated",
      "type": "event"
    },
    {
      "anonymous": false,
      "inputs": [
        {
          "indexed": false,
          "internalType": "uint8",
          "name": "id",
          "type": "uint8"
        },
        {
          "indexed": false,
          "internalType": "address",
          "name": "addr",
          "type": "address"
        }
      ],
      "name": "DigestUpdated",
      "type": "event"
    },
    {
      "inputs": [
        {
          "internalType": "uint8",
          "name": "",
          "type": "uint8"
        }
      ],
      "name": "algorithms",
      "outputs": [
        {
          "internalType": "contract Algorithm",
          "name": "",
          "type": "address"
        }
      ],
      "stateMutability": "view",
      "type": "function"
    },
    {
      "inputs": [],
      "name": "anchors",
      "outputs": [
        {
          "internalType": "bytes",
          "name": "",
          "type": "bytes"
        }
      ],
      "stateMutability": "view",
      "type": "function"
    },
    {
      "inputs": [
        {
          "internalType": "uint8",
          "name": "",
          "type": "uint8"
        }
      ],
      "name": "digests",
      "outputs": [
        {
          "internalType": "contract Digest",
          "name": "",
          "type": "address"
        }
      ],
      "stateMutability": "view",
      "type": "function"
    },
    {
      "inputs": [],
      "name": "owner",
      "outputs": [
        {
          "internalType": "address",
          "name": "",
          "type": "address"
        }
      ],
      "stateMutability": "view",
      "type": "function"
    },
    {
      "inputs": [
        {
          "internalType": "uint8",
          "name": "id",
          "type": "uint8"
        },
        {
          "internalType": "contract Algorithm",
          "name": "algo",
          "type": "address"
        }
      ],
      "name": "setAlgorithm",
      "outputs": [],
      "stateMutability": "nonpayable",
      "type": "function"
    },
    {
      "inputs": [
        {
          "internalType": "uint8",
          "name": "id",
          "type": "uint8"
        },
        {
          "internalType": "contract Digest",
          "name": "digest",
          "type": "address"
        }
      ],
      "name": "setDigest",
      "outputs": [],
      "stateMutability": "nonpayable",
      "type": "function"
    },
    {
      "inputs": [
        {
          "internalType": "address",
          "name": "newOwner",
          "type": "address"
        }
      ],
      "name": "setOwner",
      "outputs": [],
      "stateMutability": "nonpayable",
      "type": "function"
    },
    {
      "inputs": [
        {
          "components": [
            {
              "internalType": "bytes",
              "name": "rrset",
              "type": "bytes"
            },
            {
              "internalType": "bytes",
              "name": "sig",
              "type": "bytes"
            }
          ],
          "internalType": "struct DNSSEC.RRSetWithSignature[]",
          "name": "input",
          "type": "tuple[]"
        },
        {
          "internalType": "uint256",
          "name": "now",
          "type": "uint256"
        }
      ],
      "name": "verifyRRSet",
      "outputs": [
        {
          "internalType": "bytes",
          "name": "rrs",
          "type": "bytes"
        },
        {
          "internalType": "uint32",
          "name": "inception",
          "type": "uint32"
        }
      ],
      "stateMutability": "view",
      "type": "function"
    },
    {
      "inputs": [
        {
          "components": [
            {
              "internalType": "bytes",
              "name": "rrset",
              "type": "bytes"
            },
            {
              "internalType": "bytes",
              "name": "sig",
              "type": "bytes"
            }
          ],
          "internalType": "struct DNSSEC.RRSetWithSignature[]",
          "name": "input",
          "type": "tuple[]"
        }
      ],
      "name": "verifyRRSet",
      "outputs": [
        {
          "internalType": "bytes",
          "name": "rrs",
          "type": "bytes"
        },
        {
          "internalType": "uint32",
          "name": "inception",
          "type": "uint32"
        }
      ],
      "stateMutability": "view",
      "type": "function"
    }
  ],
  "transactionHash": "0x02191ca79e6aab1927785d4f4acc4c9610ac12c0f73803a0468519b1a98883d8",
  "args": [
    "0x00002b000100000e1000244a5c080249aac11d7b6f6446702e54a1607371607a1a41855200fd2ce1cdde32f24e8fb500002b000100000e1000244f660802e06d44b80b8f1d39a95c0b0d7c65d08458e880409bbc683457104237c7f8ec8d"
  ],
  "numDeployments": 1,
  "solcInputHash": "ef30c679ec0e734b9949e6bb906c3fcc",
  "bytecode": "0x60806040523480156200001157600080fd5b5060405162001e1b38038062001e1b83398101604081905262000034916200011f565b600180546001600160a01b0319163317905580516200005b90600090602084019062000063565b505062000238565b8280546200007190620001fb565b90600052602060002090601f016020900481019282620000955760008555620000e0565b82601f10620000b057805160ff1916838001178555620000e0565b82800160010185558215620000e0579182015b82811115620000e0578251825591602001919060010190620000c3565b50620000ee929150620000f2565b5090565b5b80821115620000ee5760008155600101620000f3565b634e487b7160e01b600052604160045260246000fd5b600060208083850312156200013357600080fd5b82516001600160401b03808211156200014b57600080fd5b818501915085601f8301126200016057600080fd5b81518181111562000175576200017562000109565b604051601f8201601f19908116603f01168101908382118183101715620001a057620001a062000109565b816040528281528886848701011115620001b957600080fd5b600093505b82841015620001dd5784840186015181850187015292850192620001be565b82841115620001ef5760008684830101525b98975050505050505050565b600181811c908216806200021057607f821691505b602082108114156200023257634e487b7160e01b600052602260045260246000fd5b50919050565b611bd380620002486000396000f3fe608060405234801561001057600080fd5b50600436106100935760003560e01c806373cc48a61161006657806373cc48a6146100fd5780638da5cb5b1461013e57806398d35f2014610151578063bdf95fef14610166578063c327deef1461017957600080fd5b8063020ed8d31461009857806313af4035146100ad57806328e7677d146100c0578063440f3d42146100d3575b600080fd5b6100ab6100a6366004611658565b6101a2565b005b6100ab6100bb36600461168f565b610224565b6100ab6100ce366004611658565b61025d565b6100e66100e1366004611886565b6102d7565b6040516100f4929190611918565b60405180910390f35b61012661010b366004611940565b6003602052600090815260409020546001600160a01b031681565b6040516001600160a01b0390911681526020016100f4565b600154610126906001600160a01b031681565b6101596103c9565b6040516100f4919061195b565b6100e661017436600461196e565b610457565b610126610187366004611940565b6002602052600090815260409020546001600160a01b031681565b6001546001600160a01b031633146101b957600080fd5b60ff821660008181526002602090815260409182902080546001600160a01b0319166001600160a01b0386169081179091558251938452908301527ff73c3c226af96b7f1ba666a21b3ceaf2be3ee6a365e3178fd9cd1eaae0075aa891015b60405180910390a15050565b6001546001600160a01b0316331461023b57600080fd5b600180546001600160a01b0319166001600160a01b0392909216919091179055565b6001546001600160a01b0316331461027457600080fd5b60ff821660008181526003602090815260409182902080546001600160a01b0319166001600160a01b0386169081179091558251938452908301527f2fcc274c3b72dd483ab201bfa87295e3817e8b9b10693219873b722ca1af00c79101610218565b6060600080600080546102e9906119a3565b80601f0160208091040260200160405190810160405280929190818152602001828054610315906119a3565b80156103625780601f1061033757610100808354040283529160200191610362565b820191906000526020600020905b81548152906001019060200180831161034557829003601f168201915b5050505050905060005b85518110156103bf57600061039b87838151811061038c5761038c6119d8565b6020026020010151848861046e565b61010081015160a090910151945092508190506103b781611a04565b91505061036c565b5091509250929050565b600080546103d6906119a3565b80601f0160208091040260200160405190810160405280929190818152602001828054610402906119a3565b801561044f5780601f106104245761010080835404028352916020019161044f565b820191906000526020600020905b81548152906001019060200180831161043257829003601f168201915b505050505081565b6060600061046583426102d7565b91509150915091565b610476611589565b835161048190610578565b90506000610493828360000151610672565b604083015190915060ff166104a9826000610781565b146104d85780826040015160405163e861b2bd60e01b81526004016104cf929190611a1f565b60405180910390fd5b610120820181905260808201516104ef90846107e4565b6105225760808201516040516353c27c3f60e11b815263ffffffff918216600482015290841660248201526044016104cf565b610530838360a001516107e4565b6105635760a0820151604051635ea081b560e11b815263ffffffff918216600482015290841660248201526044016104cf565b61056f818387876107fd565b505b9392505050565b610580611589565b61058b8260006108d0565b61ffff16815261059c8260026108f8565b60ff1660208201526105af8260036108f8565b60ff1660408201526105c282600461091c565b63ffffffff90811660608301526105de90839060089061091c16565b63ffffffff90811660808301526105fa908390600c9061091c16565b63ffffffff90811660a08301526106169083906010906108d016565b61ffff1660c082015261062a826012610946565b60e082018190525161066790610641906012611a44565b8260e0015151601285516106559190611a5c565b61065f9190611a5c565b849190610969565b610100820152919050565b6060600061067f846109eb565b90505b8051516020820151101561077a57606081015161ffff166001146106c5576060810151604051634c52f98d60e11b815261ffff90911660048201526024016104cf565b81516106db576106d481610a03565b915061072c565b602081015181516106eb91610a24565b825114158061070e575080516020820151835161070c928592600092610a7b565b155b1561072c5760405163cbceee6f60e01b815260040160405180910390fd5b8261ffff16816040015161ffff161461076c57604080820151905163537fc54560e11b815261ffff918216600482015290841660248201526044016104cf565b61077581610a9e565b610682565b5092915050565b6000805b8351831061079557610795611a73565b60006107a185856108f8565b60ff1690506107b1816001611a44565b6107bb9085611a44565b9350806107c857506107db565b6107d3600183611a44565b915050610785565b90505b92915050565b6000806107f18385611a89565b60030b12159392505050565b83518360e0015151118061083357506108316000858560e001515187516108249190611a5c565b60e0870151929190610b86565b155b156108585760e083015160405163eaafc59b60e01b81526104cf918691600401611ad3565b60006108648282610bbb565b604081015190915061ffff16602b141561088857610883848483610bd6565b6108c9565b604081015161ffff16603014156108a457610883848483610cad565b60408082015190516361529e8760e01b815261ffff90911660048201526024016104cf565b5050505050565b81516000906108e0836002611a44565b11156108eb57600080fd5b50016002015161ffff1690565b600082828151811061090c5761090c6119d8565b016020015160f81c905092915050565b815160009061092c836004611a44565b111561093757600080fd5b50016004015163ffffffff1690565b606060006109548484610a24565b9050610961848483610969565b949350505050565b82516060906109788385611a44565b111561098357600080fd5b60008267ffffffffffffffff81111561099e5761099e6116ac565b6040519080825280601f01601f1916602001820160405280156109c8576020820181803683370190505b509050602080820190868601016109e0828287610d75565b509095945050505050565b6109f36115df565b6107de8261010001516000610bbb565b602081015181516060916107de91610a1b9082610a24565b84519190610969565b6000815b83518110610a3857610a38611a73565b6000610a4485836108f8565b60ff169050610a54816001611a44565b610a5e9083611a44565b915080610a6b5750610a71565b50610a28565b6109618382611a5c565b6000610a88848484610dcb565b610a93878785610dcb565b149695505050505050565b60c08101516020820181905281515111610ab55750565b6000610ac982600001518360200151610a24565b8260200151610ad89190611a44565b8251909150610ae790826108d0565b61ffff166040830152610afb600282611a44565b8251909150610b0a90826108d0565b61ffff166060830152610b1e600282611a44565b8251909150610b2d908261091c565b63ffffffff166080830152610b43600482611a44565b8251909150600090610b5590836108d0565b61ffff169050610b66600283611a44565b60a084018190529150610b798183611a44565b60c0909301929092525050565b6000610b9f8383848651610b9a9190611a5c565b610dcb565b610bb18686878951610b9a9190611a5c565b1495945050505050565b610bc36115df565b82815260c081018290526107de81610a9e565b6000610be1846109eb565b90505b80515160208201511015610c8d57604081015161ffff16603014610c275760408082015190516361529e8760e01b815261ffff90911660048201526024016104cf565b6000610c3282610def565b90506000610c4d6000835184610e0b9092919063ffffffff16565b9050610c5b81838888610ea9565b15610c7d57610c708660e00151858385610fb5565b15610c7d57505050505050565b5050610c8881610a9e565b610be4565b508260e001516040516306cde0f360e01b81526004016104cf919061195b565b80515160208201511015610d56576000610cc682610a03565b9050610cdf8460e00151826110f290919063ffffffff16565b610d04578360e0015181604051636b80573f60e11b81526004016104cf929190611ad3565b6000610d0f83610def565b90506000610d2a6000835184610e0b9092919063ffffffff16565b9050610d3881838888610ea9565b15610d4557505050505050565b505050610d5181610a9e565b610cad565b8260e001516040516306cde0f360e01b81526004016104cf919061195b565b60208110610dad5781518352610d8c602084611a44565b9250610d99602083611a44565b9150610da6602082611a5c565b9050610d75565b905182516020929092036101000a6000190180199091169116179052565b8251600090610dda8385611a44565b1115610de557600080fd5b5091016020012090565b60a081015160c08201516060916107de91610a1b908290611a5c565b6040805160808101825260008082526020820181905291810191909152606080820152610e43610e3c600085611a44565b85906108d0565b61ffff168152610e5e610e57600285611a44565b85906108f8565b60ff166020820152610e74610e57600385611a44565b60ff166040820152610e9d610e8a600485611a44565b610e95600485611a5c565b869190610969565b60608201529392505050565b6000846020015160ff16600314610ec257506000610961565b826020015160ff16856040015160ff1614610edf57506000610961565b6000610eea85611110565b90508360c0015161ffff168161ffff1614610f09576000915050610961565b855161010016610f1d576000915050610961565b60408087015160ff166000908152600260209081529082902054855191860151925163de8f50a160e01b81526001600160a01b039091169263de8f50a192610f6a928a9290600401611b01565b602060405180830381865afa158015610f87573d6000803e3d6000fd5b505050506040513d601f19601f82011682018060405250810190610fab9190611b3a565b9695505050505050565b600080610fc183611110565b90505b845151602086015110156110e6576000610fdd86610a03565b9050610fe981886110f2565b61100a578681604051636b80573f60e11b81526004016104cf929190611ad3565b60a086015160c087015160009161102f91611026908290611a5c565b89519190610e0b565b90508261ffff16816000015161ffff161461104b5750506110d8565b856040015160ff16816020015160ff16146110675750506110d8565b60408051808201909152606081526000602082015261109486518a5161108d9190611a44565b8290611333565b5061109f818a611398565b506110aa8187611398565b506110c28260400151826000015184606001516113bf565b156110d4576001945050505050610961565b5050505b6110e185610a9e565b610fc4565b50600095945050505050565b6000815183511480156107db57506107db8360008460008751610a7b565b6000612000825111156111655760405162461bcd60e51b815260206004820152601760248201527f4c6f6e67206b657973206e6f74207065726d697474656400000000000000000060448201526064016104cf565b60008060005b8451601f018110156111da57600081602087010151905085518260200111156111a05785518290036008026101000390811c901b5b7eff00ff00ff00ff00ff00ff00ff00ff00ff00ff00ff00ff00ff00ff00ff00ff600882901c8116949094019316919091019060200161116b565b506010827fffff0000ffff0000ffff0000ffff0000ffff0000ffff0000ffff0000ffff000016901c827dffff0000ffff0000ffff0000ffff0000ffff0000ffff0000ffff0000ffff160191506010817fffff0000ffff0000ffff0000ffff0000ffff0000ffff0000ffff0000ffff000016901c817dffff0000ffff0000ffff0000ffff0000ffff0000ffff0000ffff0000ffff1601905080600883901b0191506020827fffffffff00000000ffffffff00000000ffffffff00000000ffffffff0000000016901c827bffffffff00000000ffffffff00000000ffffffff00000000ffffffff1601915060408277ffffffffffffffff0000000000000000ffffffffffffffff1916901c8277ffffffffffffffff0000000000000000ffffffffffffffff16019150608082901c826fffffffffffffffffffffffffffffffff16019150601082901c61ffff16820191508192505050919050565b604080518082019091526060815260006020820152611353602083611b5c565b1561137b57611363602083611b5c565b61136e906020611a5c565b6113789083611a44565b91505b506020828101829052604080518085526000815290920101905290565b6040805180820190915260608152600060208201526107db8384600001515184855161146b565b60ff83166000908152600360205260408120546001600160a01b03166113e757506000610571565b60ff841660009081526003602052604090819020549051637bf41d7760e11b81526001600160a01b039091169063f7e83aee9061142a9086908690600401611ad3565b602060405180830381865afa158015611447573d6000803e3d6000fd5b505050506040513d601f19601f820116820180604052508101906109619190611b3a565b604080518082019091526060815260006020820152825182111561148e57600080fd5b602085015161149d8386611a44565b11156114d0576114d0856114c0876020015187866114bb9190611a44565b611555565b6114cb906002611b7e565b61156c565b6000808651805187602083010193508088870111156114ef5787860182525b505050602084015b6020841061152f578051825261150e602083611a44565b915061151b602082611a44565b9050611528602085611a5c565b93506114f7565b51815160001960208690036101000a019081169019919091161790525083949350505050565b6000818311156115665750816107de565b50919050565b81516115788383611333565b506115838382611398565b50505050565b604080516101408101825260008082526020820181905291810182905260608082018390526080820183905260a0820183905260c082019290925260e08101829052610100810182905261012081019190915290565b6040518060e001604052806060815260200160008152602001600061ffff168152602001600061ffff168152602001600063ffffffff16815260200160008152602001600081525090565b803560ff8116811461163b57600080fd5b919050565b6001600160a01b038116811461165557600080fd5b50565b6000806040838503121561166b57600080fd5b6116748361162a565b9150602083013561168481611640565b809150509250929050565b6000602082840312156116a157600080fd5b81356107db81611640565b634e487b7160e01b600052604160045260246000fd5b6040805190810167ffffffffffffffff811182821017156116e5576116e56116ac565b60405290565b604051601f8201601f1916810167ffffffffffffffff81118282101715611714576117146116ac565b604052919050565b600082601f83011261172d57600080fd5b813567ffffffffffffffff811115611747576117476116ac565b61175a601f8201601f19166020016116eb565b81815284602083860101111561176f57600080fd5b816020850160208301376000918101602001919091529392505050565b600082601f83011261179d57600080fd5b8135602067ffffffffffffffff808311156117ba576117ba6116ac565b8260051b6117c98382016116eb565b93845285810183019383810190888611156117e357600080fd5b84880192505b8583101561187a578235848111156118015760008081fd5b88016040818b03601f19018113156118195760008081fd5b6118216116c2565b87830135878111156118335760008081fd5b6118418d8a8387010161171c565b8252509082013590868211156118575760008081fd5b6118658c898486010161171c565b818901528452505091840191908401906117e9565b98975050505050505050565b6000806040838503121561189957600080fd5b823567ffffffffffffffff8111156118b057600080fd5b6118bc8582860161178c565b95602094909401359450505050565b6000815180845260005b818110156118f1576020818501810151868301820152016118d5565b81811115611903576000602083870101525b50601f01601f19169290920160200192915050565b60408152600061192b60408301856118cb565b905063ffffffff831660208301529392505050565b60006020828403121561195257600080fd5b6107db8261162a565b6020815260006107db60208301846118cb565b60006020828403121561198057600080fd5b813567ffffffffffffffff81111561199757600080fd5b6109618482850161178c565b600181811c908216806119b757607f821691505b6020821081141561156657634e487b7160e01b600052602260045260246000fd5b634e487b7160e01b600052603260045260246000fd5b634e487b7160e01b600052601160045260246000fd5b6000600019821415611a1857611a186119ee565b5060010190565b604081526000611a3260408301856118cb565b905060ff831660208301529392505050565b60008219821115611a5757611a576119ee565b500190565b600082821015611a6e57611a6e6119ee565b500390565b634e487b7160e01b600052600160045260246000fd5b60008160030b8360030b6000811281637fffffff1901831281151615611ab157611ab16119ee565b81637fffffff018313811615611ac957611ac96119ee565b5090039392505050565b604081526000611ae660408301856118cb565b8281036020840152611af881856118cb565b95945050505050565b606081526000611b1460608301866118cb565b8281036020840152611b2681866118cb565b90508281036040840152610fab81856118cb565b600060208284031215611b4c57600080fd5b815180151581146107db57600080fd5b600082611b7957634e487b7160e01b600052601260045260246000fd5b500690565b6000816000190483118215151615611b9857611b986119ee565b50029056fea2646970667358221220b977e13cad8671d5fa9ad2fad8791624ab961661a70045310e64ea656c31034c64736f6c634300080c0033",
  "devdoc": {
    "kind": "dev",
    "methods": {
      "constructor": {
        "details": "Constructor.",
        "params": {
          "_anchors": "The binary format RR entries for the root DS records."
        }
      },
      "setAlgorithm(uint8,address)": {
        "details": "Sets the contract address for a signature verification algorithm.      Callable only by the owner.",
        "params": {
          "algo": "The address of the algorithm contract.",
          "id": "The algorithm ID"
        }
      },
      "setDigest(uint8,address)": {
        "details": "Sets the contract address for a digest verification algorithm.      Callable only by the owner.",
        "params": {
          "digest": "The address of the digest contract.",
          "id": "The digest ID"
        }
      },
      "verifyRRSet((bytes,bytes)[])": {
        "details": "Takes a chain of signed DNS records, verifies them, and returns the data from the last record set in the chain.      Reverts if the records do not form an unbroken chain of trust to the DNSSEC anchor records.",
        "params": {
          "input": "A list of signed RRSets."
        },
        "returns": {
          "inception": "The inception time of the signed record set.",
          "rrs": "The RRData from the last RRSet in the chain."
        }
      },
      "verifyRRSet((bytes,bytes)[],uint256)": {
        "details": "Takes a chain of signed DNS records, verifies them, and returns the data from the last record set in the chain.      Reverts if the records do not form an unbroken chain of trust to the DNSSEC anchor records.",
        "params": {
          "input": "A list of signed RRSets.",
          "now": "The Unix timestamp to validate the records at."
        },
        "returns": {
          "inception": "The inception time of the signed record set.",
          "rrs": "The RRData from the last RRSet in the chain."
        }
      }
    },
    "version": 1
  },
  "userdoc": {
    "kind": "user",
    "methods": {},
    "version": 1
  },
  "storageLayout": {
    "storage": [
      {
        "astId": 5443,
        "contract": "contracts/dnssec-oracle/DNSSECImpl.sol:DNSSECImpl",
        "label": "anchors",
        "offset": 0,
        "slot": "0",
        "type": "t_bytes_storage"
      },
      {
        "astId": 6400,
        "contract": "contracts/dnssec-oracle/DNSSECImpl.sol:DNSSECImpl",
        "label": "owner",
        "offset": 0,
        "slot": "1",
        "type": "t_address"
      },
      {
        "astId": 5575,
        "contract": "contracts/dnssec-oracle/DNSSECImpl.sol:DNSSECImpl",
        "label": "algorithms",
        "offset": 0,
        "slot": "2",
        "type": "t_mapping(t_uint8,t_contract(Algorithm)7512)"
      },
      {
        "astId": 5580,
        "contract": "contracts/dnssec-oracle/DNSSECImpl.sol:DNSSECImpl",
        "label": "digests",
        "offset": 0,
        "slot": "3",
        "type": "t_mapping(t_uint8,t_contract(Digest)9353)"
      }
    ],
    "types": {
      "t_address": {
        "encoding": "inplace",
        "label": "address",
        "numberOfBytes": "20"
      },
      "t_bytes_storage": {
        "encoding": "bytes",
        "label": "bytes",
        "numberOfBytes": "32"
      },
      "t_contract(Algorithm)7512": {
        "encoding": "inplace",
        "label": "contract Algorithm",
        "numberOfBytes": "20"
      },
      "t_contract(Digest)9353": {
        "encoding": "inplace",
        "label": "contract Digest",
        "numberOfBytes": "20"
      },
      "t_mapping(t_uint8,t_contract(Algorithm)7512)": {
        "encoding": "mapping",
        "key": "t_uint8",
        "label": "mapping(uint8 => contract Algorithm)",
        "numberOfBytes": "32",
        "value": "t_contract(Algorithm)7512"
      },
      "t_mapping(t_uint8,t_contract(Digest)9353)": {
        "encoding": "mapping",
        "key": "t_uint8",
        "label": "mapping(uint8 => contract Digest)",
        "numberOfBytes": "32",
        "value": "t_contract(Digest)9353"
      },
      "t_uint8": {
        "encoding": "inplace",
        "label": "uint8",
        "numberOfBytes": "1"
      }
    }
  }
}