{
  "address": "0x154c0056fb45651d57BFD953E5165aae21241b3C",
  "abi": [
    {
      "inputs": [
        {
          "internalType": "contract AggregatorInterface",
          "name": "_usdOracle",
          "type": "address"
        },
        {
          "internalType": "uint256[]",
          "name": "_rentPrices",
          "type": "uint256[]"
        },
        {
          "internalType": "uint256",
          "name": "_startPremium",
          "type": "uint256"
        },
        {
          "internalType": "uint256",
          "name": "totalDays",
          "type": "uint256"
        }
      ],
      "stateMutability": "nonpayable",
      "type": "constructor"
    },
    {
      "anonymous": false,
      "inputs": [
        {
          "indexed": false,
          "internalType": "uint256[]",
          "name": "prices",
          "type": "uint256[]"
        }
      ],
      "name": "RentPriceChanged",
      "type": "event"
    },
    {
      "inputs": [
        {
          "internalType": "uint256",
          "name": "startPremium",
          "type": "uint256"
        },
        {
          "internalType": "uint256",
          "name": "elapsed",
          "type": "uint256"
        }
      ],
      "name": "decayedPremium",
      "outputs": [
        {
          "internalType": "uint256",
          "name": "",
          "type": "uint256"
        }
      ],
      "stateMutability": "pure",
      "type": "function"
    },
    {
      "inputs": [
        {
          "internalType": "string",
          "name": "name",
          "type": "string"
        },
        {
          "internalType": "uint256",
          "name": "expires",
          "type": "uint256"
        },
        {
          "internalType": "uint256",
          "name": "duration",
          "type": "uint256"
        }
      ],
      "name": "premium",
      "outputs": [
        {
          "internalType": "uint256",
          "name": "",
          "type": "uint256"
        }
      ],
      "stateMutability": "view",
      "type": "function"
    },
    {
      "inputs": [
        {
          "internalType": "string",
          "name": "name",
          "type": "string"
        },
        {
          "internalType": "uint256",
          "name": "expires",
          "type": "uint256"
        },
        {
          "internalType": "uint256",
          "name": "duration",
          "type": "uint256"
        }
      ],
      "name": "price",
      "outputs": [
        {
          "components": [
            {
              "internalType": "uint256",
              "name": "base",
              "type": "uint256"
            },
            {
              "internalType": "uint256",
              "name": "premium",
              "type": "uint256"
            }
          ],
          "internalType": "struct IPriceOracle.Price",
          "name": "",
          "type": "tuple"
        }
      ],
      "stateMutability": "view",
      "type": "function"
    },
    {
      "inputs": [],
      "name": "price1Letter",
      "outputs": [
        {
          "internalType": "uint256",
          "name": "",
          "type": "uint256"
        }
      ],
      "stateMutability": "view",
      "type": "function"
    },
    {
      "inputs": [],
      "name": "price2Letter",
      "outputs": [
        {
          "internalType": "uint256",
          "name": "",
          "type": "uint256"
        }
      ],
      "stateMutability": "view",
      "type": "function"
    },
    {
      "inputs": [],
      "name": "price3Letter",
      "outputs": [
        {
          "internalType": "uint256",
          "name": "",
          "type": "uint256"
        }
      ],
      "stateMutability": "view",
      "type": "function"
    },
    {
      "inputs": [],
      "name": "price4Letter",
      "outputs": [
        {
          "internalType": "uint256",
          "name": "",
          "type": "uint256"
        }
      ],
      "stateMutability": "view",
      "type": "function"
    },
    {
      "inputs": [],
      "name": "price5Letter",
      "outputs": [
        {
          "internalType": "uint256",
          "name": "",
          "type": "uint256"
        }
      ],
      "stateMutability": "view",
      "type": "function"
    },
    {
      "inputs": [
        {
          "internalType": "bytes4",
          "name": "interfaceID",
          "type": "bytes4"
        }
      ],
      "name": "supportsInterface",
      "outputs": [
        {
          "internalType": "bool",
          "name": "",
          "type": "bool"
        }
      ],
      "stateMutability": "view",
      "type": "function"
    },
    {
      "inputs": [],
      "name": "usdOracle",
      "outputs": [
        {
          "internalType": "contract AggregatorInterface",
          "name": "",
          "type": "address"
        }
      ],
      "stateMutability": "view",
      "type": "function"
    }
  ],
  "transactionHash": "0x6cfef982f3993bd0e1f24e1f82d135e575d6915c60ea375e0937c14e97b2d83e",
  "args": [
    "0xE1f3f52fc6a8168Bf5f9E53bA025e5e0BBb7D440",
    [
      0,
      0,
      "20294266869609",
      "5073566717402",
      "158548959919"
    ],
    "100000000000000000000000000",
    21
  ],
  "numDeployments": 1,
  "solcInputHash": "b63d9945e9d4fc281a733cf528efadab",
  "bytecode": "0x6101806040523480156200001257600080fd5b5060405162000f5c38038062000f5c83398101604081905262000035916200012c565b6001600160a01b0384166101205282518490849081906000906200005d576200005d62000227565b6020026020010151608081815250508060018151811062000082576200008262000227565b602002602001015160a0818152505080600281518110620000a757620000a762000227565b602002602001015160c0818152505080600381518110620000cc57620000cc62000227565b602002602001015160e0818152505080600481518110620000f157620000f162000227565b60209081029190910101516101005250506101408290521c61016052506200023d9050565b634e487b7160e01b600052604160045260246000fd5b600080600080608085870312156200014357600080fd5b84516001600160a01b03811681146200015b57600080fd5b602086810151919550906001600160401b03808211156200017b57600080fd5b818801915088601f8301126200019057600080fd5b815181811115620001a557620001a562000116565b8060051b604051601f19603f83011681018181108582111715620001cd57620001cd62000116565b60405291825284820192508381018501918b831115620001ec57600080fd5b938501935b828510156200020c57845184529385019392850192620001f1565b60408b01516060909b0151999c909b50975050505050505050565b634e487b7160e01b600052603260045260246000fd5b60805160a05160c05160e05161010051610120516101405161016051610c89620002d360003960008181610734015261075e0152600061070b0152600081816101a7015261063301526000818161013301526102a701526000818161020d01526102e101526000818161016d01526103140152600081816101e6015261034701526000818160d001526103710152610c896000f3fe608060405234801561001057600080fd5b506004361061009e5760003560e01c8063a200e15311610066578063a200e15314610168578063a34e35961461018f578063c8a4271f146101a2578063cd5d2c74146101e1578063d820ed421461020857600080fd5b806301ffc9a7146100a35780632c0fd74c146100cb57806350e9a7151461010057806359b6b86c1461012e57806359e1777c14610155575b600080fd5b6100b66100b1366004610ab8565b61022f565b60405190151581526020015b60405180910390f35b6100f27f000000000000000000000000000000000000000000000000000000000000000081565b6040519081526020016100c2565b61011361010e366004610ae2565b610240565b604080518251815260209283015192810192909252016100c2565b6100f27f000000000000000000000000000000000000000000000000000000000000000081565b6100f2610163366004610b61565b610409565b6100f27f000000000000000000000000000000000000000000000000000000000000000081565b6100f261019d366004610ae2565b6104a4565b6101c97f000000000000000000000000000000000000000000000000000000000000000081565b6040516001600160a01b0390911681526020016100c2565b6100f27f000000000000000000000000000000000000000000000000000000000000000081565b6100f27f000000000000000000000000000000000000000000000000000000000000000081565b600061023a826104f5565b92915050565b6040805180820190915260008082526020820152600061029586868080601f01602080910402602001604051908101604052809392919081815260200183838082843760009201919091525061052b92505050565b90506000600582106102d2576102cb847f0000000000000000000000000000000000000000000000000000000000000000610b99565b9050610398565b8160041415610305576102cb847f0000000000000000000000000000000000000000000000000000000000000000610b99565b8160031415610338576102cb847f0000000000000000000000000000000000000000000000000000000000000000610b99565b816002141561036b576102cb847f0000000000000000000000000000000000000000000000000000000000000000610b99565b610395847f0000000000000000000000000000000000000000000000000000000000000000610b99565b90505b60405180604001604052806103ac8361062e565b81526020016103fc6103f78a8a8080601f0160208091040260200160405190810160405280939291908181526020018383808284376000920191909152508c92508b91506106d59050565b61062e565b9052979650505050505050565b60008062015180610422670de0b6b3a764000085610b99565b61042c9190610bb8565b90506000610442670de0b6b3a764000083610bb8565b905084811c600061045b670de0b6b3a764000084610b99565b6104659085610bda565b90506000670de0b6b3a764000061047f8362010000610b99565b6104899190610bb8565b905060006104978285610798565b9998505050505050505050565b60006104ec6103f786868080601f0160208091040260200160405190810160405280939291908181526020018383808284376000920191909152508892508791506106d59050565b95945050505050565b60006001600160e01b031982166301ffc9a760e01b148061023a57506001600160e01b031982166350e9a71560e01b1492915050565b8051600090819081905b8082101561062557600085838151811061055157610551610bf1565b01602001516001600160f81b0319169050600160ff1b81101561058057610579600184610c07565b9250610612565b600760fd1b6001600160f81b0319821610156105a157610579600284610c07565b600f60fc1b6001600160f81b0319821610156105c257610579600384610c07565b601f60fb1b6001600160f81b0319821610156105e357610579600484610c07565b603f60fa1b6001600160f81b03198216101561060457610579600584610c07565b61060f600684610c07565b92505b508261061d81610c1f565b935050610535565b50909392505050565b6000807f00000000000000000000000000000000000000000000000000000000000000006001600160a01b03166350d25bcd6040518163ffffffff1660e01b8152600401602060405180830381865afa15801561068f573d6000803e3d6000fd5b505050506040513d601f19601f820116820180604052508101906106b39190610c3a565b9050806106c4846305f5e100610b99565b6106ce9190610bb8565b9392505050565b60006106e46276a70084610c07565b9250428311156106f6575060006106ce565b60006107028442610bda565b905060006107307f000000000000000000000000000000000000000000000000000000000000000083610409565b90507f0000000000000000000000000000000000000000000000000000000000000000811061078c576107837f000000000000000000000000000000000000000000000000000000000000000082610bda565b925050506106ce565b50600095945050505050565b600060018316156107cb57670de0b6b3a76400006107be670de0ad151d09418084610b99565b6107c89190610bb8565b91505b60028316156107fc57670de0b6b3a76400006107ef670de0a3769959680084610b99565b6107f99190610bb8565b91505b600483161561082d57670de0b6b3a7640000610820670de09039a5fa510084610b99565b61082a9190610bb8565b91505b600883161561085e57670de0b6b3a7640000610851670de069c00f3e120084610b99565b61085b9190610bb8565b91505b601083161561088f57670de0b6b3a7640000610882670de01cce21c9440084610b99565b61088c9190610bb8565b91505b60208316156108c057670de0b6b3a76400006108b3670ddf82ef46ce100084610b99565b6108bd9190610bb8565b91505b60408316156108f157670de0b6b3a76400006108e4670dde4f458f8e8d8084610b99565b6108ee9190610bb8565b91505b608083161561092257670de0b6b3a7640000610915670ddbe84213d5f08084610b99565b61091f9190610bb8565b91505b61010083161561095457670de0b6b3a7640000610947670dd71b7aa6df5b8084610b99565b6109519190610bb8565b91505b61020083161561098657670de0b6b3a7640000610979670dcd86e7f28cde0084610b99565b6109839190610bb8565b91505b6104008316156109b857670de0b6b3a76400006109ab670dba71a3084ad68084610b99565b6109b59190610bb8565b91505b6108008316156109ea57670de0b6b3a76400006109dd670d94961b13dbde8084610b99565b6109e79190610bb8565b91505b611000831615610a1c57670de0b6b3a7640000610a0f670d4a171c35c9838084610b99565b610a199190610bb8565b91505b612000831615610a4e57670de0b6b3a7640000610a41670cb9da519ccfb70084610b99565b610a4b9190610bb8565b91505b614000831615610a8057670de0b6b3a7640000610a73670bab76d59c18d68084610b99565b610a7d9190610bb8565b91505b618000831615610ab257670de0b6b3a7640000610aa56709d025defee4df8084610b99565b610aaf9190610bb8565b91505b50919050565b600060208284031215610aca57600080fd5b81356001600160e01b0319811681146106ce57600080fd5b60008060008060608587031215610af857600080fd5b843567ffffffffffffffff80821115610b1057600080fd5b818701915087601f830112610b2457600080fd5b813581811115610b3357600080fd5b886020828501011115610b4557600080fd5b6020928301999098509187013596604001359550909350505050565b60008060408385031215610b7457600080fd5b50508035926020909101359150565b634e487b7160e01b600052601160045260246000fd5b6000816000190483118215151615610bb357610bb3610b83565b500290565b600082610bd557634e487b7160e01b600052601260045260246000fd5b500490565b600082821015610bec57610bec610b83565b500390565b634e487b7160e01b600052603260045260246000fd5b60008219821115610c1a57610c1a610b83565b500190565b6000600019821415610c3357610c33610b83565b5060010190565b600060208284031215610c4c57600080fd5b505191905056fea2646970667358221220f19a025c06e1a67c448b3037deb958bbb8018b99d52c530bfd42071caf2278a864736f6c634300080c0033",
  "devdoc": {
    "kind": "dev",
    "methods": {
      "decayedPremium(uint256,uint256)": {
        "details": "Returns the premium price at current time elapsed",
        "params": {
          "elapsed": "time past since expiry",
          "startPremium": "starting price"
        }
      },
      "premium(string,uint256,uint256)": {
        "details": "Returns the pricing premium in wei."
      },
      "price(string,uint256,uint256)": {
        "details": "Returns the price to register or renew a name.",
        "params": {
          "duration": "How long the name is being registered or extended for, in seconds.",
          "expires": "When the name presently expires (0 if this is a new registration).",
          "name": "The name being registered or renewed."
        },
        "returns": {
          "_0": "base premium tuple of base price + premium price"
        }
      }
    },
    "version": 1
  },
  "userdoc": {
    "kind": "user",
    "methods": {},
    "version": 1
  },
  "storageLayout": {
    "storage": [],
    "types": null
  }
}