{
  "address": "0xB491B6d40EF0e6b9AB411f08B3865435cB926BED",
  "abi": [
    {
      "inputs": [
        {
          "internalType": "contract TomoNs",
          "name": "_tomoNs",
          "type": "address"
        },
        {
          "internalType": "contract IBaseRegistrar",
          "name": "_registrar",
          "type": "address"
        },
        {
          "internalType": "contract IMetadataService",
          "name": "_metadataService",
          "type": "address"
        }
      ],
      "stateMutability": "nonpayable",
      "type": "constructor"
    },
    {
      "inputs": [],
      "name": "CannotUpgrade",
      "type": "error"
    },
    {
      "inputs": [],
      "name": "IncompatibleParent",
      "type": "error"
    },
    {
      "inputs": [
        {
          "internalType": "address",
          "name": "owner",
          "type": "address"
        }
      ],
      "name": "IncorrectTargetOwner",
      "type": "error"
    },
    {
      "inputs": [],
      "name": "IncorrectTokenType",
      "type": "error"
    },
    {
      "inputs": [
        {
          "internalType": "bytes32",
          "name": "labelHash",
          "type": "bytes32"
        },
        {
          "internalType": "bytes32",
          "name": "expectedLabelhash",
          "type": "bytes32"
        }
      ],
      "name": "LabelMismatch",
      "type": "error"
    },
    {
      "inputs": [
        {
          "internalType": "string",
          "name": "label",
          "type": "string"
        }
      ],
      "name": "LabelTooLong",
      "type": "error"
    },
    {
      "inputs": [],
      "name": "LabelTooShort",
      "type": "error"
    },
    {
      "inputs": [],
      "name": "NameIsNotWrapped",
      "type": "error"
    },
    {
      "inputs": [
        {
          "internalType": "bytes32",
          "name": "node",
          "type": "bytes32"
        }
      ],
      "name": "OperationProhibited",
      "type": "error"
    },
    {
      "inputs": [
        {
          "internalType": "bytes32",
          "name": "node",
          "type": "bytes32"
        },
        {
          "internalType": "address",
          "name": "addr",
          "type": "address"
        }
      ],
      "name": "Unauthorised",
      "type": "error"
    },
    {
      "anonymous": false,
      "inputs": [
        {
          "indexed": true,
          "internalType": "address",
          "name": "owner",
          "type": "address"
        },
        {
          "indexed": true,
          "internalType": "address",
          "name": "approved",
          "type": "address"
        },
        {
          "indexed": true,
          "internalType": "uint256",
          "name": "tokenId",
          "type": "uint256"
        }
      ],
      "name": "Approval",
      "type": "event"
    },
    {
      "anonymous": false,
      "inputs": [
        {
          "indexed": true,
          "internalType": "address",
          "name": "account",
          "type": "address"
        },
        {
          "indexed": true,
          "internalType": "address",
          "name": "operator",
          "type": "address"
        },
        {
          "indexed": false,
          "internalType": "bool",
          "name": "approved",
          "type": "bool"
        }
      ],
      "name": "ApprovalForAll",
      "type": "event"
    },
    {
      "anonymous": false,
      "inputs": [
        {
          "indexed": true,
          "internalType": "address",
          "name": "controller",
          "type": "address"
        },
        {
          "indexed": false,
          "internalType": "bool",
          "name": "active",
          "type": "bool"
        }
      ],
      "name": "ControllerChanged",
      "type": "event"
    },
    {
      "anonymous": false,
      "inputs": [
        {
          "indexed": true,
          "internalType": "bytes32",
          "name": "node",
          "type": "bytes32"
        },
        {
          "indexed": false,
          "internalType": "uint64",
          "name": "expiry",
          "type": "uint64"
        }
      ],
      "name": "ExpiryExtended",
      "type": "event"
    },
    {
      "anonymous": false,
      "inputs": [
        {
          "indexed": true,
          "internalType": "bytes32",
          "name": "node",
          "type": "bytes32"
        },
        {
          "indexed": false,
          "internalType": "uint32",
          "name": "fuses",
          "type": "uint32"
        }
      ],
      "name": "FusesSet",
      "type": "event"
    },
    {
      "anonymous": false,
      "inputs": [
        {
          "indexed": true,
          "internalType": "bytes32",
          "name": "node",
          "type": "bytes32"
        },
        {
          "indexed": false,
          "internalType": "address",
          "name": "owner",
          "type": "address"
        }
      ],
      "name": "NameUnwrapped",
      "type": "event"
    },
    {
      "anonymous": false,
      "inputs": [
        {
          "indexed": true,
          "internalType": "bytes32",
          "name": "node",
          "type": "bytes32"
        },
        {
          "indexed": false,
          "internalType": "bytes",
          "name": "name",
          "type": "bytes"
        },
        {
          "indexed": false,
          "internalType": "address",
          "name": "owner",
          "type": "address"
        },
        {
          "indexed": false,
          "internalType": "uint32",
          "name": "fuses",
          "type": "uint32"
        },
        {
          "indexed": false,
          "internalType": "uint64",
          "name": "expiry",
          "type": "uint64"
        }
      ],
      "name": "NameWrapped",
      "type": "event"
    },
    {
      "anonymous": false,
      "inputs": [
        {
          "indexed": true,
          "internalType": "address",
          "name": "previousOwner",
          "type": "address"
        },
        {
          "indexed": true,
          "internalType": "address",
          "name": "newOwner",
          "type": "address"
        }
      ],
      "name": "OwnershipTransferred",
      "type": "event"
    },
    {
      "anonymous": false,
      "inputs": [
        {
          "indexed": true,
          "internalType": "address",
          "name": "operator",
          "type": "address"
        },
        {
          "indexed": true,
          "internalType": "address",
          "name": "from",
          "type": "address"
        },
        {
          "indexed": true,
          "internalType": "address",
          "name": "to",
          "type": "address"
        },
        {
          "indexed": false,
          "internalType": "uint256[]",
          "name": "ids",
          "type": "uint256[]"
        },
        {
          "indexed": false,
          "internalType": "uint256[]",
          "name": "values",
          "type": "uint256[]"
        }
      ],
      "name": "TransferBatch",
      "type": "event"
    },
    {
      "anonymous": false,
      "inputs": [
        {
          "indexed": true,
          "internalType": "address",
          "name": "operator",
          "type": "address"
        },
        {
          "indexed": true,
          "internalType": "address",
          "name": "from",
          "type": "address"
        },
        {
          "indexed": true,
          "internalType": "address",
          "name": "to",
          "type": "address"
        },
        {
          "indexed": false,
          "internalType": "uint256",
          "name": "id",
          "type": "uint256"
        },
        {
          "indexed": false,
          "internalType": "uint256",
          "name": "value",
          "type": "uint256"
        }
      ],
      "name": "TransferSingle",
      "type": "event"
    },
    {
      "anonymous": false,
      "inputs": [
        {
          "indexed": false,
          "internalType": "string",
          "name": "value",
          "type": "string"
        },
        {
          "indexed": true,
          "internalType": "uint256",
          "name": "id",
          "type": "uint256"
        }
      ],
      "name": "URI",
      "type": "event"
    },
    {
      "inputs": [
        {
          "internalType": "uint256",
          "name": "",
          "type": "uint256"
        }
      ],
      "name": "_tokens",
      "outputs": [
        {
          "internalType": "uint256",
          "name": "",
          "type": "uint256"
        }
      ],
      "stateMutability": "view",
      "type": "function"
    },
    {
      "inputs": [
        {
          "internalType": "bytes32",
          "name": "node",
          "type": "bytes32"
        },
        {
          "internalType": "uint32",
          "name": "fuseMask",
          "type": "uint32"
        }
      ],
      "name": "allFusesBurned",
      "outputs": [
        {
          "internalType": "bool",
          "name": "",
          "type": "bool"
        }
      ],
      "stateMutability": "view",
      "type": "function"
    },
    {
      "inputs": [
        {
          "internalType": "address",
          "name": "to",
          "type": "address"
        },
        {
          "internalType": "uint256",
          "name": "tokenId",
          "type": "uint256"
        }
      ],
      "name": "approve",
      "outputs": [],
      "stateMutability": "nonpayable",
      "type": "function"
    },
    {
      "inputs": [
        {
          "internalType": "address",
          "name": "account",
          "type": "address"
        },
        {
          "internalType": "uint256",
          "name": "id",
          "type": "uint256"
        }
      ],
      "name": "balanceOf",
      "outputs": [
        {
          "internalType": "uint256",
          "name": "",
          "type": "uint256"
        }
      ],
      "stateMutability": "view",
      "type": "function"
    },
    {
      "inputs": [
        {
          "internalType": "address[]",
          "name": "accounts",
          "type": "address[]"
        },
        {
          "internalType": "uint256[]",
          "name": "ids",
          "type": "uint256[]"
        }
      ],
      "name": "balanceOfBatch",
      "outputs": [
        {
          "internalType": "uint256[]",
          "name": "",
          "type": "uint256[]"
        }
      ],
      "stateMutability": "view",
      "type": "function"
    },
    {
      "inputs": [
        {
          "internalType": "bytes32",
          "name": "node",
          "type": "bytes32"
        },
        {
          "internalType": "address",
          "name": "addr",
          "type": "address"
        }
      ],
      "name": "canExtendSubnames",
      "outputs": [
        {
          "internalType": "bool",
          "name": "",
          "type": "bool"
        }
      ],
      "stateMutability": "view",
      "type": "function"
    },
    {
      "inputs": [
        {
          "internalType": "bytes32",
          "name": "node",
          "type": "bytes32"
        },
        {
          "internalType": "address",
          "name": "addr",
          "type": "address"
        }
      ],
      "name": "canModifyName",
      "outputs": [
        {
          "internalType": "bool",
          "name": "",
          "type": "bool"
        }
      ],
      "stateMutability": "view",
      "type": "function"
    },
    {
      "inputs": [
        {
          "internalType": "address",
          "name": "",
          "type": "address"
        }
      ],
      "name": "controllers",
      "outputs": [
        {
          "internalType": "bool",
          "name": "",
          "type": "bool"
        }
      ],
      "stateMutability": "view",
      "type": "function"
    },
    {
      "inputs": [
        {
          "internalType": "bytes32",
          "name": "parentNode",
          "type": "bytes32"
        },
        {
          "internalType": "bytes32",
          "name": "labelhash",
          "type": "bytes32"
        },
        {
          "internalType": "uint64",
          "name": "expiry",
          "type": "uint64"
        }
      ],
      "name": "extendExpiry",
      "outputs": [
        {
          "internalType": "uint64",
          "name": "",
          "type": "uint64"
        }
      ],
      "stateMutability": "nonpayable",
      "type": "function"
    },
    {
      "inputs": [
        {
          "internalType": "uint256",
          "name": "id",
          "type": "uint256"
        }
      ],
      "name": "getApproved",
      "outputs": [
        {
          "internalType": "address",
          "name": "operator",
          "type": "address"
        }
      ],
      "stateMutability": "view",
      "type": "function"
    },
    {
      "inputs": [
        {
          "internalType": "uint256",
          "name": "id",
          "type": "uint256"
        }
      ],
      "name": "getData",
      "outputs": [
        {
          "internalType": "address",
          "name": "owner",
          "type": "address"
        },
        {
          "internalType": "uint32",
          "name": "fuses",
          "type": "uint32"
        },
        {
          "internalType": "uint64",
          "name": "expiry",
          "type": "uint64"
        }
      ],
      "stateMutability": "view",
      "type": "function"
    },
    {
      "inputs": [
        {
          "internalType": "address",
          "name": "account",
          "type": "address"
        },
        {
          "internalType": "address",
          "name": "operator",
          "type": "address"
        }
      ],
      "name": "isApprovedForAll",
      "outputs": [
        {
          "internalType": "bool",
          "name": "",
          "type": "bool"
        }
      ],
      "stateMutability": "view",
      "type": "function"
    },
    {
      "inputs": [
        {
          "internalType": "bytes32",
          "name": "parentNode",
          "type": "bytes32"
        },
        {
          "internalType": "bytes32",
          "name": "labelhash",
          "type": "bytes32"
        }
      ],
      "name": "isWrapped",
      "outputs": [
        {
          "internalType": "bool",
          "name": "",
          "type": "bool"
        }
      ],
      "stateMutability": "view",
      "type": "function"
    },
    {
      "inputs": [
        {
          "internalType": "bytes32",
          "name": "node",
          "type": "bytes32"
        }
      ],
      "name": "isWrapped",
      "outputs": [
        {
          "internalType": "bool",
          "name": "",
          "type": "bool"
        }
      ],
      "stateMutability": "view",
      "type": "function"
    },
    {
      "inputs": [],
      "name": "metadataService",
      "outputs": [
        {
          "internalType": "contract IMetadataService",
          "name": "",
          "type": "address"
        }
      ],
      "stateMutability": "view",
      "type": "function"
    },
    {
      "inputs": [],
      "name": "name",
      "outputs": [
        {
          "internalType": "string",
          "name": "",
          "type": "string"
        }
      ],
      "stateMutability": "view",
      "type": "function"
    },
    {
      "inputs": [
        {
          "internalType": "bytes32",
          "name": "",
          "type": "bytes32"
        }
      ],
      "name": "names",
      "outputs": [
        {
          "internalType": "bytes",
          "name": "",
          "type": "bytes"
        }
      ],
      "stateMutability": "view",
      "type": "function"
    },
    {
      "inputs": [
        {
          "internalType": "address",
          "name": "to",
          "type": "address"
        },
        {
          "internalType": "address",
          "name": "",
          "type": "address"
        },
        {
          "internalType": "uint256",
          "name": "tokenId",
          "type": "uint256"
        },
        {
          "internalType": "bytes",
          "name": "data",
          "type": "bytes"
        }
      ],
      "name": "onERC721Received",
      "outputs": [
        {
          "internalType": "bytes4",
          "name": "",
          "type": "bytes4"
        }
      ],
      "stateMutability": "nonpayable",
      "type": "function"
    },
    {
      "inputs": [],
      "name": "owner",
      "outputs": [
        {
          "internalType": "address",
          "name": "",
          "type": "address"
        }
      ],
      "stateMutability": "view",
      "type": "function"
    },
    {
      "inputs": [
        {
          "internalType": "uint256",
          "name": "id",
          "type": "uint256"
        }
      ],
      "name": "ownerOf",
      "outputs": [
        {
          "internalType": "address",
          "name": "owner",
          "type": "address"
        }
      ],
      "stateMutability": "view",
      "type": "function"
    },
    {
      "inputs": [
        {
          "internalType": "address",
          "name": "_token",
          "type": "address"
        },
        {
          "internalType": "address",
          "name": "_to",
          "type": "address"
        },
        {
          "internalType": "uint256",
          "name": "_amount",
          "type": "uint256"
        }
      ],
      "name": "recoverFunds",
      "outputs": [],
      "stateMutability": "nonpayable",
      "type": "function"
    },
    {
      "inputs": [
        {
          "internalType": "string",
          "name": "label",
          "type": "string"
        },
        {
          "internalType": "address",
          "name": "wrappedOwner",
          "type": "address"
        },
        {
          "internalType": "uint256",
          "name": "duration",
          "type": "uint256"
        },
        {
          "internalType": "address",
          "name": "resolver",
          "type": "address"
        },
        {
          "internalType": "uint16",
          "name": "ownerControlledFuses",
          "type": "uint16"
        }
      ],
      "name": "registerAndWrapETH2LD",
      "outputs": [
        {
          "internalType": "uint256",
          "name": "registrarExpiry",
          "type": "uint256"
        }
      ],
      "stateMutability": "nonpayable",
      "type": "function"
    },
    {
      "inputs": [],
      "name": "registrar",
      "outputs": [
        {
          "internalType": "contract IBaseRegistrar",
          "name": "",
          "type": "address"
        }
      ],
      "stateMutability": "view",
      "type": "function"
    },
    {
      "inputs": [
        {
          "internalType": "uint256",
          "name": "tokenId",
          "type": "uint256"
        },
        {
          "internalType": "uint256",
          "name": "duration",
          "type": "uint256"
        }
      ],
      "name": "renew",
      "outputs": [
        {
          "internalType": "uint256",
          "name": "expires",
          "type": "uint256"
        }
      ],
      "stateMutability": "nonpayable",
      "type": "function"
    },
    {
      "inputs": [],
      "name": "renounceOwnership",
      "outputs": [],
      "stateMutability": "nonpayable",
      "type": "function"
    },
    {
      "inputs": [
        {
          "internalType": "address",
          "name": "from",
          "type": "address"
        },
        {
          "internalType": "address",
          "name": "to",
          "type": "address"
        },
        {
          "internalType": "uint256[]",
          "name": "ids",
          "type": "uint256[]"
        },
        {
          "internalType": "uint256[]",
          "name": "amounts",
          "type": "uint256[]"
        },
        {
          "internalType": "bytes",
          "name": "data",
          "type": "bytes"
        }
      ],
      "name": "safeBatchTransferFrom",
      "outputs": [],
      "stateMutability": "nonpayable",
      "type": "function"
    },
    {
      "inputs": [
        {
          "internalType": "address",
          "name": "from",
          "type": "address"
        },
        {
          "internalType": "address",
          "name": "to",
          "type": "address"
        },
        {
          "internalType": "uint256",
          "name": "id",
          "type": "uint256"
        },
        {
          "internalType": "uint256",
          "name": "amount",
          "type": "uint256"
        },
        {
          "internalType": "bytes",
          "name": "data",
          "type": "bytes"
        }
      ],
      "name": "safeTransferFrom",
      "outputs": [],
      "stateMutability": "nonpayable",
      "type": "function"
    },
    {
      "inputs": [
        {
          "internalType": "address",
          "name": "operator",
          "type": "address"
        },
        {
          "internalType": "bool",
          "name": "approved",
          "type": "bool"
        }
      ],
      "name": "setApprovalForAll",
      "outputs": [],
      "stateMutability": "nonpayable",
      "type": "function"
    },
    {
      "inputs": [
        {
          "internalType": "bytes32",
          "name": "parentNode",
          "type": "bytes32"
        },
        {
          "internalType": "bytes32",
          "name": "labelhash",
          "type": "bytes32"
        },
        {
          "internalType": "uint32",
          "name": "fuses",
          "type": "uint32"
        },
        {
          "internalType": "uint64",
          "name": "expiry",
          "type": "uint64"
        }
      ],
      "name": "setChildFuses",
      "outputs": [],
      "stateMutability": "nonpayable",
      "type": "function"
    },
    {
      "inputs": [
        {
          "internalType": "address",
          "name": "controller",
          "type": "address"
        },
        {
          "internalType": "bool",
          "name": "active",
          "type": "bool"
        }
      ],
      "name": "setController",
      "outputs": [],
      "stateMutability": "nonpayable",
      "type": "function"
    },
    {
      "inputs": [
        {
          "internalType": "bytes32",
          "name": "node",
          "type": "bytes32"
        },
        {
          "internalType": "uint16",
          "name": "ownerControlledFuses",
          "type": "uint16"
        }
      ],
      "name": "setFuses",
      "outputs": [
        {
          "internalType": "uint32",
          "name": "",
          "type": "uint32"
        }
      ],
      "stateMutability": "nonpayable",
      "type": "function"
    },
    {
      "inputs": [
        {
          "internalType": "contract IMetadataService",
          "name": "_metadataService",
          "type": "address"
        }
      ],
      "name": "setMetadataService",
      "outputs": [],
      "stateMutability": "nonpayable",
      "type": "function"
    },
    {
      "inputs": [
        {
          "internalType": "bytes32",
          "name": "node",
          "type": "bytes32"
        },
        {
          "internalType": "address",
          "name": "owner",
          "type": "address"
        },
        {
          "internalType": "address",
          "name": "resolver",
          "type": "address"
        },
        {
          "internalType": "uint64",
          "name": "ttl",
          "type": "uint64"
        }
      ],
      "name": "setRecord",
      "outputs": [],
      "stateMutability": "nonpayable",
      "type": "function"
    },
    {
      "inputs": [
        {
          "internalType": "bytes32",
          "name": "node",
          "type": "bytes32"
        },
        {
          "internalType": "address",
          "name": "resolver",
          "type": "address"
        }
      ],
      "name": "setResolver",
      "outputs": [],
      "stateMutability": "nonpayable",
      "type": "function"
    },
    {
      "inputs": [
        {
          "internalType": "bytes32",
          "name": "parentNode",
          "type": "bytes32"
        },
        {
          "internalType": "string",
          "name": "label",
          "type": "string"
        },
        {
          "internalType": "address",
          "name": "owner",
          "type": "address"
        },
        {
          "internalType": "uint32",
          "name": "fuses",
          "type": "uint32"
        },
        {
          "internalType": "uint64",
          "name": "expiry",
          "type": "uint64"
        }
      ],
      "name": "setSubnodeOwner",
      "outputs": [
        {
          "internalType": "bytes32",
          "name": "node",
          "type": "bytes32"
        }
      ],
      "stateMutability": "nonpayable",
      "type": "function"
    },
    {
      "inputs": [
        {
          "internalType": "bytes32",
          "name": "parentNode",
          "type": "bytes32"
        },
        {
          "internalType": "string",
          "name": "label",
          "type": "string"
        },
        {
          "internalType": "address",
          "name": "owner",
          "type": "address"
        },
        {
          "internalType": "address",
          "name": "resolver",
          "type": "address"
        },
        {
          "internalType": "uint64",
          "name": "ttl",
          "type": "uint64"
        },
        {
          "internalType": "uint32",
          "name": "fuses",
          "type": "uint32"
        },
        {
          "internalType": "uint64",
          "name": "expiry",
          "type": "uint64"
        }
      ],
      "name": "setSubnodeRecord",
      "outputs": [
        {
          "internalType": "bytes32",
          "name": "node",
          "type": "bytes32"
        }
      ],
      "stateMutability": "nonpayable",
      "type": "function"
    },
    {
      "inputs": [
        {
          "internalType": "bytes32",
          "name": "node",
          "type": "bytes32"
        },
        {
          "internalType": "uint64",
          "name": "ttl",
          "type": "uint64"
        }
      ],
      "name": "setTTL",
      "outputs": [],
      "stateMutability": "nonpayable",
      "type": "function"
    },
    {
      "inputs": [
        {
          "internalType": "contract INameWrapperUpgrade",
          "name": "_upgradeAddress",
          "type": "address"
        }
      ],
      "name": "setUpgradeContract",
      "outputs": [],
      "stateMutability": "nonpayable",
      "type": "function"
    },
    {
      "inputs": [
        {
          "internalType": "bytes4",
          "name": "interfaceId",
          "type": "bytes4"
        }
      ],
      "name": "supportsInterface",
      "outputs": [
        {
          "internalType": "bool",
          "name": "",
          "type": "bool"
        }
      ],
      "stateMutability": "view",
      "type": "function"
    },
    {
      "inputs": [],
      "name": "tomoNs",
      "outputs": [
        {
          "internalType": "contract TomoNs",
          "name": "",
          "type": "address"
        }
      ],
      "stateMutability": "view",
      "type": "function"
    },
    {
      "inputs": [
        {
          "internalType": "address",
          "name": "newOwner",
          "type": "address"
        }
      ],
      "name": "transferOwnership",
      "outputs": [],
      "stateMutability": "nonpayable",
      "type": "function"
    },
    {
      "inputs": [
        {
          "internalType": "bytes32",
          "name": "parentNode",
          "type": "bytes32"
        },
        {
          "internalType": "bytes32",
          "name": "labelhash",
          "type": "bytes32"
        },
        {
          "internalType": "address",
          "name": "controller",
          "type": "address"
        }
      ],
      "name": "unwrap",
      "outputs": [],
      "stateMutability": "nonpayable",
      "type": "function"
    },
    {
      "inputs": [
        {
          "internalType": "bytes32",
          "name": "labelhash",
          "type": "bytes32"
        },
        {
          "internalType": "address",
          "name": "registrant",
          "type": "address"
        },
        {
          "internalType": "address",
          "name": "controller",
          "type": "address"
        }
      ],
      "name": "unwrapETH2LD",
      "outputs": [],
      "stateMutability": "nonpayable",
      "type": "function"
    },
    {
      "inputs": [
        {
          "internalType": "bytes",
          "name": "name",
          "type": "bytes"
        },
        {
          "internalType": "bytes",
          "name": "extraData",
          "type": "bytes"
        }
      ],
      "name": "upgrade",
      "outputs": [],
      "stateMutability": "nonpayable",
      "type": "function"
    },
    {
      "inputs": [],
      "name": "upgradeContract",
      "outputs": [
        {
          "internalType": "contract INameWrapperUpgrade",
          "name": "",
          "type": "address"
        }
      ],
      "stateMutability": "view",
      "type": "function"
    },
    {
      "inputs": [
        {
          "internalType": "uint256",
          "name": "tokenId",
          "type": "uint256"
        }
      ],
      "name": "uri",
      "outputs": [
        {
          "internalType": "string",
          "name": "",
          "type": "string"
        }
      ],
      "stateMutability": "view",
      "type": "function"
    },
    {
      "inputs": [
        {
          "internalType": "bytes",
          "name": "name",
          "type": "bytes"
        },
        {
          "internalType": "address",
          "name": "wrappedOwner",
          "type": "address"
        },
        {
          "internalType": "address",
          "name": "resolver",
          "type": "address"
        }
      ],
      "name": "wrap",
      "outputs": [],
      "stateMutability": "nonpayable",
      "type": "function"
    },
    {
      "inputs": [
        {
          "internalType": "string",
          "name": "label",
          "type": "string"
        },
        {
          "internalType": "address",
          "name": "wrappedOwner",
          "type": "address"
        },
        {
          "internalType": "uint16",
          "name": "ownerControlledFuses",
          "type": "uint16"
        },
        {
          "internalType": "address",
          "name": "resolver",
          "type": "address"
        }
      ],
      "name": "wrapETH2LD",
      "outputs": [
        {
          "internalType": "uint64",
          "name": "expiry",
          "type": "uint64"
        }
      ],
      "stateMutability": "nonpayable",
      "type": "function"
    }
  ],
  "transactionHash": "0x927c4aaf02f4f2e47797cd93d4630f44158d431ab615b89da5c54a24f01b285a",
  "args": [
    "0x669579145E221a9398B8d108ACbCC0608ADA90E5",
    "0xd1b03a4D81978e3A307615c14e65b20F3aaf7484",
    "0x8C799b7D49CB469709730f5E1494e9B9Ca621B04"
  ],
  "numDeployments": 1,
  "solcInputHash": "adbf76942d563524ad80ebf49b3841d1",
  "bytecode": "0x60c06040523480156200001157600080fd5b5060405162005c1d38038062005c1d8339810160408190526200003491620003a2565b8233620000418162000293565b6040516302571be360e01b81527f91d1777781884d03a6757a803996e38de2a42967fb37eeaca72729271025a9e260048201526000906001600160a01b038416906302571be390602401602060405180830381865afa158015620000a9573d6000803e3d6000fd5b505050506040513d601f19601f82011682018060405250810190620000cf9190620003f6565b604051630f41a04d60e11b81526001600160a01b03848116600483015291925090821690631e83409a906024016020604051808303816000875af11580156200011c573d6000803e3d6000fd5b505050506040513d601f19601f820116820180604052508101906200014291906200041d565b505050506001600160a01b0383811660805282811660a052600580546001600160a01b031916918316919091179055600163fffeffff60a01b03197f0f73abb48a2459a19fcb4892628a5adea31f0973506bf40af66f0c553cdf7b078190557fa6eef7e35abe7026729641147f7915573c7e97b47efa546f5f6e3230263bcb495560408051808201909152600181526000602080830182815291805260069052905162000211917f54cdd369e4e8a8515e52ca72ec816c2101831ad1f18bf44102ed171459c9b4f891620002e3565b506040805180820190915260068082526403746f6d6f60d81b60208084019182527fee7289196899d8c5bc40150453f87a5ebf33e301b7ed2537d6cc0ba5caeadcd560005291909152905162000289917ffc912bfa15c59abb2596504a5ba45a29241497194db3866eb1596f4f2a1fe14691620002e3565b5050505062000474565b600080546001600160a01b038381166001600160a01b0319831681178455604051919092169283917f8be0079c531659141344cd1fd0a4f28419497f9722a3daafe3b4186f6b6457e09190a35050565b828054620002f19062000437565b90600052602060002090601f01602090048101928262000315576000855562000360565b82601f106200033057805160ff191683800117855562000360565b8280016001018555821562000360579182015b828111156200036057825182559160200191906001019062000343565b506200036e92915062000372565b5090565b5b808211156200036e576000815560010162000373565b6001600160a01b03811681146200039f57600080fd5b50565b600080600060608486031215620003b857600080fd5b8351620003c58162000389565b6020850151909350620003d88162000389565b6040850151909250620003eb8162000389565b809150509250925092565b6000602082840312156200040957600080fd5b8151620004168162000389565b9392505050565b6000602082840312156200043057600080fd5b5051919050565b600181811c908216806200044c57607f821691505b602082108114156200046e57634e487b7160e01b600052602260045260246000fd5b50919050565b60805160a05161569c620005816000396000818161047301528181610aee01528181610b9101528181610c20015281816118c60152818161195c01528181611a0a01528181611adc01528181611b4d01528181611bd201528181611de701528181611f2301528181612055015281816121ad01528181612233015261295c01526000818161061d01528181610a7401528181610d6a01528181610ef901528181610faa015281816112bc01528181611fa8015281816120da015281816122de015281816124900152818161276101528181612b8401528181612c3201528181612ce701528181612d680152818161327e015281816133d1015281816136420152613bef015261569c6000f3fe608060405234801561001057600080fd5b506004361061029f5760003560e01c80636e5d6ad211610167578063c93ab3fd116100ce578063e985e9c511610087578063e985e9c5146106d4578063eb8ae530146106e7578063ed70554d146106fa578063f242432a1461071a578063f2fde38b1461072d578063fd0cd0d91461074057600080fd5b8063c93ab3fd14610652578063cf40882314610665578063d8c9921a14610678578063d9a50c121461068b578063da8c229e1461069e578063e0dba60f146106c157600080fd5b8063a401498211610120578063a4014982146105cc578063adf4960a146105df578063b6bcad26146105f2578063c475abff14610605578063c51b03bf14610618578063c658e0861461063f57600080fd5b80636e5d6ad21461054f578063715018a61461057a5780638b4dfa75146105825780638cf8b41e146105955780638da5cb5b146105a8578063a22cb465146105b957600080fd5b80631f4e15041161020b578063402906fc116101c4578063402906fc146104bb57806341415eab146104e35780634e1273f4146104f657806353095467146105165780635d3590d5146105295780636352211e1461053c57600080fd5b80631f4e15041461043557806320c38e2b1461044857806324c1af441461045b5780632b20e3971461046e5780632eb2c2d61461049557806333c69ea9146104a857600080fd5b80630e4cd7251161025d5780630e4cd725146103aa5780630e89341c146103bd57806314ab9038146103d0578063150b7a02146103e35780631534e1771461040f5780631896f70a1461042257600080fd5b8062fdd58e146102a45780630178fe3f146102ca57806301ffc9a71461031057806306fdde0314610333578063081812fc1461036a578063095ea7b314610395575b600080fd5b6102b76102b236600461454b565b610753565b6040519081526020015b60405180910390f35b6102dd6102d8366004614577565b610801565b604080516001600160a01b03909416845263ffffffff90921660208401526001600160401b0316908201526060016102c1565b61032361031e3660046145a6565b610831565b60405190151581526020016102c1565b61035d6040518060400160405280600b81526020016a2730b6b2abb930b83832b960a91b81525081565b6040516102c1919061461b565b61037d610378366004614577565b610871565b6040516001600160a01b0390911681526020016102c1565b6103a86103a336600461454b565b6108b6565b005b6103236103b836600461462e565b6108fb565b61035d6103cb366004614577565b610975565b6103a86103de36600461467a565b6109e7565b6103f66103f13660046146ee565b610ae1565b6040516001600160e01b031990911681526020016102c1565b6103a861041d366004614760565b610cc1565b6103a861043036600461462e565b610ceb565b60075461037d906001600160a01b031681565b61035d610456366004614577565b610da1565b6102b7610469366004614856565b610e3b565b61037d7f000000000000000000000000000000000000000000000000000000000000000081565b6103a86104a336600461497c565b611021565b6103a86104b6366004614a29565b61125f565b6104ce6104c9366004614a81565b61142f565b60405163ffffffff90911681526020016102c1565b6103236104f136600461462e565b6114cc565b610509610504366004614aa4565b611505565b6040516102c19190614ba1565b60055461037d906001600160a01b031681565b6103a8610537366004614bb4565b61162e565b61037d61054a366004614577565b6116af565b61056261055d366004614bf5565b6116ba565b6040516001600160401b0390911681526020016102c1565b6103a86117ed565b6103a8610590366004614c2a565b611801565b6105626105a3366004614c6c565b611928565b6000546001600160a01b031661037d565b6103a86105c7366004614cf4565b611ca4565b6102b76105da366004614d22565b611d7b565b6103236105ed366004614da2565b611ebc565b6103a8610600366004614760565b611ee1565b6102b7610613366004614dc5565b612139565b61037d7f000000000000000000000000000000000000000000000000000000000000000081565b6102b761064d366004614de7565b6123a3565b6103a8610660366004614e59565b61256b565b6103a8610673366004614ec4565b6126be565b6103a8610686366004614efc565b612854565b610323610699366004614dc5565b61290c565b6103236106ac366004614760565b60046020526000908152604090205460ff1681565b6103a86106cf366004614cf4565b6129eb565b6103236106e2366004614f2a565b612a53565b6103a86106f5366004614f58565b612a81565b6102b7610708366004614577565b60016020526000908152604090205481565b6103a8610728366004614fbf565b612e14565b6103a861073b366004614760565b612ec1565b61032361074e366004614577565b612f37565b60006001600160a01b0383166107c45760405162461bcd60e51b815260206004820152602b60248201527f455243313135353a2062616c616e636520717565727920666f7220746865207a60448201526a65726f206164647265737360a81b60648201526084015b60405180910390fd5b60006107cf836116af565b9050836001600160a01b0316816001600160a01b031614156107f55760019150506107fb565b60009150505b92915050565b60008181526001602052604090205460a081901c60c082901c610825838383613010565b90959094509092509050565b60006001600160e01b03198216630444408360e31b148061086257506001600160e01b03198216630a85bd0160e11b145b806107fb57506107fb82613044565b60008061087d836116af565b90506001600160a01b0381166108965750600092915050565b6000838152600360205260409020546001600160a01b03165b9392505050565b60006108c182610801565b50915050604080821614156108ec5760405163a2a7201360e01b8152600481018390526024016107bb565b6108f68383613094565b505050565b600080808061090986610801565b925092509250846001600160a01b0316836001600160a01b0316148061093457506109348386612a53565b8061095857506001600160a01b03851661094d87610871565b6001600160a01b0316145b801561096b575061096982826131a5565b155b9695505050505050565b6005546040516303a24d0760e21b8152600481018390526060916001600160a01b031690630e89341c90602401600060405180830381865afa1580156109bf573d6000803e3d6000fd5b505050506040513d6000823e601f3d908101601f191682016040526107fb9190810190615027565b816109f281336114cc565b610a1357803360405163168ab55d60e31b81526004016107bb92919061509e565b8260106000610a2183610801565b5091505063ffffffff8282161615610a4f5760405163a2a7201360e01b8152600481018490526024016107bb565b604051630295720760e31b8152600481018790526001600160401b03861660248201527f00000000000000000000000000000000000000000000000000000000000000006001600160a01b0316906314ab9038906044015b600060405180830381600087803b158015610ac157600080fd5b505af1158015610ad5573d6000803e3d6000fd5b50505050505050505050565b6000336001600160a01b037f00000000000000000000000000000000000000000000000000000000000000001614610b2c5760405163032634a760e31b815260040160405180910390fd5b6000808080610b3d868801886150b5565b83516020850120939750919550935091508890808214610b7a576040516331970f3360e21b815260048101829052602481018390526044016107bb565b604051630a3b53db60e21b81526001600160a01b037f000000000000000000000000000000000000000000000000000000000000000016906328ed4f6c90610bc8908590309060040161509e565b600060405180830381600087803b158015610be257600080fd5b505af1158015610bf6573d6000803e3d6000fd5b5050604051636b727d4360e11b8152600481018d9052600092506276a70091506001600160a01b037f0000000000000000000000000000000000000000000000000000000000000000169063d6e4fa8690602401602060405180830381865afa158015610c67573d6000803e3d6000fd5b505050506040513d601f19601f82011682018060405250810190610c8b919061511c565b610c95919061514b565b9050610ca887878761ffff1684886131d5565b50630a85bd0160e11b9c9b505050505050505050505050565b610cc96132f1565b600580546001600160a01b0319166001600160a01b0392909216919091179055565b81610cf681336114cc565b610d1757803360405163168ab55d60e31b81526004016107bb92919061509e565b8260086000610d2583610801565b5091505063ffffffff8282161615610d535760405163a2a7201360e01b8152600481018490526024016107bb565b604051630c4b7b8560e11b81526001600160a01b037f00000000000000000000000000000000000000000000000000000000000000001690631896f70a90610aa7908990899060040161509e565b60066020526000908152604090208054610dba90615176565b80601f0160208091040260200160405190810160405280929190818152602001828054610de690615176565b8015610e335780601f10610e0857610100808354040283529160200191610e33565b820191906000526020600020905b815481529060010190602001808311610e1657829003601f168201915b505050505081565b600087610e4881336114cc565b610e6957803360405163168ab55d60e31b81526004016107bb92919061509e565b87516020890120610e7a8a8261334b565b9250610e868a84613377565b610e9083866134b5565b610e9b8a848b6134e8565b50610ea88a8487876135be565b9350610eb383613604565b610f68576040516305ef2c7f60e41b8152600481018b9052602481018290523060448201526001600160a01b0388811660648301526001600160401b03881660848301527f00000000000000000000000000000000000000000000000000000000000000001690635ef2c7f09060a401600060405180830381600087803b158015610f3d57600080fd5b505af1158015610f51573d6000803e3d6000fd5b50505050610f638a848b8b89896136bd565b611014565b6040516305ef2c7f60e41b8152600481018b9052602481018290523060448201526001600160a01b0388811660648301526001600160401b03881660848301527f00000000000000000000000000000000000000000000000000000000000000001690635ef2c7f09060a401600060405180830381600087803b158015610fee57600080fd5b505af1158015611002573d6000803e3d6000fd5b505050506110148a848b8b89896136f4565b5050979650505050505050565b81518351146110835760405162461bcd60e51b815260206004820152602860248201527f455243313135353a2069647320616e6420616d6f756e7473206c656e677468206044820152670dad2e6dac2e8c6d60c31b60648201526084016107bb565b6001600160a01b0384166110a95760405162461bcd60e51b81526004016107bb906151b1565b6001600160a01b0385163314806110c557506110c58533612a53565b61112c5760405162461bcd60e51b815260206004820152603260248201527f455243313135353a207472616e736665722063616c6c6572206973206e6f74206044820152711bdddb995c881b9bdc88185c1c1c9bdd995960721b60648201526084016107bb565b60005b83518110156111f257600084828151811061114c5761114c6151f6565b60200260200101519050600084838151811061116a5761116a6151f6565b60200260200101519050600080600061118285610801565b9250925092506111938583836137be565b8360011480156111b457508a6001600160a01b0316836001600160a01b0316145b6111d05760405162461bcd60e51b81526004016107bb9061520c565b6111dc858b8484613861565b5050505050806111eb90615256565b905061112f565b50836001600160a01b0316856001600160a01b0316336001600160a01b03167f4a39dc06d4c0dbc64b70af90fd698a233a518aa5d07e595d983b8c0526c8f7fb8686604051611242929190615271565b60405180910390a46112583386868686866138a3565b5050505050565b600061126b858561334b565b905061127781846134b5565b6000808061128484610801565b919450925090506001600160a01b038316158061133357506040516302571be360e01b81526004810185905230906001600160a01b037f000000000000000000000000000000000000000000000000000000000000000016906302571be390602401602060405180830381865afa158015611303573d6000803e3d6000fd5b505050506040513d601f19601f82011682018060405250810190611327919061529f565b6001600160a01b031614155b1561135157604051635374b59960e01b815260040160405180910390fd5b60008061135d8a610801565b909350915050896113985761137286336114cc565b61139357853360405163168ab55d60e31b81526004016107bb92919061509e565b6113c3565b6113a28a336114cc565b6113c357893360405163168ab55d60e31b81526004016107bb92919061509e565b6113ce8689846139ff565b6113d9878483613a3a565b9650620100008416158015906113fd57508363ffffffff1688851763ffffffff1614155b1561141e5760405163a2a7201360e01b8152600481018790526024016107bb565b96831796610ad586868a868b613a80565b60008261143c81336114cc565b61145d57803360405163168ab55d60e31b81526004016107bb92919061509e565b836002600061146b83610801565b5091505063ffffffff82821616156114995760405163a2a7201360e01b8152600481018490526024016107bb565b600080806114a68a610801565b9250925092506114bf8a84848c61ffff16178485613a80565b5098975050505050505050565b60008080806114da86610801565b925092509250846001600160a01b0316836001600160a01b0316148061095857506109588386612a53565b6060815183511461156a5760405162461bcd60e51b815260206004820152602960248201527f455243313135353a206163636f756e747320616e6420696473206c656e677468604482015268040dad2e6dac2e8c6d60bb1b60648201526084016107bb565b600083516001600160401b038111156115855761158561477d565b6040519080825280602002602001820160405280156115ae578160200160208202803683370190505b50905060005b8451811015611626576115f98582815181106115d2576115d26151f6565b60200260200101518583815181106115ec576115ec6151f6565b6020026020010151610753565b82828151811061160b5761160b6151f6565b602090810291909101015261161f81615256565b90506115b4565b509392505050565b6116366132f1565b60405163a9059cbb60e01b81526001600160a01b0383811660048301526024820183905284169063a9059cbb906044016020604051808303816000875af1158015611685573d6000803e3d6000fd5b505050506040513d601f19601f820116820180604052508101906116a991906152bc565b50505050565b60006107fb82613b27565b6000806116c7858561334b565b90506116d281613604565b6116ef57604051635374b59960e01b815260040160405180910390fd5b60006116fb86336108fb565b905080158015611712575061171082336114cc565b155b1561173457813360405163168ab55d60e31b81526004016107bb92919061509e565b6000808061174185610801565b925092509250831580156117585750620400008216155b156117795760405163a2a7201360e01b8152600481018690526024016107bb565b60006117848a610801565b92505050611793888383613a3a565b97506117a18685858b613b3d565b6040516001600160401b038916815286907ff675815a0817338f93a7da433f6bd5f5542f1029b11b455191ac96c7f6a9b1329060200160405180910390a2509598975050505050505050565b6117f56132f1565b6117ff6000613b53565b565b6118196000805160206156478339815191528461334b565b61182381336114cc565b61184457803360405163168ab55d60e31b81526004016107bb92919061509e565b6001600160a01b03831630141561187957604051632ca49b0d60e11b81526001600160a01b03841660048201526024016107bb565b61189a6118946000805160206156478339815191528661334b565b83613ba3565b604051632142170760e11b81523060048201526001600160a01b038481166024830152604482018690527f000000000000000000000000000000000000000000000000000000000000000016906342842e0e90606401600060405180830381600087803b15801561190a57600080fd5b505af115801561191e573d6000803e3d6000fd5b5050505050505050565b600080868660405161193b9291906152d9565b6040519081900381206331a9108f60e11b82526004820181905291506000907f00000000000000000000000000000000000000000000000000000000000000006001600160a01b031690636352211e90602401602060405180830381865afa1580156119ab573d6000803e3d6000fd5b505050506040513d601f19601f820116820180604052508101906119cf919061529f565b90506001600160a01b0381163314801590611a77575060405163e985e9c560e01b81526001600160a01b0382811660048301523360248301527f0000000000000000000000000000000000000000000000000000000000000000169063e985e9c590604401602060405180830381865afa158015611a51573d6000803e3d6000fd5b505050506040513d601f19601f82011682018060405250810190611a7591906152bc565b155b15611ab057611a946000805160206156478339815191528361334b565b3360405163168ab55d60e31b81526004016107bb92919061509e565b6040516323b872dd60e01b81526001600160a01b038281166004830152306024830152604482018490527f000000000000000000000000000000000000000000000000000000000000000016906323b872dd90606401600060405180830381600087803b158015611b2057600080fd5b505af1158015611b34573d6000803e3d6000fd5b5050604051630a3b53db60e21b81526001600160a01b037f00000000000000000000000000000000000000000000000000000000000000001692506328ed4f6c9150611b86908590309060040161509e565b600060405180830381600087803b158015611ba057600080fd5b505af1158015611bb4573d6000803e3d6000fd5b5050604051636b727d4360e11b8152600481018590526276a70092507f00000000000000000000000000000000000000000000000000000000000000006001600160a01b0316915063d6e4fa8690602401602060405180830381865afa158015611c22573d6000803e3d6000fd5b505050506040513d601f19601f82011682018060405250810190611c46919061511c565b611c50919061514b565b9250611c9988888080601f0160208091040260200160405190810160405280939291908181526020018383808284376000920191909152508a9250505061ffff881686886131d5565b505095945050505050565b336001600160a01b0383161415611d0f5760405162461bcd60e51b815260206004820152602960248201527f455243313135353a2073657474696e6720617070726f76616c20737461747573604482015268103337b91039b2b63360b91b60648201526084016107bb565b3360008181526002602090815260408083206001600160a01b03871680855290835292819020805460ff191686151590811790915590519081529192917f17307eab39ab6107e8899845ad3d59bd9653f200f220920489ca2b5937696c31910160405180910390a35050565b3360009081526004602052604081205460ff16611daa5760405162461bcd60e51b81526004016107bb906152e9565b60008787604051611dbc9291906152d9565b604051908190038120633f2891eb60e21b8252600482018190523060248301526044820187905291507f00000000000000000000000000000000000000000000000000000000000000006001600160a01b03169063fca247ac906064016020604051808303816000875af1158015611e38573d6000803e3d6000fd5b505050506040513d601f19601f82011682018060405250810190611e5c919061511c565b9150611eb188888080601f0160208091040260200160405190810160405280939291908181526020018383808284376000920191909152508a9250505061ffff8616611eab6276a7008761514b565b886131d5565b509695505050505050565b600080611ec884610801565b50841663ffffffff908116908516149250505092915050565b611ee96132f1565b6007546001600160a01b0316156120095760075460405163a22cb46560e01b81526001600160a01b039182166004820152600060248201527f00000000000000000000000000000000000000000000000000000000000000009091169063a22cb46590604401600060405180830381600087803b158015611f6957600080fd5b505af1158015611f7d573d6000803e3d6000fd5b505060075460405163a22cb46560e01b81526001600160a01b039182166004820152600060248201527f0000000000000000000000000000000000000000000000000000000000000000909116925063a22cb4659150604401600060405180830381600087803b158015611ff057600080fd5b505af1158015612004573d6000803e3d6000fd5b505050505b600780546001600160a01b0319166001600160a01b038316908117909155156121365760075460405163a22cb46560e01b81526001600160a01b039182166004820152600160248201527f00000000000000000000000000000000000000000000000000000000000000009091169063a22cb46590604401600060405180830381600087803b15801561209b57600080fd5b505af11580156120af573d6000803e3d6000fd5b505060075460405163a22cb46560e01b81526001600160a01b039182166004820152600160248201527f0000000000000000000000000000000000000000000000000000000000000000909116925063a22cb4659150604401600060405180830381600087803b15801561212257600080fd5b505af1158015611258573d6000803e3d6000fd5b50565b3360009081526004602052604081205460ff166121685760405162461bcd60e51b81526004016107bb906152e9565b60006121826000805160206156478339815191528561334b565b60405163c475abff60e01b815260048101869052602481018590529091506000906001600160a01b037f0000000000000000000000000000000000000000000000000000000000000000169063c475abff906044016020604051808303816000875af11580156121f6573d6000803e3d6000fd5b505050506040513d601f19601f8201168201806040525081019061221a919061511c565b6040516331a9108f60e11b8152600481018790529091507f00000000000000000000000000000000000000000000000000000000000000006001600160a01b031690636352211e90602401602060405180830381865afa92505050801561229e575060408051601f3d908101601f1916820190925261229b9181019061529f565b60015b6122ab5791506107fb9050565b6001600160a01b0381163014158061235557506040516302571be360e01b81526004810184905230906001600160a01b037f000000000000000000000000000000000000000000000000000000000000000016906302571be390602401602060405180830381865afa158015612325573d6000803e3d6000fd5b505050506040513d601f19601f82011682018060405250810190612349919061529f565b6001600160a01b031614155b15612364575091506107fb9050565b5060006123746276a7008361514b565b60008481526001602052604090205490915060a081901c61239785838386613b3d565b50919695505050505050565b6000866123b081336114cc565b6123d157803360405163168ab55d60e31b81526004016107bb92919061509e565b600087876040516123e39291906152d9565b604051809103902090506123f7898261334b565b92506124038984613377565b61240d83866134b5565b60006124508a858b8b8080601f0160208091040260200160405190810160405280939291908181526020018383808284376000920191909152506134e892505050565b905061245e8a8588886135be565b945061246984613604565b612518576040516306ab592360e01b8152600481018b9052602481018390523060448201527f00000000000000000000000000000000000000000000000000000000000000006001600160a01b0316906306ab5923906064016020604051808303816000875af11580156124e1573d6000803e3d6000fd5b505050506040513d601f19601f82011682018060405250810190612505919061511c565b506125138482898989613c93565b61255e565b61255e8a858b8b8080601f0160208091040260200160405190810160405280939291908181526020018383808284376000920191909152508d92508c91508b90506136f4565b5050509695505050505050565b60006125b1600086868080601f0160208091040260200160405190810160405280939291908181526020018383808284376000920191909152509293925050613cd59050565b6007549091506001600160a01b03166125dd5760405163093075b560e21b815260040160405180910390fd5b6125e781336114cc565b61260857803360405163168ab55d60e31b81526004016107bb92919061509e565b6000808061261584610801565b91945092509050600061262785610871565b905061263285613d94565b600760009054906101000a90046001600160a01b03166001600160a01b0316639198c2768a8a878787878e8e6040518963ffffffff1660e01b815260040161268198979695949392919061535a565b600060405180830381600087803b15801561269b57600080fd5b505af11580156126af573d6000803e3d6000fd5b50505050505050505050505050565b836126c981336114cc565b6126ea57803360405163168ab55d60e31b81526004016107bb92919061509e565b84601c60006126f883610801565b5091505063ffffffff82821616156127265760405163a2a7201360e01b8152600481018490526024016107bb565b60405163cf40882360e01b8152600481018990523060248201526001600160a01b0387811660448301526001600160401b03871660648301527f0000000000000000000000000000000000000000000000000000000000000000169063cf40882390608401600060405180830381600087803b1580156127a557600080fd5b505af11580156127b9573d6000803e3d6000fd5b505050506001600160a01b03871661281c5760006127d689610801565b5091505062020000808216141561280b57604051632ca49b0d60e11b81526001600160a01b03891660048201526024016107bb565b612816896000613ba3565b5061191e565b6000612827896116af565b905061284981898b60001c600160405180602001604052806000815250613e34565b505050505050505050565b61285e838361334b565b61286881336114cc565b61288957803360405163168ab55d60e31b81526004016107bb92919061509e565b6000805160206156478339815191528414156128b85760405163615a470360e01b815260040160405180910390fd5b6001600160a01b03821615806128d657506001600160a01b03821630145b156128ff57604051632ca49b0d60e11b81526001600160a01b03831660048201526024016107bb565b6116a9611894858561334b565b600080612919848461334b565b9050600061292682613604565b905060008051602061564783398151915285146129465791506107fb9050565b6040516331a9108f60e11b8152600481018590527f00000000000000000000000000000000000000000000000000000000000000006001600160a01b031690636352211e90602401602060405180830381865afa9250505080156129c7575060408051601f3d908101601f191682019092526129c49181019061529f565b60015b6129d6576000925050506107fb565b6001600160a01b0316301492506107fb915050565b6129f36132f1565b6001600160a01b038216600081815260046020908152604091829020805460ff191685151590811790915591519182527f4c97694570a07277810af7e5669ffd5f6a2d6b74b6e9a274b8b870fd5114cf8791015b60405180910390a25050565b6001600160a01b03918216600090815260026020908152604080832093909416825291909152205460ff1690565b600080612ac8600087878080601f0160208091040260200160405190810160405280939291908181526020018383808284376000920191909152509293925050613f179050565b915091506000612b118288888080601f0160208091040260200160405190810160405280939291908181526020018383808284376000920191909152509293925050613cd59050565b90506000612b1f828561334b565b6000818152600660205260409020909150612b3b908989614429565b50600080516020615647833981519152821415612b6b5760405163615a470360e01b815260040160405180910390fd5b6040516302571be360e01b8152600481018290526000907f00000000000000000000000000000000000000000000000000000000000000006001600160a01b0316906302571be390602401602060405180830381865afa158015612bd3573d6000803e3d6000fd5b505050506040513d601f19601f82011682018060405250810190612bf7919061529f565b90506001600160a01b0381163314801590612c9f575060405163e985e9c560e01b81526001600160a01b0382811660048301523360248301527f0000000000000000000000000000000000000000000000000000000000000000169063e985e9c590604401602060405180830381865afa158015612c79573d6000803e3d6000fd5b505050506040513d601f19601f82011682018060405250810190612c9d91906152bc565b155b15612cc157813360405163168ab55d60e31b81526004016107bb92919061509e565b6001600160a01b03861615612d5157604051630c4b7b8560e11b81526001600160a01b037f00000000000000000000000000000000000000000000000000000000000000001690631896f70a90612d1e9085908a9060040161509e565b600060405180830381600087803b158015612d3857600080fd5b505af1158015612d4c573d6000803e3d6000fd5b505050505b604051635b0fc9c360e01b81526001600160a01b037f00000000000000000000000000000000000000000000000000000000000000001690635b0fc9c390612d9f908590309060040161509e565b600060405180830381600087803b158015612db957600080fd5b505af1158015612dcd573d6000803e3d6000fd5b50505050612849828a8a8080601f01602080910402602001604051908101604052809392919081815260200183838082843760009201829052508d93509150819050613c93565b6001600160a01b038416612e3a5760405162461bcd60e51b81526004016107bb906151b1565b6001600160a01b038516331480612e565750612e568533612a53565b612eb45760405162461bcd60e51b815260206004820152602960248201527f455243313135353a2063616c6c6572206973206e6f74206f776e6572206e6f7260448201526808185c1c1c9bdd995960ba1b60648201526084016107bb565b6112588585858585613e34565b612ec96132f1565b6001600160a01b038116612f2e5760405162461bcd60e51b815260206004820152602660248201527f4f776e61626c653a206e6577206f776e657220697320746865207a65726f206160448201526564647265737360d01b60648201526084016107bb565b61213681613b53565b60008181526006602052604081208054829190612f5390615176565b80601f0160208091040260200160405190810160405280929190818152602001828054612f7f90615176565b8015612fcc5780601f10612fa157610100808354040283529160200191612fcc565b820191906000526020600020905b815481529060010190602001808311612faf57829003601f168201915b50505050509050805160001415612fe65750600092915050565b600080612ff38382613f17565b909250905060006130048483613cd5565b905061096b818461290c565b60008042836001600160401b0316101561303b5762010000848116141561303657600094505b600093505b50929391925050565b60006001600160e01b03198216636cdb3d1360e11b148061307557506001600160e01b031982166303a24d0760e21b145b806107fb57506301ffc9a760e01b6001600160e01b03198316146107fb565b600061309f826116af565b9050806001600160a01b0316836001600160a01b0316141561310d5760405162461bcd60e51b815260206004820152602160248201527f4552433732313a20617070726f76616c20746f2063757272656e74206f776e656044820152603960f91b60648201526084016107bb565b336001600160a01b038216148061312957506131298133612a53565b61319b5760405162461bcd60e51b815260206004820152603d60248201527f4552433732313a20617070726f76652063616c6c6572206973206e6f7420746f60448201527f6b656e206f776e6572206f7220617070726f76656420666f7220616c6c00000060648201526084016107bb565b6108f68383613fce565b6000620200008381161480156108af5750426131c46276a700846153c2565b6001600160401b0316109392505050565b8451602086012060006131f66000805160206156478339815191528361334b565b90506000613221886040518060400160405280600681526020016403746f6d6f60d81b81525061403c565b600083815260066020908152604090912082519293506132459290918401906144ad565b50613258828289620300008a1789613c93565b6001600160a01b0384161561191e57604051630c4b7b8560e11b81526001600160a01b037f00000000000000000000000000000000000000000000000000000000000000001690631896f70a906132b5908590889060040161509e565b600060405180830381600087803b1580156132cf57600080fd5b505af11580156132e3573d6000803e3d6000fd5b505050505050505050505050565b6000546001600160a01b031633146117ff5760405162461bcd60e51b815260206004820181905260248201527f4f776e61626c653a2063616c6c6572206973206e6f7420746865206f776e657260448201526064016107bb565b604080516020808201949094528082019290925280518083038201815260609092019052805191012090565b6000808061338484610801565b91945092509050426001600160401b0382161080801561344757506001600160a01b038416158061344757506040516302571be360e01b8152600481018690526000906001600160a01b037f000000000000000000000000000000000000000000000000000000000000000016906302571be390602401602060405180830381865afa158015613418573d6000803e3d6000fd5b505050506040513d601f19601f8201168201806040525081019061343c919061529f565b6001600160a01b0316145b1561348657600061345787610801565b5091505060208116156134805760405163a2a7201360e01b8152600481018790526024016107bb565b506134ad565b620100008316156134ad5760405163a2a7201360e01b8152600481018690526024016107bb565b505050505050565b63fffdffff81811763ffffffff16146134e45760405163a2a7201360e01b8152600481018390526024016107bb565b5050565b606060006135918360066000888152602001908152602001600020805461350e90615176565b80601f016020809104026020016040519081016040528092919081815260200182805461353a90615176565b80156135875780601f1061355c57610100808354040283529160200191613587565b820191906000526020600020905b81548152906001019060200180831161356a57829003601f168201915b505050505061403c565b600085815260066020908152604090912082519293506135b59290918401906144ad565b50949350505050565b6000806135ca85610801565b925050506000806135dd8860001c610801565b92509250506135ed8787846139ff565b6135f8858483613a3a565b98975050505050505050565b600080613610836116af565b6001600160a01b0316141580156107fb57506040516302571be360e01b81526004810183905230906001600160a01b037f000000000000000000000000000000000000000000000000000000000000000016906302571be390602401602060405180830381865afa158015613689573d6000803e3d6000fd5b505050506040513d601f19601f820116820180604052508101906136ad919061529f565b6001600160a01b03161492915050565b600086815260066020526040812080546136dc91879161350e90615176565b90506136eb8682868686613c93565b50505050505050565b6000808061370188610801565b925092509250600061372b88600660008d8152602001908152602001600020805461350e90615176565b60008a815260066020526040902080549192509061374890615176565b15159050613771576000898152600660209081526040909120825161376f928401906144ad565b505b61378089858886178589613a80565b6001600160a01b03871661379e57613799896000613ba3565b610ad5565b610ad584888b60001c600160405180602001604052806000815250613e34565b6202000082811614156137db576137d86276a700826153c2565b90505b42816001600160401b03161015613814576201000082161561380f5760405162461bcd60e51b81526004016107bb9061520c565b613839565b60048216156138395760405163a2a7201360e01b8152600481018490526024016107bb565b604082166108f6575050600090815260036020526040902080546001600160a01b0319169055565b60c0816001600160401b0316901b60a08363ffffffff16901b846001600160a01b03161717600160008681526020019081526020016000208190555050505050565b6001600160a01b0384163b156134ad5760405163bc197c8160e01b81526001600160a01b0385169063bc197c81906138e790899089908890889088906004016153ea565b6020604051808303816000875af1925050508015613922575060408051601f3d908101601f1916820190925261391f9181019061543c565b60015b6139cf5761392e615459565b806308c379a014156139685750613943615475565b8061394e575061396a565b8060405162461bcd60e51b81526004016107bb919061461b565b505b60405162461bcd60e51b815260206004820152603460248201527f455243313135353a207472616e7366657220746f206e6f6e20455243313135356044820152732932b1b2b4bb32b91034b6b83632b6b2b73a32b960611b60648201526084016107bb565b6001600160e01b0319811663bc197c8160e01b146136eb5760405162461bcd60e51b81526004016107bb906154fe565b63ffff00008216158015906001831615908290613a195750805b156112585760405163a2a7201360e01b8152600481018690526024016107bb565b6000816001600160401b0316846001600160401b03161115613a5a578193505b826001600160401b0316846001600160401b03161015613a78578293505b509192915050565b613a8c85858584613b3d565b60405163ffffffff8416815285907f39873f00c80f4f94b7bd1594aebcf650f003545b74824d57ddf4939e3ff3a34b9060200160405180910390a2816001600160401b0316816001600160401b03161115611258576040516001600160401b038216815285907ff675815a0817338f93a7da433f6bd5f5542f1029b11b455191ac96c7f6a9b132906020015b60405180910390a25050505050565b600080613b3383610801565b5090949350505050565b613b4784836140b3565b6116a984848484613861565b600080546001600160a01b038381166001600160a01b0319831681178455604051919092169283917f8be0079c531659141344cd1fd0a4f28419497f9722a3daafe3b4186f6b6457e09190a35050565b613bae826001611ebc565b15613bcf5760405163a2a7201360e01b8152600481018390526024016107bb565b613bd882613d94565b604051635b0fc9c360e01b81526001600160a01b037f00000000000000000000000000000000000000000000000000000000000000001690635b0fc9c390613c26908590859060040161509e565b600060405180830381600087803b158015613c4057600080fd5b505af1158015613c54573d6000803e3d6000fd5b50506040516001600160a01b03841681528492507fee2ba1195c65bcf218a83d874335c6bf9d9067b4c672f3c3bf16cf40de7586c49150602001612a47565b613c9f858484846140ec565b847f8ce7013e8abebc55c3890a68f5a27c67c3f7efa64e584de5fb22363c606fd34085858585604051613b189493929190615546565b6000806000613ce48585613f17565b909250905081613d565760018551613cfc919061558d565b8414613d4a5760405162461bcd60e51b815260206004820152601d60248201527f6e616d65686173683a204a756e6b20617420656e64206f66206e616d6500000060448201526064016107bb565b50600091506107fb9050565b613d608582613cd5565b6040805160208101929092528101839052606001604051602081830303815290604052805190602001209250505092915050565b60008181526001602052604090205460a081901c60c082901c613db8838383613010565b600086815260036020526040812080546001600160a01b0319169055909350613de5915085908484613861565b60408051858152600160208201526000916001600160a01b0386169133917fc3d58168c5ae7397731d063d5bbf3d657854427343f4c083240f7aacaa2d0f62910160405180910390a450505050565b6000806000613e4286610801565b925092509250613e538683836137be565b846001148015613e745750876001600160a01b0316836001600160a01b0316145b613e905760405162461bcd60e51b81526004016107bb9061520c565b866001600160a01b0316836001600160a01b03161415613eb257505050611258565b613ebe86888484613861565b60408051878152602081018790526001600160a01b03808a1692908b169133917fc3d58168c5ae7397731d063d5bbf3d657854427343f4c083240f7aacaa2d0f62910160405180910390a461191e338989898989614160565b60008083518310613f6a5760405162461bcd60e51b815260206004820152601e60248201527f726561644c6162656c3a20496e646578206f7574206f6620626f756e6473000060448201526064016107bb565b6000848481518110613f7e57613f7e6151f6565b016020015160f81c90508015613faa57613fa385613f9d8660016155a4565b8361421b565b9250613faf565b600092505b613fb981856155a4565b613fc49060016155a4565b9150509250929050565b600081815260036020526040902080546001600160a01b0319166001600160a01b0384169081179091558190614003826116af565b6001600160a01b03167f8c5be1e5ebec7d5bd14f71427d1e84f3dd0314c0f7b2291e5b200ac8c7c3b92560405160405180910390a45050565b606060018351101561406157604051631406d65b60e11b815260040160405180910390fd5b60ff83511115614086578260405163e3ba295f60e01b81526004016107bb919061461b565b8251838360405160200161409c939291906155bc565b604051602081830303815290604052905092915050565b61ffff8116158015906140cb57506201000181811614155b156134e45760405163a2a7201360e01b8152600481018390526024016107bb565b6140f684836140b3565b6000848152600160205260409020546001600160a01b038116156141545761411d85613d94565b6040516000815285907fee2ba1195c65bcf218a83d874335c6bf9d9067b4c672f3c3bf16cf40de7586c49060200160405180910390a25b6112588585858561423f565b6001600160a01b0384163b156134ad5760405163f23a6e6160e01b81526001600160a01b0385169063f23a6e61906141a49089908990889088908890600401615601565b6020604051808303816000875af19250505080156141df575060408051601f3d908101601f191682019092526141dc9181019061543c565b60015b6141eb5761392e615459565b6001600160e01b0319811663f23a6e6160e01b146136eb5760405162461bcd60e51b81526004016107bb906154fe565b825160009061422a83856155a4565b111561423557600080fd5b5091016020012090565b836000808061424d84610801565b9194509250905063ffff000082166001600160401b038087169083161115614273578195505b42826001600160401b03161061428857958617955b6001600160a01b038416156142df5760405162461bcd60e51b815260206004820152601f60248201527f455243313135353a206d696e74206f66206578697374696e6720746f6b656e0060448201526064016107bb565b6001600160a01b03881661433f5760405162461bcd60e51b815260206004820152602160248201527f455243313135353a206d696e7420746f20746865207a65726f206164647265736044820152607360f81b60648201526084016107bb565b6001600160a01b0388163014156143b55760405162461bcd60e51b815260206004820152603460248201527f455243313135353a206e65774f776e65722063616e6e6f74206265207468652060448201527313985b5955dc985c1c195c8818dbdb9d1c9858dd60621b60648201526084016107bb565b6143c185898989613861565b60408051868152600160208201526001600160a01b038a169160009133917fc3d58168c5ae7397731d063d5bbf3d657854427343f4c083240f7aacaa2d0f62910160405180910390a46128493360008a88600160405180602001604052806000815250614160565b82805461443590615176565b90600052602060002090601f016020900481019282614457576000855561449d565b82601f106144705782800160ff1982351617855561449d565b8280016001018555821561449d579182015b8281111561449d578235825591602001919060010190614482565b506144a9929150614521565b5090565b8280546144b990615176565b90600052602060002090601f0160209004810192826144db576000855561449d565b82601f106144f457805160ff191683800117855561449d565b8280016001018555821561449d579182015b8281111561449d578251825591602001919060010190614506565b5b808211156144a95760008155600101614522565b6001600160a01b038116811461213657600080fd5b6000806040838503121561455e57600080fd5b823561456981614536565b946020939093013593505050565b60006020828403121561458957600080fd5b5035919050565b6001600160e01b03198116811461213657600080fd5b6000602082840312156145b857600080fd5b81356108af81614590565b60005b838110156145de5781810151838201526020016145c6565b838111156116a95750506000910152565b600081518084526146078160208601602086016145c3565b601f01601f19169290920160200192915050565b6020815260006108af60208301846145ef565b6000806040838503121561464157600080fd5b82359150602083013561465381614536565b809150509250929050565b80356001600160401b038116811461467557600080fd5b919050565b6000806040838503121561468d57600080fd5b8235915061469d6020840161465e565b90509250929050565b60008083601f8401126146b857600080fd5b5081356001600160401b038111156146cf57600080fd5b6020830191508360208285010111156146e757600080fd5b9250929050565b60008060008060006080868803121561470657600080fd5b853561471181614536565b9450602086013561472181614536565b93506040860135925060608601356001600160401b0381111561474357600080fd5b61474f888289016146a6565b969995985093965092949392505050565b60006020828403121561477257600080fd5b81356108af81614536565b634e487b7160e01b600052604160045260246000fd5b601f8201601f191681016001600160401b03811182821017156147b8576147b861477d565b6040525050565b60006001600160401b038211156147d8576147d861477d565b50601f01601f191660200190565b600082601f8301126147f757600080fd5b8135614802816147bf565b60405161480f8282614793565b82815285602084870101111561482457600080fd5b82602086016020830137600092810160200192909252509392505050565b803563ffffffff8116811461467557600080fd5b600080600080600080600060e0888a03121561487157600080fd5b8735965060208801356001600160401b0381111561488e57600080fd5b61489a8a828b016147e6565b96505060408801356148ab81614536565b945060608801356148bb81614536565b93506148c96080890161465e565b92506148d760a08901614842565b91506148e560c0890161465e565b905092959891949750929550565b60006001600160401b0382111561490c5761490c61477d565b5060051b60200190565b600082601f83011261492757600080fd5b81356020614934826148f3565b6040516149418282614793565b83815260059390931b850182019282810191508684111561496157600080fd5b8286015b84811015611eb15780358352918301918301614965565b600080600080600060a0868803121561499457600080fd5b853561499f81614536565b945060208601356149af81614536565b935060408601356001600160401b03808211156149cb57600080fd5b6149d789838a01614916565b945060608801359150808211156149ed57600080fd5b6149f989838a01614916565b93506080880135915080821115614a0f57600080fd5b50614a1c888289016147e6565b9150509295509295909350565b60008060008060808587031215614a3f57600080fd5b8435935060208501359250614a5660408601614842565b9150614a646060860161465e565b905092959194509250565b803561ffff8116811461467557600080fd5b60008060408385031215614a9457600080fd5b8235915061469d60208401614a6f565b60008060408385031215614ab757600080fd5b82356001600160401b0380821115614ace57600080fd5b818501915085601f830112614ae257600080fd5b81356020614aef826148f3565b604051614afc8282614793565b83815260059390931b8501820192828101915089841115614b1c57600080fd5b948201945b83861015614b43578535614b3481614536565b82529482019490820190614b21565b96505086013592505080821115614b5957600080fd5b50613fc485828601614916565b600081518084526020808501945080840160005b83811015614b9657815187529582019590820190600101614b7a565b509495945050505050565b6020815260006108af6020830184614b66565b600080600060608486031215614bc957600080fd5b8335614bd481614536565b92506020840135614be481614536565b929592945050506040919091013590565b600080600060608486031215614c0a57600080fd5b8335925060208401359150614c216040850161465e565b90509250925092565b600080600060608486031215614c3f57600080fd5b833592506020840135614c5181614536565b91506040840135614c6181614536565b809150509250925092565b600080600080600060808688031215614c8457600080fd5b85356001600160401b03811115614c9a57600080fd5b614ca6888289016146a6565b9096509450506020860135614cba81614536565b9250614cc860408701614a6f565b91506060860135614cd881614536565b809150509295509295909350565b801515811461213657600080fd5b60008060408385031215614d0757600080fd5b8235614d1281614536565b9150602083013561465381614ce6565b60008060008060008060a08789031215614d3b57600080fd5b86356001600160401b03811115614d5157600080fd5b614d5d89828a016146a6565b9097509550506020870135614d7181614536565b9350604087013592506060870135614d8881614536565b9150614d9660808801614a6f565b90509295509295509295565b60008060408385031215614db557600080fd5b8235915061469d60208401614842565b60008060408385031215614dd857600080fd5b50508035926020909101359150565b60008060008060008060a08789031215614e0057600080fd5b8635955060208701356001600160401b03811115614e1d57600080fd5b614e2989828a016146a6565b9096509450506040870135614e3d81614536565b9250614e4b60608801614842565b9150614d966080880161465e565b60008060008060408587031215614e6f57600080fd5b84356001600160401b0380821115614e8657600080fd5b614e92888389016146a6565b90965094506020870135915080821115614eab57600080fd5b50614eb8878288016146a6565b95989497509550505050565b60008060008060808587031215614eda57600080fd5b843593506020850135614eec81614536565b92506040850135614a5681614536565b600080600060608486031215614f1157600080fd5b83359250602084013591506040840135614c6181614536565b60008060408385031215614f3d57600080fd5b8235614f4881614536565b9150602083013561465381614536565b60008060008060608587031215614f6e57600080fd5b84356001600160401b03811115614f8457600080fd5b614f90878288016146a6565b9095509350506020850135614fa481614536565b91506040850135614fb481614536565b939692955090935050565b600080600080600060a08688031215614fd757600080fd5b8535614fe281614536565b94506020860135614ff281614536565b9350604086013592506060860135915060808601356001600160401b0381111561501b57600080fd5b614a1c888289016147e6565b60006020828403121561503957600080fd5b81516001600160401b0381111561504f57600080fd5b8201601f8101841361506057600080fd5b805161506b816147bf565b6040516150788282614793565b82815286602084860101111561508d57600080fd5b61096b8360208301602087016145c3565b9182526001600160a01b0316602082015260400190565b600080600080608085870312156150cb57600080fd5b84356001600160401b038111156150e157600080fd5b6150ed878288016147e6565b94505060208501356150fe81614536565b925061510c60408601614a6f565b91506060850135614fb481614536565b60006020828403121561512e57600080fd5b5051919050565b634e487b7160e01b600052601160045260246000fd5b60006001600160401b0380831681851680830382111561516d5761516d615135565b01949350505050565b600181811c9082168061518a57607f821691505b602082108114156151ab57634e487b7160e01b600052602260045260246000fd5b50919050565b60208082526025908201527f455243313135353a207472616e7366657220746f20746865207a65726f206164604082015264647265737360d81b606082015260800190565b634e487b7160e01b600052603260045260246000fd5b6020808252602a908201527f455243313135353a20696e73756666696369656e742062616c616e636520666f60408201526939103a3930b739b332b960b11b606082015260800190565b600060001982141561526a5761526a615135565b5060010190565b6040815260006152846040830185614b66565b82810360208401526152968185614b66565b95945050505050565b6000602082840312156152b157600080fd5b81516108af81614536565b6000602082840312156152ce57600080fd5b81516108af81614ce6565b8183823760009101908152919050565b60208082526028908201527f436f6e74726f6c6c61626c653a2043616c6c6572206973206e6f74206120636f604082015267373a3937b63632b960c11b606082015260800190565b81835281816020850137506000828201602090810191909152601f909101601f19169091010190565b60c08152600061536e60c083018a8c615331565b6001600160a01b03898116602085015263ffffffff891660408501526001600160401b03881660608501528616608084015282810360a08401526153b3818587615331565b9b9a5050505050505050505050565b60006001600160401b03838116908316818110156153e2576153e2615135565b039392505050565b6001600160a01b0386811682528516602082015260a06040820181905260009061541690830186614b66565b82810360608401526154288186614b66565b905082810360808401526135f881856145ef565b60006020828403121561544e57600080fd5b81516108af81614590565b600060033d11156154725760046000803e5060005160e01c5b90565b600060443d10156154835790565b6040516003193d81016004833e81513d6001600160401b0381602484011181841117156154b257505050505090565b82850191508151818111156154ca5750505050505090565b843d87010160208285010111156154e45750505050505090565b6154f360208286010187614793565b509095945050505050565b60208082526028908201527f455243313135353a204552433131353552656365697665722072656a656374656040820152676420746f6b656e7360c01b606082015260800190565b60808152600061555960808301876145ef565b6001600160a01b039590951660208301525063ffffffff9290921660408301526001600160401b0316606090910152919050565b60008282101561559f5761559f615135565b500390565b600082198211156155b7576155b7615135565b500190565b60ff60f81b8460f81b168152600083516155dd8160018501602088016145c3565b8351908301906155f48160018401602088016145c3565b0160010195945050505050565b6001600160a01b03868116825285166020820152604081018490526060810183905260a06080820181905260009061563b908301846145ef565b97965050505050505056feee7289196899d8c5bc40150453f87a5ebf33e301b7ed2537d6cc0ba5caeadcd5a2646970667358221220cfe11fc18f02abb46ec4dd0bb3d5044780eb36e4d2cb52e017b5dc1f585346c364736f6c634300080c0033",
  "devdoc": {
    "kind": "dev",
    "methods": {
      "allFusesBurned(bytes32,uint32)": {
        "params": {
          "fuseMask": "The fuses you want to check",
          "node": "Namehash of the name"
        },
        "returns": {
          "_0": "Boolean of whether or not all the selected fuses are burned"
        }
      },
      "approve(address,uint256)": {
        "params": {
          "to": "address to approve",
          "tokenId": "name to approve"
        }
      },
      "balanceOf(address,uint256)": {
        "details": "See {IERC1155-balanceOf}. Requirements: - `account` cannot be the zero address."
      },
      "balanceOfBatch(address[],uint256[])": {
        "details": "See {IERC1155-balanceOfBatch}. Requirements: - `accounts` and `ids` must have the same length."
      },
      "canExtendSubnames(bytes32,address)": {
        "params": {
          "addr": "which address to check permissions for",
          "node": "namehash of the name to check"
        },
        "returns": {
          "_0": "whether or not is owner/operator or approved"
        }
      },
      "canModifyName(bytes32,address)": {
        "params": {
          "addr": "which address to check permissions for",
          "node": "namehash of the name to check"
        },
        "returns": {
          "_0": "whether or not is owner or operator"
        }
      },
      "extendExpiry(bytes32,bytes32,uint64)": {
        "params": {
          "expiry": "When the name will expire in seconds since the Unix epoch",
          "labelhash": "Labelhash of the name, e.g. vitalik.xyz would be keccak256('vitalik')",
          "parentNode": "Parent namehash of the name e.g. vitalik.xyz would be namehash('xyz')"
        },
        "returns": {
          "_0": "New expiry"
        }
      },
      "getApproved(uint256)": {
        "params": {
          "id": "Namehash of the name"
        },
        "returns": {
          "operator": "Approved operator of a name"
        }
      },
      "getData(uint256)": {
        "params": {
          "id": "Namehash of the name"
        },
        "returns": {
          "expiry": "Expiry of the name",
          "fuses": "Fuses of the name",
          "owner": "Owner of the name"
        }
      },
      "isApprovedForAll(address,address)": {
        "details": "See {IERC1155-isApprovedForAll}."
      },
      "isWrapped(bytes32)": {
        "params": {
          "node": "Namehash of the name"
        },
        "returns": {
          "_0": "Boolean of whether or not the name is wrapped"
        }
      },
      "isWrapped(bytes32,bytes32)": {
        "params": {
          "labelhash": "Namehash of the name",
          "parentNode": "Namehash of the name"
        },
        "returns": {
          "_0": "Boolean of whether or not the name is wrapped"
        }
      },
      "owner()": {
        "details": "Returns the address of the current owner."
      },
      "ownerOf(uint256)": {
        "params": {
          "id": "Label as a string of the .eth domain to wrap"
        },
        "returns": {
          "owner": "The owner of the name"
        }
      },
      "recoverFunds(address,address,uint256)": {
        "details": "The contract is Ownable and only the owner can call the recover function.",
        "params": {
          "_amount": "The amount of tokens to recover.",
          "_to": "The address to send the tokens to.",
          "_token": "The address of the ERC20 token to recover"
        }
      },
      "registerAndWrapETH2LD(string,address,uint256,address,uint16)": {
        "details": "Registers a new .eth second-level domain and wraps it.      Only callable by authorised controllers.",
        "params": {
          "duration": "The duration, in seconds, to register the name for.",
          "label": "The label to register (Eg, 'foo' for 'foo.eth').",
          "ownerControlledFuses": "Initial owner-controlled fuses to set",
          "resolver": "The resolver address to set on the ENS registry (optional).",
          "wrappedOwner": "The owner of the wrapped name."
        },
        "returns": {
          "registrarExpiry": "The expiry date of the new name on the .eth registrar, in seconds since the Unix epoch."
        }
      },
      "renew(uint256,uint256)": {
        "details": "Only callable by authorised controllers.",
        "params": {
          "duration": "The number of seconds to renew the name for.",
          "tokenId": "The hash of the label to register (eg, `keccak256('foo')`, for 'foo.eth')."
        },
        "returns": {
          "expires": "The expiry date of the name on the .eth registrar, in seconds since the Unix epoch."
        }
      },
      "renounceOwnership()": {
        "details": "Leaves the contract without owner. It will not be possible to call `onlyOwner` functions. Can only be called by the current owner. NOTE: Renouncing ownership will leave the contract without an owner, thereby disabling any functionality that is only available to the owner."
      },
      "safeBatchTransferFrom(address,address,uint256[],uint256[],bytes)": {
        "details": "See {IERC1155-safeBatchTransferFrom}."
      },
      "safeTransferFrom(address,address,uint256,uint256,bytes)": {
        "details": "See {IERC1155-safeTransferFrom}."
      },
      "setApprovalForAll(address,bool)": {
        "details": "See {IERC1155-setApprovalForAll}."
      },
      "setChildFuses(bytes32,bytes32,uint32,uint64)": {
        "params": {
          "expiry": "When the name will expire in seconds since the Unix epoch",
          "fuses": "Fuses to burn",
          "labelhash": "Labelhash of the name, e.g. vitalik.xyz would be keccak256('vitalik')",
          "parentNode": "Parent namehash of the name e.g. vitalik.xyz would be namehash('xyz')"
        }
      },
      "setFuses(bytes32,uint16)": {
        "params": {
          "node": "Namehash of the name",
          "ownerControlledFuses": "Owner-controlled fuses to burn"
        },
        "returns": {
          "_0": "Old fuses"
        }
      },
      "setMetadataService(address)": {
        "params": {
          "_metadataService": "The new metadata service"
        }
      },
      "setRecord(bytes32,address,address,uint64)": {
        "params": {
          "node": "Namehash of the name to set a record for",
          "owner": "New owner in the registry",
          "resolver": "Resolver contract",
          "ttl": "Time to live in the registry"
        }
      },
      "setResolver(bytes32,address)": {
        "params": {
          "node": "namehash of the name",
          "resolver": "the resolver contract"
        }
      },
      "setSubnodeOwner(bytes32,string,address,uint32,uint64)": {
        "params": {
          "expiry": "When the name will expire in seconds since the Unix epoch",
          "fuses": "Initial fuses for the wrapped subdomain",
          "label": "Label of the subdomain as a string",
          "owner": "New owner in the wrapper",
          "parentNode": "Parent namehash of the subdomain"
        },
        "returns": {
          "node": "Namehash of the subdomain"
        }
      },
      "setSubnodeRecord(bytes32,string,address,address,uint64,uint32,uint64)": {
        "params": {
          "expiry": "When the name will expire in seconds since the Unix epoch",
          "fuses": "initial fuses for the wrapped subdomain",
          "label": "label of the subdomain as a string",
          "owner": "new owner in the wrapper",
          "parentNode": "parent namehash of the subdomain",
          "resolver": "resolver contract in the registry",
          "ttl": "ttl in the registry"
        },
        "returns": {
          "node": "Namehash of the subdomain"
        }
      },
      "setTTL(bytes32,uint64)": {
        "params": {
          "node": "Namehash of the name",
          "ttl": "TTL in the registry"
        }
      },
      "setUpgradeContract(address)": {
        "details": "The default value of upgradeContract is the 0 address. Use the 0 address at any time to make the contract not upgradable.",
        "params": {
          "_upgradeAddress": "address of an upgraded contract"
        }
      },
      "transferOwnership(address)": {
        "details": "Transfers ownership of the contract to a new account (`newOwner`). Can only be called by the current owner."
      },
      "unwrap(bytes32,bytes32,address)": {
        "details": "Can be called by the owner in the wrapper or an authorised caller in the wrapper",
        "params": {
          "controller": "Sets the owner in the registry to this address",
          "labelhash": "Labelhash of the name, e.g. vitalik.xyz would be keccak256('vitalik')",
          "parentNode": "Parent namehash of the name e.g. vitalik.xyz would be namehash('xyz')"
        }
      },
      "unwrapETH2LD(bytes32,address,address)": {
        "details": "Can be called by the owner in the wrapper or an authorised caller in the wrapper",
        "params": {
          "controller": "Sets the owner in the registry to this address",
          "labelhash": "Labelhash of the .eth domain",
          "registrant": "Sets the owner in the .eth registrar to this address"
        }
      },
      "upgrade(bytes,bytes)": {
        "details": "Can be called by the owner or an authorised caller",
        "params": {
          "extraData": "Extra data to pass to the upgrade contract",
          "name": "The name to upgrade, in DNS format"
        }
      },
      "uri(uint256)": {
        "params": {
          "tokenId": "The id of the token"
        },
        "returns": {
          "_0": "string uri of the metadata service"
        }
      },
      "wrap(bytes,address,address)": {
        "details": "Can be called by the owner in the registry or an authorised caller in the registry",
        "params": {
          "name": "The name to wrap, in DNS format",
          "resolver": "Resolver contract",
          "wrappedOwner": "Owner of the name in this contract"
        }
      },
      "wrapETH2LD(string,address,uint16,address)": {
        "details": "Can be called by the owner of the name on the .eth registrar or an authorised caller on the registrar",
        "params": {
          "label": "Label as a string of the .eth domain to wrap",
          "ownerControlledFuses": "Initial owner-controlled fuses to set",
          "resolver": "Resolver contract address",
          "wrappedOwner": "Owner of the name in this contract"
        }
      }
    },
    "version": 1
  },
  "userdoc": {
    "kind": "user",
    "methods": {
      "allFusesBurned(bytes32,uint32)": {
        "notice": "Checks all Fuses in the mask are burned for the node"
      },
      "approve(address,uint256)": {
        "notice": "Approves an address for a name"
      },
      "canExtendSubnames(bytes32,address)": {
        "notice": "Checks if owner/operator or approved by owner"
      },
      "canModifyName(bytes32,address)": {
        "notice": "Checks if owner or operator of the owner"
      },
      "extendExpiry(bytes32,bytes32,uint64)": {
        "notice": "Extends expiry for a name"
      },
      "getApproved(uint256)": {
        "notice": "Gets the owner of a name"
      },
      "getData(uint256)": {
        "notice": "Gets the data for a name"
      },
      "isWrapped(bytes32)": {
        "notice": "Checks if a name is wrapped"
      },
      "isWrapped(bytes32,bytes32)": {
        "notice": "Checks if a name is wrapped in a more gas efficient way"
      },
      "ownerOf(uint256)": {
        "notice": "Gets the owner of a name"
      },
      "recoverFunds(address,address,uint256)": {
        "notice": "Recover ERC20 tokens sent to the contract by mistake."
      },
      "renew(uint256,uint256)": {
        "notice": "Renews a .eth second-level domain."
      },
      "setChildFuses(bytes32,bytes32,uint32,uint64)": {
        "notice": "Sets fuses of a name that you own the parent of"
      },
      "setFuses(bytes32,uint16)": {
        "notice": "Sets fuses of a name"
      },
      "setMetadataService(address)": {
        "notice": "Set the metadata service. Only the owner can do this"
      },
      "setRecord(bytes32,address,address,uint64)": {
        "notice": "Sets records for the name in the ENS Registry"
      },
      "setResolver(bytes32,address)": {
        "notice": "Sets resolver contract in the registry"
      },
      "setSubnodeOwner(bytes32,string,address,uint32,uint64)": {
        "notice": "Sets the subdomain owner in the registry and then wraps the subdomain"
      },
      "setSubnodeRecord(bytes32,string,address,address,uint64,uint32,uint64)": {
        "notice": "Sets the subdomain owner in the registry with records and then wraps the subdomain"
      },
      "setTTL(bytes32,uint64)": {
        "notice": "Sets TTL in the registry"
      },
      "setUpgradeContract(address)": {
        "notice": "Set the address of the upgradeContract of the contract. only admin can do this"
      },
      "unwrap(bytes32,bytes32,address)": {
        "notice": "Unwraps a non .eth domain, of any kind. Could be a DNSSEC name vitalik.xyz or a subdomain"
      },
      "unwrapETH2LD(bytes32,address,address)": {
        "notice": "Unwraps a .eth domain. e.g. vitalik.eth"
      },
      "upgrade(bytes,bytes)": {
        "notice": "Upgrades a domain of any kind. Could be a .eth name vitalik.eth, a DNSSEC name vitalik.xyz, or a subdomain"
      },
      "uri(uint256)": {
        "notice": "Get the metadata uri"
      },
      "wrap(bytes,address,address)": {
        "notice": "Wraps a non .eth domain, of any kind. Could be a DNSSEC name vitalik.xyz or a subdomain"
      },
      "wrapETH2LD(string,address,uint16,address)": {
        "notice": "Wraps a .eth domain, creating a new token and sending the original ERC721 token to this contract"
      }
    },
    "version": 1
  },
  "storageLayout": {
    "storage": [
      {
        "astId": 529,
        "contract": "contracts/wrapper/NameWrapper.sol:NameWrapper",
        "label": "_owner",
        "offset": 0,
        "slot": "0",
        "type": "t_address"
      },
      {
        "astId": 10055,
        "contract": "contracts/wrapper/NameWrapper.sol:NameWrapper",
        "label": "_tokens",
        "offset": 0,
        "slot": "1",
        "type": "t_mapping(t_uint256,t_uint256)"
      },
      {
        "astId": 10061,
        "contract": "contracts/wrapper/NameWrapper.sol:NameWrapper",
        "label": "_operatorApprovals",
        "offset": 0,
        "slot": "2",
        "type": "t_mapping(t_address,t_mapping(t_address,t_bool))"
      },
      {
        "astId": 10065,
        "contract": "contracts/wrapper/NameWrapper.sol:NameWrapper",
        "label": "_tokenApprovals",
        "offset": 0,
        "slot": "3",
        "type": "t_mapping(t_uint256,t_address)"
      },
      {
        "astId": 9986,
        "contract": "contracts/wrapper/NameWrapper.sol:NameWrapper",
        "label": "controllers",
        "offset": 0,
        "slot": "4",
        "type": "t_mapping(t_address,t_bool)"
      },
      {
        "astId": 11527,
        "contract": "contracts/wrapper/NameWrapper.sol:NameWrapper",
        "label": "metadataService",
        "offset": 0,
        "slot": "5",
        "type": "t_contract(IMetadataService)11029"
      },
      {
        "astId": 11531,
        "contract": "contracts/wrapper/NameWrapper.sol:NameWrapper",
        "label": "names",
        "offset": 0,
        "slot": "6",
        "type": "t_mapping(t_bytes32,t_bytes_storage)"
      },
      {
        "astId": 11546,
        "contract": "contracts/wrapper/NameWrapper.sol:NameWrapper",
        "label": "upgradeContract",
        "offset": 0,
        "slot": "7",
        "type": "t_contract(INameWrapperUpgrade)11421"
      }
    ],
    "types": {
      "t_address": {
        "encoding": "inplace",
        "label": "address",
        "numberOfBytes": "20"
      },
      "t_bool": {
        "encoding": "inplace",
        "label": "bool",
        "numberOfBytes": "1"
      },
      "t_bytes32": {
        "encoding": "inplace",
        "label": "bytes32",
        "numberOfBytes": "32"
      },
      "t_bytes_storage": {
        "encoding": "bytes",
        "label": "bytes",
        "numberOfBytes": "32"
      },
      "t_contract(IMetadataService)11029": {
        "encoding": "inplace",
        "label": "contract IMetadataService",
        "numberOfBytes": "20"
      },
      "t_contract(INameWrapperUpgrade)11421": {
        "encoding": "inplace",
        "label": "contract INameWrapperUpgrade",
        "numberOfBytes": "20"
      },
      "t_mapping(t_address,t_bool)": {
        "encoding": "mapping",
        "key": "t_address",
        "label": "mapping(address => bool)",
        "numberOfBytes": "32",
        "value": "t_bool"
      },
      "t_mapping(t_address,t_mapping(t_address,t_bool))": {
        "encoding": "mapping",
        "key": "t_address",
        "label": "mapping(address => mapping(address => bool))",
        "numberOfBytes": "32",
        "value": "t_mapping(t_address,t_bool)"
      },
      "t_mapping(t_bytes32,t_bytes_storage)": {
        "encoding": "mapping",
        "key": "t_bytes32",
        "label": "mapping(bytes32 => bytes)",
        "numberOfBytes": "32",
        "value": "t_bytes_storage"
      },
      "t_mapping(t_uint256,t_address)": {
        "encoding": "mapping",
        "key": "t_uint256",
        "label": "mapping(uint256 => address)",
        "numberOfBytes": "32",
        "value": "t_address"
      },
      "t_mapping(t_uint256,t_uint256)": {
        "encoding": "mapping",
        "key": "t_uint256",
        "label": "mapping(uint256 => uint256)",
        "numberOfBytes": "32",
        "value": "t_uint256"
      },
      "t_uint256": {
        "encoding": "inplace",
        "label": "uint256",
        "numberOfBytes": "32"
      }
    }
  }
}