{
  "address": "0xA520BA72a7eeFFc6101Da79f08ef8929F3Ae44eF",
  "abi": [
    {
      "anonymous": false,
      "inputs": [
        {
          "indexed": true,
          "internalType": "bytes32",
          "name": "node",
          "type": "bytes32"
        },
        {
          "indexed": true,
          "internalType": "uint256",
          "name": "contentType",
          "type": "uint256"
        }
      ],
      "name": "ABIChanged",
      "type": "event"
    },
    {
      "anonymous": false,
      "inputs": [
        {
          "indexed": true,
          "internalType": "bytes32",
          "name": "node",
          "type": "bytes32"
        },
        {
          "indexed": false,
          "internalType": "address",
          "name": "a",
          "type": "address"
        }
      ],
      "name": "AddrChanged",
      "type": "event"
    },
    {
      "anonymous": false,
      "inputs": [
        {
          "indexed": true,
          "internalType": "bytes32",
          "name": "node",
          "type": "bytes32"
        },
        {
          "indexed": false,
          "internalType": "uint256",
          "name": "coinType",
          "type": "uint256"
        },
        {
          "indexed": false,
          "internalType": "bytes",
          "name": "newAddress",
          "type": "bytes"
        }
      ],
      "name": "AddressChanged",
      "type": "event"
    },
    {
      "anonymous": false,
      "inputs": [
        {
          "indexed": true,
          "internalType": "bytes32",
          "name": "node",
          "type": "bytes32"
        },
        {
          "indexed": false,
          "internalType": "bytes",
          "name": "hash",
          "type": "bytes"
        }
      ],
      "name": "ContenthashChanged",
      "type": "event"
    },
    {
      "anonymous": false,
      "inputs": [
        {
          "indexed": true,
          "internalType": "bytes32",
          "name": "node",
          "type": "bytes32"
        },
        {
          "indexed": false,
          "internalType": "bytes",
          "name": "name",
          "type": "bytes"
        },
        {
          "indexed": false,
          "internalType": "uint16",
          "name": "resource",
          "type": "uint16"
        },
        {
          "indexed": false,
          "internalType": "bytes",
          "name": "record",
          "type": "bytes"
        }
      ],
      "name": "DNSRecordChanged",
      "type": "event"
    },
    {
      "anonymous": false,
      "inputs": [
        {
          "indexed": true,
          "internalType": "bytes32",
          "name": "node",
          "type": "bytes32"
        },
        {
          "indexed": false,
          "internalType": "bytes",
          "name": "name",
          "type": "bytes"
        },
        {
          "indexed": false,
          "internalType": "uint16",
          "name": "resource",
          "type": "uint16"
        }
      ],
      "name": "DNSRecordDeleted",
      "type": "event"
    },
    {
      "anonymous": false,
      "inputs": [
        {
          "indexed": true,
          "internalType": "bytes32",
          "name": "node",
          "type": "bytes32"
        },
        {
          "indexed": false,
          "internalType": "bytes",
          "name": "lastzonehash",
          "type": "bytes"
        },
        {
          "indexed": false,
          "internalType": "bytes",
          "name": "zonehash",
          "type": "bytes"
        }
      ],
      "name": "DNSZonehashChanged",
      "type": "event"
    },
    {
      "anonymous": false,
      "inputs": [
        {
          "indexed": true,
          "internalType": "bytes32",
          "name": "node",
          "type": "bytes32"
        },
        {
          "indexed": true,
          "internalType": "bytes4",
          "name": "interfaceID",
          "type": "bytes4"
        },
        {
          "indexed": false,
          "internalType": "address",
          "name": "implementer",
          "type": "address"
        }
      ],
      "name": "InterfaceChanged",
      "type": "event"
    },
    {
      "anonymous": false,
      "inputs": [
        {
          "indexed": true,
          "internalType": "bytes32",
          "name": "node",
          "type": "bytes32"
        },
        {
          "indexed": false,
          "internalType": "string",
          "name": "name",
          "type": "string"
        }
      ],
      "name": "NameChanged",
      "type": "event"
    },
    {
      "anonymous": false,
      "inputs": [
        {
          "indexed": true,
          "internalType": "address",
          "name": "previousOwner",
          "type": "address"
        },
        {
          "indexed": true,
          "internalType": "address",
          "name": "newOwner",
          "type": "address"
        }
      ],
      "name": "OwnershipTransferred",
      "type": "event"
    },
    {
      "anonymous": false,
      "inputs": [
        {
          "indexed": true,
          "internalType": "bytes32",
          "name": "node",
          "type": "bytes32"
        },
        {
          "indexed": false,
          "internalType": "bytes32",
          "name": "x",
          "type": "bytes32"
        },
        {
          "indexed": false,
          "internalType": "bytes32",
          "name": "y",
          "type": "bytes32"
        }
      ],
      "name": "PubkeyChanged",
      "type": "event"
    },
    {
      "anonymous": false,
      "inputs": [
        {
          "indexed": true,
          "internalType": "bytes32",
          "name": "node",
          "type": "bytes32"
        },
        {
          "indexed": true,
          "internalType": "string",
          "name": "indexedKey",
          "type": "string"
        },
        {
          "indexed": false,
          "internalType": "string",
          "name": "key",
          "type": "string"
        },
        {
          "indexed": false,
          "internalType": "string",
          "name": "value",
          "type": "string"
        }
      ],
      "name": "TextChanged",
      "type": "event"
    },
    {
      "anonymous": false,
      "inputs": [
        {
          "indexed": true,
          "internalType": "bytes32",
          "name": "node",
          "type": "bytes32"
        },
        {
          "indexed": false,
          "internalType": "uint64",
          "name": "newVersion",
          "type": "uint64"
        }
      ],
      "name": "VersionChanged",
      "type": "event"
    },
    {
      "inputs": [
        {
          "internalType": "bytes32",
          "name": "node",
          "type": "bytes32"
        },
        {
          "internalType": "uint256",
          "name": "contentTypes",
          "type": "uint256"
        }
      ],
      "name": "ABI",
      "outputs": [
        {
          "internalType": "uint256",
          "name": "",
          "type": "uint256"
        },
        {
          "internalType": "bytes",
          "name": "",
          "type": "bytes"
        }
      ],
      "stateMutability": "view",
      "type": "function"
    },
    {
      "inputs": [
        {
          "internalType": "bytes32",
          "name": "node",
          "type": "bytes32"
        }
      ],
      "name": "addr",
      "outputs": [
        {
          "internalType": "address payable",
          "name": "",
          "type": "address"
        }
      ],
      "stateMutability": "view",
      "type": "function"
    },
    {
      "inputs": [
        {
          "internalType": "bytes32",
          "name": "node",
          "type": "bytes32"
        },
        {
          "internalType": "uint256",
          "name": "coinType",
          "type": "uint256"
        }
      ],
      "name": "addr",
      "outputs": [
        {
          "internalType": "bytes",
          "name": "",
          "type": "bytes"
        }
      ],
      "stateMutability": "view",
      "type": "function"
    },
    {
      "inputs": [
        {
          "internalType": "bytes32",
          "name": "node",
          "type": "bytes32"
        }
      ],
      "name": "clearRecords",
      "outputs": [],
      "stateMutability": "nonpayable",
      "type": "function"
    },
    {
      "inputs": [
        {
          "internalType": "bytes32",
          "name": "node",
          "type": "bytes32"
        }
      ],
      "name": "contenthash",
      "outputs": [
        {
          "internalType": "bytes",
          "name": "",
          "type": "bytes"
        }
      ],
      "stateMutability": "view",
      "type": "function"
    },
    {
      "inputs": [
        {
          "internalType": "bytes32",
          "name": "node",
          "type": "bytes32"
        },
        {
          "internalType": "bytes32",
          "name": "name",
          "type": "bytes32"
        },
        {
          "internalType": "uint16",
          "name": "resource",
          "type": "uint16"
        }
      ],
      "name": "dnsRecord",
      "outputs": [
        {
          "internalType": "bytes",
          "name": "",
          "type": "bytes"
        }
      ],
      "stateMutability": "view",
      "type": "function"
    },
    {
      "inputs": [
        {
          "internalType": "bytes32",
          "name": "node",
          "type": "bytes32"
        },
        {
          "internalType": "bytes32",
          "name": "name",
          "type": "bytes32"
        }
      ],
      "name": "hasDNSRecords",
      "outputs": [
        {
          "internalType": "bool",
          "name": "",
          "type": "bool"
        }
      ],
      "stateMutability": "view",
      "type": "function"
    },
    {
      "inputs": [
        {
          "internalType": "bytes32",
          "name": "node",
          "type": "bytes32"
        },
        {
          "internalType": "bytes4",
          "name": "interfaceID",
          "type": "bytes4"
        }
      ],
      "name": "interfaceImplementer",
      "outputs": [
        {
          "internalType": "address",
          "name": "",
          "type": "address"
        }
      ],
      "stateMutability": "view",
      "type": "function"
    },
    {
      "inputs": [
        {
          "internalType": "bytes32",
          "name": "node",
          "type": "bytes32"
        }
      ],
      "name": "name",
      "outputs": [
        {
          "internalType": "string",
          "name": "",
          "type": "string"
        }
      ],
      "stateMutability": "view",
      "type": "function"
    },
    {
      "inputs": [],
      "name": "owner",
      "outputs": [
        {
          "internalType": "address",
          "name": "",
          "type": "address"
        }
      ],
      "stateMutability": "view",
      "type": "function"
    },
    {
      "inputs": [
        {
          "internalType": "bytes32",
          "name": "node",
          "type": "bytes32"
        }
      ],
      "name": "pubkey",
      "outputs": [
        {
          "internalType": "bytes32",
          "name": "x",
          "type": "bytes32"
        },
        {
          "internalType": "bytes32",
          "name": "y",
          "type": "bytes32"
        }
      ],
      "stateMutability": "view",
      "type": "function"
    },
    {
      "inputs": [
        {
          "internalType": "bytes32",
          "name": "",
          "type": "bytes32"
        }
      ],
      "name": "recordVersions",
      "outputs": [
        {
          "internalType": "uint64",
          "name": "",
          "type": "uint64"
        }
      ],
      "stateMutability": "view",
      "type": "function"
    },
    {
      "inputs": [],
      "name": "renounceOwnership",
      "outputs": [],
      "stateMutability": "nonpayable",
      "type": "function"
    },
    {
      "inputs": [
        {
          "internalType": "bytes",
          "name": "",
          "type": "bytes"
        },
        {
          "internalType": "bytes",
          "name": "data",
          "type": "bytes"
        }
      ],
      "name": "resolve",
      "outputs": [
        {
          "internalType": "bytes",
          "name": "",
          "type": "bytes"
        }
      ],
      "stateMutability": "view",
      "type": "function"
    },
    {
      "inputs": [
        {
          "internalType": "bytes32",
          "name": "node",
          "type": "bytes32"
        },
        {
          "internalType": "uint256",
          "name": "contentType",
          "type": "uint256"
        },
        {
          "internalType": "bytes",
          "name": "data",
          "type": "bytes"
        }
      ],
      "name": "setABI",
      "outputs": [],
      "stateMutability": "nonpayable",
      "type": "function"
    },
    {
      "inputs": [
        {
          "internalType": "bytes32",
          "name": "node",
          "type": "bytes32"
        },
        {
          "internalType": "uint256",
          "name": "coinType",
          "type": "uint256"
        },
        {
          "internalType": "bytes",
          "name": "a",
          "type": "bytes"
        }
      ],
      "name": "setAddr",
      "outputs": [],
      "stateMutability": "nonpayable",
      "type": "function"
    },
    {
      "inputs": [
        {
          "internalType": "bytes32",
          "name": "node",
          "type": "bytes32"
        },
        {
          "internalType": "address",
          "name": "a",
          "type": "address"
        }
      ],
      "name": "setAddr",
      "outputs": [],
      "stateMutability": "nonpayable",
      "type": "function"
    },
    {
      "inputs": [
        {
          "internalType": "bytes32",
          "name": "node",
          "type": "bytes32"
        },
        {
          "internalType": "bytes",
          "name": "hash",
          "type": "bytes"
        }
      ],
      "name": "setContenthash",
      "outputs": [],
      "stateMutability": "nonpayable",
      "type": "function"
    },
    {
      "inputs": [
        {
          "internalType": "bytes32",
          "name": "node",
          "type": "bytes32"
        },
        {
          "internalType": "bytes",
          "name": "data",
          "type": "bytes"
        }
      ],
      "name": "setDNSRecords",
      "outputs": [],
      "stateMutability": "nonpayable",
      "type": "function"
    },
    {
      "inputs": [
        {
          "internalType": "bytes32",
          "name": "node",
          "type": "bytes32"
        },
        {
          "internalType": "bytes4",
          "name": "interfaceID",
          "type": "bytes4"
        },
        {
          "internalType": "address",
          "name": "implementer",
          "type": "address"
        }
      ],
      "name": "setInterface",
      "outputs": [],
      "stateMutability": "nonpayable",
      "type": "function"
    },
    {
      "inputs": [
        {
          "internalType": "bytes32",
          "name": "node",
          "type": "bytes32"
        },
        {
          "internalType": "string",
          "name": "newName",
          "type": "string"
        }
      ],
      "name": "setName",
      "outputs": [],
      "stateMutability": "nonpayable",
      "type": "function"
    },
    {
      "inputs": [
        {
          "internalType": "bytes32",
          "name": "node",
          "type": "bytes32"
        },
        {
          "internalType": "bytes32",
          "name": "x",
          "type": "bytes32"
        },
        {
          "internalType": "bytes32",
          "name": "y",
          "type": "bytes32"
        }
      ],
      "name": "setPubkey",
      "outputs": [],
      "stateMutability": "nonpayable",
      "type": "function"
    },
    {
      "inputs": [
        {
          "internalType": "bytes32",
          "name": "node",
          "type": "bytes32"
        },
        {
          "internalType": "string",
          "name": "key",
          "type": "string"
        },
        {
          "internalType": "string",
          "name": "value",
          "type": "string"
        }
      ],
      "name": "setText",
      "outputs": [],
      "stateMutability": "nonpayable",
      "type": "function"
    },
    {
      "inputs": [
        {
          "internalType": "bytes32",
          "name": "node",
          "type": "bytes32"
        },
        {
          "internalType": "bytes",
          "name": "hash",
          "type": "bytes"
        }
      ],
      "name": "setZonehash",
      "outputs": [],
      "stateMutability": "nonpayable",
      "type": "function"
    },
    {
      "inputs": [
        {
          "internalType": "bytes4",
          "name": "interfaceID",
          "type": "bytes4"
        }
      ],
      "name": "supportsInterface",
      "outputs": [
        {
          "internalType": "bool",
          "name": "",
          "type": "bool"
        }
      ],
      "stateMutability": "view",
      "type": "function"
    },
    {
      "inputs": [
        {
          "internalType": "bytes32",
          "name": "node",
          "type": "bytes32"
        },
        {
          "internalType": "string",
          "name": "key",
          "type": "string"
        }
      ],
      "name": "text",
      "outputs": [
        {
          "internalType": "string",
          "name": "",
          "type": "string"
        }
      ],
      "stateMutability": "view",
      "type": "function"
    },
    {
      "inputs": [
        {
          "internalType": "address",
          "name": "newOwner",
          "type": "address"
        }
      ],
      "name": "transferOwnership",
      "outputs": [],
      "stateMutability": "nonpayable",
      "type": "function"
    },
    {
      "inputs": [
        {
          "internalType": "bytes32",
          "name": "node",
          "type": "bytes32"
        }
      ],
      "name": "zonehash",
      "outputs": [
        {
          "internalType": "bytes",
          "name": "",
          "type": "bytes"
        }
      ],
      "stateMutability": "view",
      "type": "function"
    }
  ],
  "transactionHash": "0x178dd68ebb60a5c0025d0c6bbd5965e29c8d7b68bf03ca4a3164cc3197b37fbc",
  "args": [],
  "numDeployments": 1,
  "solcInputHash": "adbf76942d563524ad80ebf49b3841d1",
  "bytecode": "0x608060405234801561001057600080fd5b5061001a3361001f565b61006f565b600080546001600160a01b038381166001600160a01b0319831681178455604051919092169283917f8be0079c531659141344cd1fd0a4f28419497f9722a3daafe3b4186f6b6457e09190a35050565b6126958061007e6000396000f3fe608060405234801561001057600080fd5b50600436106101c45760003560e01c8063715018a6116100f9578063c869023311610097578063d700ff3311610071578063d700ff331461044e578063e59d895d1461048f578063f1cb7e06146104a2578063f2fde38b146104b557600080fd5b8063c8690233146103cf578063ce3decdc14610428578063d5fa2b001461043b57600080fd5b80638da5cb5b116100d35780638da5cb5b146103855780639061b92314610396578063a8fa5682146103a9578063bc1c58d1146103bc57600080fd5b8063715018a614610357578063773722131461035f5780638b95dd711461037257600080fd5b80633603d7581161016657806359d1d43c1161014057806359d1d43c146102fe5780635c98042b1461031e578063623195b014610331578063691f34311461034457600080fd5b80633603d7581461028b5780633b3b57de1461029e5780634cbf6ba4146102b157600080fd5b8063124a319c116101a2578063124a319c146102195780632203ab561461024457806329cd62ea14610265578063304e6ade1461027857600080fd5b806301ffc9a7146101c95780630af179d7146101f157806310f13a8c14610206575b600080fd5b6101dc6101d7366004611f84565b6104c8565b60405190151581526020015b60405180910390f35b6102046101ff366004611fe0565b6104d9565b005b61020461021436600461202b565b6106e7565b61022c6102273660046120a4565b6107ba565b6040516001600160a01b0390911681526020016101e8565b6102576102523660046120d0565b610a0d565b6040516101e892919061214e565b610204610273366004612167565b610b44565b610204610286366004611fe0565b610beb565b610204610299366004612193565b610c6e565b61022c6102ac366004612193565b610d17565b6101dc6102bf3660046120d0565b6000828152600160209081526040808320546001600160401b031683526007825280832094835293815283822092825291909152205461ffff16151590565b61031161030c366004611fe0565b610d4a565b6040516101e891906121ac565b61031161032c366004612193565b610e2b565b61020461033f3660046121bf565b610eeb565b610311610352366004612193565b610f8f565b610204610fca565b61020461036d366004611fe0565b610fde565b6102046103803660046122b3565b611061565b6000546001600160a01b031661022c565b6103116103a4366004612302565b61114d565b6103116103b7366004612365565b6111c6565b6103116103ca366004612193565b611215565b6104136103dd366004612193565b6000818152600160208181526040808420546001600160401b03168452600a825280842094845293905291902080549101549091565b604080519283526020830191909152016101e8565b610204610436366004611fe0565b611250565b6102046104493660046123bc565b611399565b61047761045c366004612193565b6001602052600090815260409020546001600160401b031681565b6040516001600160401b0390911681526020016101e8565b61020461049d3660046123df565b6113c6565b6103116104b03660046120d0565b611474565b6102046104c336600461241b565b61153d565b60006104d3826115bb565b92915050565b60005483906001600160a01b031633146104f257600080fd5b6000848152600160209081526040808320548151601f87018490048402810184019092528582528392606092839285926001600160401b039091169183916105599183918d908d908190840183828082843760009201919091525092939250506115e09050565b90505b805151602082015110156106805761ffff87166105be578060400151965061058381611641565b9450846040516020016105969190612436565b6040516020818303038152906040528051906020012092506105b781611662565b9350610672565b60006105c982611641565b9050816040015161ffff168861ffff161415806105ed57506105eb868261167e565b155b15610670576106498c878a8e8e8080601f016020809104026020016040519081016040528093929190818152602001838380828437600092019190915250505060208801518d9150610640908290612468565b8b51158a61169c565b81604001519750816020015196508095508580519060200120935061066d82611662565b94505b505b61067b81611906565b61055c565b508351156106db576106db8a85888c8c8080601f0160208091040260200160405190810160405280939291908181526020018383808284376000920191909152508c92506106d291508290508f612468565b8951158861169c565b50505050505050505050565b60005485906001600160a01b0316331461070057600080fd5b6000868152600160209081526040808320546001600160401b03168352600b825280832089845290915290819020905184918491610741908990899061247f565b90815260405190819003602001902061075b929091611e24565b50848460405161076c92919061247f565b6040518091039020867f448bc014f1536726cf8d54ff3d6481ed3cbc683c2591ca204274009afa09b1a1878787876040516107aa94939291906124b8565b60405180910390a3505050505050565b6000828152600160209081526040808320546001600160401b031683526008825280832085845282528083206001600160e01b0319851684529091528120546001600160a01b0316801561080f5790506104d3565b600061081a85610d17565b90506001600160a01b038116610835576000925050506104d3565b6040516301ffc9a760e01b602482015260009081906001600160a01b0384169060440160408051601f198184030181529181526020820180516001600160e01b03166301ffc9a760e01b1790525161088d9190612436565b600060405180830381855afa9150503d80600081146108c8576040519150601f19603f3d011682016040523d82523d6000602084013e6108cd565b606091505b50915091508115806108e0575060208151105b8061090a575080601f815181106108f9576108f96124ea565b01602001516001600160f81b031916155b1561091c5760009450505050506104d3565b6040516001600160e01b0319871660248201526001600160a01b0384169060440160408051601f198184030181529181526020820180516001600160e01b03166301ffc9a760e01b179052516109729190612436565b600060405180830381855afa9150503d80600081146109ad576040519150601f19603f3d011682016040523d82523d6000602084013e6109b2565b606091505b5090925090508115806109c6575060208151105b806109f0575080601f815181106109df576109df6124ea565b01602001516001600160f81b031916155b15610a025760009450505050506104d3565b509095945050505050565b6000828152600160208181526040808420546001600160401b031684526002825280842086855290915282206060915b848111610b245780851615801590610a6d575060008181526020839052604081208054610a6990612500565b9050115b15610b1c5780826000838152602001908152602001600020808054610a9190612500565b80601f0160208091040260200160405190810160405280929190818152602001828054610abd90612500565b8015610b0a5780601f10610adf57610100808354040283529160200191610b0a565b820191906000526020600020905b815481529060010190602001808311610aed57829003601f168201915b50505050509050935093505050610b3d565b60011b610a3d565b5060006040518060200160405280600081525092509250505b9250929050565b60005483906001600160a01b03163314610b5d57600080fd5b604080518082018252848152602080820185815260008881526001808452858220546001600160401b03168252600a84528582208a835290935284902092518355519101555184907f1d6f5e03d3f63eb58751986629a5439baee5079ff04f345becb66e23eb154e4690610bdd9086908690918252602082015260400190565b60405180910390a250505050565b60005483906001600160a01b03163314610c0457600080fd5b6000848152600160209081526040808320546001600160401b03168352600482528083208784529091529020610c3b908484611e24565b50837fe379c1624ed7e714cc0937528a32359d69d5281337765313dba4e081b72d75788484604051610bdd92919061253b565b60005481906001600160a01b03163314610c8757600080fd5b600082815260016020526040812080546001600160401b031691610caa8361254f565b82546101009290920a6001600160401b038181021990931691831602179091556000848152600160209081526040918290205491519190921681528492507fc6621ccb8f3f5a04bb6502154b2caf6adf5983fe76dfef1cfc9c42e3579db444910160405180910390a25050565b600080610d2583603c611474565b9050805160001415610d3a5750600092915050565b610d43816119ee565b9392505050565b6000838152600160209081526040808320546001600160401b03168352600b825280832086845290915290819020905160609190610d8b908590859061247f565b90815260200160405180910390208054610da490612500565b80601f0160208091040260200160405190810160405280929190818152602001828054610dd090612500565b8015610e1d5780601f10610df257610100808354040283529160200191610e1d565b820191906000526020600020905b815481529060010190602001808311610e0057829003601f168201915b505050505090509392505050565b6000818152600160209081526040808320546001600160401b03168352600582528083208484529091529020805460609190610e6690612500565b80601f0160208091040260200160405190810160405280929190818152602001828054610e9290612500565b8015610edf5780601f10610eb457610100808354040283529160200191610edf565b820191906000526020600020905b815481529060010190602001808311610ec257829003601f168201915b50505050509050919050565b60005484906001600160a01b03163314610f0457600080fd5b83610f10600182612468565b1615610f1b57600080fd5b6000858152600160209081526040808320546001600160401b031683526002825280832088845282528083208784529091529020610f5a908484611e24565b50604051849086907faa121bbeef5f32f5961a2a28966e769023910fc9479059ee3495d4c1a696efe390600090a35050505050565b6000818152600160209081526040808320546001600160401b03168352600982528083208484529091529020805460609190610e6690612500565b610fd2611a0d565b610fdc6000611a67565b565b60005483906001600160a01b03163314610ff757600080fd5b6000848152600160209081526040808320546001600160401b0316835260098252808320878452909152902061102e908484611e24565b50837fb7d29e911041e8d9b843369e890bcb72c9388692ba48b65ac54e7214c4c348f78484604051610bdd92919061253b565b60005483906001600160a01b0316331461107a57600080fd5b837f65412581168e88a1e60c6459d7f44ae83ad0832e670826c05a4e2476b57af75284846040516110ac92919061214e565b60405180910390a2603c83141561110457837f52d7d861f09ab3d26239d492e8968629f95e9e318cf0b73bfddc441522a15fd26110e8846119ee565b6040516001600160a01b03909116815260200160405180910390a25b6000848152600160209081526040808320546001600160401b031683526003825280832087845282528083208684528252909120835161114692850190611ea8565b5050505050565b6060600080306001600160a01b03168460405161116a9190612436565b600060405180830381855afa9150503d80600081146111a5576040519150601f19603f3d011682016040523d82523d6000602084013e6111aa565b606091505b509150915081156111be5791506104d39050565b805160208201fd5b6000838152600160209081526040808320546001600160401b03168352600682528083208684528252808320858452825280832061ffff851684529091529020805460609190610da490612500565b6000818152600160209081526040808320546001600160401b03168352600482528083208484529091529020805460609190610e6690612500565b60005483906001600160a01b0316331461126957600080fd5b6000848152600160209081526040808320546001600160401b031680845260058352818420888552909252822080549192916112a490612500565b80601f01602080910402602001604051908101604052809291908181526020018280546112d090612500565b801561131d5780601f106112f25761010080835404028352916020019161131d565b820191906000526020600020905b81548152906001019060200180831161130057829003601f168201915b505050506001600160401b03841660009081526005602090815260408083208b845290915290209192506113549190508686611e24565b50857f8f15ed4b723ef428f250961da8315675b507046737e19319fc1a4d81bfe87f8582878760405161138993929190612576565b60405180910390a2505050505050565b60005482906001600160a01b031633146113b257600080fd5b6113c183603c61038085611ab7565b505050565b60005483906001600160a01b031633146113df57600080fd5b6000848152600160209081526040808320546001600160401b031683526008825280832087845282528083206001600160e01b031987168085529083529281902080546001600160a01b0319166001600160a01b038716908117909155905190815286917f7c69f06bea0bdef565b709e93a147836b0063ba2dd89f02d0b7e8d931e6a6daa910160405180910390a350505050565b6000828152600160209081526040808320546001600160401b0316835260038252808320858452825280832084845290915290208054606091906114b790612500565b80601f01602080910402602001604051908101604052809291908181526020018280546114e390612500565b80156115305780601f1061150557610100808354040283529160200191611530565b820191906000526020600020905b81548152906001019060200180831161151357829003601f168201915b5050505050905092915050565b611545611a0d565b6001600160a01b0381166115af5760405162461bcd60e51b815260206004820152602660248201527f4f776e61626c653a206e6577206f776e657220697320746865207a65726f206160448201526564647265737360d01b60648201526084015b60405180910390fd5b6115b881611a67565b50565b60006001600160e01b03198216631674750f60e21b14806104d357506104d382611ae7565b61162e6040518060e001604052806060815260200160008152602001600061ffff168152602001600061ffff168152602001600063ffffffff16815260200160008152602001600081525090565b82815260c081018290526104d381611906565b602081015181516060916104d3916116599082611b0c565b84519190611b6b565b60a081015160c08201516060916104d391611659908290612468565b600081518351148015610d435750610d438360008460008751611be1565b8651602088012060006116b0878787611b6b565b905083156117d7576001600160401b03831660009081526006602090815260408083208d84528252808320858452825280832061ffff8c168452909152902080546116fa90612500565b159050611758576001600160401b03831660009081526007602090815260408083208d845282528083208584529091528120805461ffff169161173c836125a6565b91906101000a81548161ffff021916908361ffff160217905550505b6001600160401b03831660009081526006602090815260408083208d84528252808320858452825280832061ffff8c168452909152812061179891611f1c565b897f03528ed0c2a3ebc993b12ce3c16bb382f9c7d88ef7d8a1bf290eaf35955a12078a8a6040516117ca9291906125c4565b60405180910390a26106db565b6001600160401b03831660009081526006602090815260408083208d84528252808320858452825280832061ffff8c1684529091529020805461181990612500565b15159050611878576001600160401b03831660009081526007602090815260408083208d845282528083208584529091528120805461ffff169161185c836125ea565b91906101000a81548161ffff021916908361ffff160217905550505b6001600160401b03831660009081526006602090815260408083208d84528252808320858452825280832061ffff8c168452825290912082516118bd92840190611ea8565b50897f52a608b3303a48862d07a73d82fa221318c0027fbbcfb1b2329bface3f19ff2b8a8a846040516118f293929190612602565b60405180910390a250505050505050505050565b60c0810151602082018190528151511161191d5750565b600061193182600001518360200151611b0c565b82602001516119409190612631565b825190915061194f9082611c04565b61ffff166040830152611963600282612631565b82519091506119729082611c04565b61ffff166060830152611986600282612631565b82519091506119959082611c2c565b63ffffffff1660808301526119ab600482612631565b82519091506000906119bd9083611c04565b61ffff1690506119ce600283612631565b60a0840181905291506119e18183612631565b60c0909301929092525050565b600081516014146119fe57600080fd5b5060200151600160601b900490565b6000546001600160a01b03163314610fdc5760405162461bcd60e51b815260206004820181905260248201527f4f776e61626c653a2063616c6c6572206973206e6f7420746865206f776e657260448201526064016115a6565b600080546001600160a01b038381166001600160a01b0319831681178455604051919092169283917f8be0079c531659141344cd1fd0a4f28419497f9722a3daafe3b4186f6b6457e09190a35050565b604080516014808252818301909252606091602082018180368337505050600160601b9290920260208301525090565b60006001600160e01b0319821663c869023360e01b14806104d357506104d382611c56565b6000815b83518110611b2057611b20612649565b6000611b2c8583611c7b565b60ff169050611b3c816001612631565b611b469083612631565b915080611b535750611b59565b50611b10565b611b638382612468565b949350505050565b8251606090611b7a8385612631565b1115611b8557600080fd5b6000826001600160401b03811115611b9f57611b9f612211565b6040519080825280601f01601f191660200182016040528015611bc9576020820181803683370190505b50905060208082019086860101610a02828287611c9f565b6000611bee848484611cf5565b611bf9878785611cf5565b149695505050505050565b8151600090611c14836002612631565b1115611c1f57600080fd5b50016002015161ffff1690565b8151600090611c3c836004612631565b1115611c4757600080fd5b50016004015163ffffffff1690565b60006001600160e01b0319821663691f343160e01b14806104d357506104d382611d19565b6000828281518110611c8f57611c8f6124ea565b016020015160f81c905092915050565b60208110611cd75781518352611cb6602084612631565b9250611cc3602083612631565b9150611cd0602082612468565b9050611c9f565b905182516020929092036101000a6000190180199091169116179052565b8251600090611d048385612631565b1115611d0f57600080fd5b5091016020012090565b60006001600160e01b031982166304928c6760e21b14806104d357506104d38260006001600160e01b0319821663547d2b4160e11b1480611d6a57506001600160e01b03198216635c98042b60e01b145b806104d357506104d38260006001600160e01b0319821663bc1c58d160e01b14806104d357506104d38260006001600160e01b03198216631d9dabef60e11b1480611dc557506001600160e01b031982166378e5bf0360e11b145b806104d357506104d38260006001600160e01b03198216631101d5ab60e11b14806104d357506104d38260006001600160e01b0319821663d700ff3360e01b14806104d357506301ffc9a760e01b6001600160e01b03198316146104d3565b828054611e3090612500565b90600052602060002090601f016020900481019282611e525760008555611e98565b82601f10611e6b5782800160ff19823516178555611e98565b82800160010185558215611e98579182015b82811115611e98578235825591602001919060010190611e7d565b50611ea4929150611f52565b5090565b828054611eb490612500565b90600052602060002090601f016020900481019282611ed65760008555611e98565b82601f10611eef57805160ff1916838001178555611e98565b82800160010185558215611e98579182015b82811115611e98578251825591602001919060010190611f01565b508054611f2890612500565b6000825580601f10611f38575050565b601f0160209004906000526020600020908101906115b891905b5b80821115611ea45760008155600101611f53565b80356001600160e01b031981168114611f7f57600080fd5b919050565b600060208284031215611f9657600080fd5b610d4382611f67565b60008083601f840112611fb157600080fd5b5081356001600160401b03811115611fc857600080fd5b602083019150836020828501011115610b3d57600080fd5b600080600060408486031215611ff557600080fd5b8335925060208401356001600160401b0381111561201257600080fd5b61201e86828701611f9f565b9497909650939450505050565b60008060008060006060868803121561204357600080fd5b8535945060208601356001600160401b038082111561206157600080fd5b61206d89838a01611f9f565b9096509450604088013591508082111561208657600080fd5b5061209388828901611f9f565b969995985093965092949392505050565b600080604083850312156120b757600080fd5b823591506120c760208401611f67565b90509250929050565b600080604083850312156120e357600080fd5b50508035926020909101359150565b60005b8381101561210d5781810151838201526020016120f5565b8381111561211c576000848401525b50505050565b6000815180845261213a8160208601602086016120f2565b601f01601f19169290920160200192915050565b828152604060208201526000611b636040830184612122565b60008060006060848603121561217c57600080fd5b505081359360208301359350604090920135919050565b6000602082840312156121a557600080fd5b5035919050565b602081526000610d436020830184612122565b600080600080606085870312156121d557600080fd5b843593506020850135925060408501356001600160401b038111156121f957600080fd5b61220587828801611f9f565b95989497509550505050565b634e487b7160e01b600052604160045260246000fd5b600082601f83011261223857600080fd5b81356001600160401b038082111561225257612252612211565b604051601f8301601f19908116603f0116810190828211818310171561227a5761227a612211565b8160405283815286602085880101111561229357600080fd5b836020870160208301376000602085830101528094505050505092915050565b6000806000606084860312156122c857600080fd5b833592506020840135915060408401356001600160401b038111156122ec57600080fd5b6122f886828701612227565b9150509250925092565b6000806040838503121561231557600080fd5b82356001600160401b038082111561232c57600080fd5b61233886838701612227565b9350602085013591508082111561234e57600080fd5b5061235b85828601612227565b9150509250929050565b60008060006060848603121561237a57600080fd5b8335925060208401359150604084013561ffff8116811461239a57600080fd5b809150509250925092565b80356001600160a01b0381168114611f7f57600080fd5b600080604083850312156123cf57600080fd5b823591506120c7602084016123a5565b6000806000606084860312156123f457600080fd5b8335925061240460208501611f67565b9150612412604085016123a5565b90509250925092565b60006020828403121561242d57600080fd5b610d43826123a5565b600082516124488184602087016120f2565b9190910192915050565b634e487b7160e01b600052601160045260246000fd5b60008282101561247a5761247a612452565b500390565b8183823760009101908152919050565b81835281816020850137506000828201602090810191909152601f909101601f19169091010190565b6040815260006124cc60408301868861248f565b82810360208401526124df81858761248f565b979650505050505050565b634e487b7160e01b600052603260045260246000fd5b600181811c9082168061251457607f821691505b6020821081141561253557634e487b7160e01b600052602260045260246000fd5b50919050565b602081526000611b6360208301848661248f565b60006001600160401b038083168181141561256c5761256c612452565b6001019392505050565b6040815260006125896040830186612122565b828103602084015261259c81858761248f565b9695505050505050565b600061ffff8216806125ba576125ba612452565b6000190192915050565b6040815260006125d76040830185612122565b905061ffff831660208301529392505050565b600061ffff8083168181141561256c5761256c612452565b6060815260006126156060830186612122565b61ffff85166020840152828103604084015261259c8185612122565b6000821982111561264457612644612452565b500190565b634e487b7160e01b600052600160045260246000fdfea26469706673582212207544e59b0418e3a1afe70a741b8f301e01f14e9266f97c553a76043e04c5923c64736f6c634300080c0033",
  "devdoc": {
    "kind": "dev",
    "methods": {
      "ABI(bytes32,uint256)": {
        "params": {
          "contentTypes": "A bitwise OR of the ABI formats accepted by the caller.",
          "node": "The DNS node to query"
        },
        "returns": {
          "_0": "contentType The content type of the return value",
          "_1": "data The ABI data"
        }
      },
      "addr(bytes32)": {
        "params": {
          "node": "The DNS node to query."
        },
        "returns": {
          "_0": "The associated address."
        }
      },
      "clearRecords(bytes32)": {
        "params": {
          "node": "The node to update."
        }
      },
      "contenthash(bytes32)": {
        "params": {
          "node": "The DNS node to query."
        },
        "returns": {
          "_0": "The associated contenthash."
        }
      },
      "dnsRecord(bytes32,bytes32,uint16)": {
        "params": {
          "name": "the keccak-256 hash of the fully-qualified name for which to fetch the record",
          "node": "the namehash of the node for which to fetch the record",
          "resource": "the ID of the resource as per https://en.wikipedia.org/wiki/List_of_DNS_record_types"
        },
        "returns": {
          "_0": "the DNS record in wire format if present, otherwise empty"
        }
      },
      "hasDNSRecords(bytes32,bytes32)": {
        "params": {
          "name": "the namehash of the node for which to check the records",
          "node": "the namehash of the node for which to check the records"
        }
      },
      "interfaceImplementer(bytes32,bytes4)": {
        "params": {
          "interfaceID": "The EIP 165 interface ID to check for.",
          "node": "The DNS node to query."
        },
        "returns": {
          "_0": "The address that implements this interface, or 0 if the interface is unsupported."
        }
      },
      "name(bytes32)": {
        "params": {
          "node": "The DNS node to query."
        },
        "returns": {
          "_0": "The associated name."
        }
      },
      "owner()": {
        "details": "Returns the address of the current owner."
      },
      "pubkey(bytes32)": {
        "params": {
          "node": "The DNS node to query"
        },
        "returns": {
          "x": "The X coordinate of the curve point for the public key.",
          "y": "The Y coordinate of the curve point for the public key."
        }
      },
      "renounceOwnership()": {
        "details": "Leaves the contract without owner. It will not be possible to call `onlyOwner` functions. Can only be called by the current owner. NOTE: Renouncing ownership will leave the contract without an owner, thereby disabling any functionality that is only available to the owner."
      },
      "setABI(bytes32,uint256,bytes)": {
        "params": {
          "contentType": "The content type of the ABI",
          "data": "The ABI data.",
          "node": "The node to update."
        }
      },
      "setAddr(bytes32,address)": {
        "params": {
          "a": "The address to set.",
          "node": "The node to update."
        }
      },
      "setContenthash(bytes32,bytes)": {
        "params": {
          "hash": "The contenthash to set",
          "node": "The node to update."
        }
      },
      "setDNSRecords(bytes32,bytes)": {
        "params": {
          "data": "the DNS wire format records to set",
          "node": "the namehash of the node for which to set the records"
        }
      },
      "setInterface(bytes32,bytes4,address)": {
        "params": {
          "implementer": "The address of a contract that implements this interface for this node.",
          "interfaceID": "The EIP 165 interface ID.",
          "node": "The node to update."
        }
      },
      "setName(bytes32,string)": {
        "params": {
          "node": "The node to update."
        }
      },
      "setPubkey(bytes32,bytes32,bytes32)": {
        "params": {
          "node": "The DNS node to query",
          "x": "the X coordinate of the curve point for the public key.",
          "y": "the Y coordinate of the curve point for the public key."
        }
      },
      "setText(bytes32,string,string)": {
        "params": {
          "key": "The key to set.",
          "node": "The node to update.",
          "value": "The text data value to set."
        }
      },
      "setZonehash(bytes32,bytes)": {
        "params": {
          "hash": "The zonehash to set",
          "node": "The node to update."
        }
      },
      "text(bytes32,string)": {
        "params": {
          "key": "The text data key to query.",
          "node": "The DNS node to query."
        },
        "returns": {
          "_0": "The associated text data."
        }
      },
      "transferOwnership(address)": {
        "details": "Transfers ownership of the contract to a new account (`newOwner`). Can only be called by the current owner."
      },
      "zonehash(bytes32)": {
        "params": {
          "node": "The DNS node to query."
        },
        "returns": {
          "_0": "The associated contenthash."
        }
      }
    },
    "version": 1
  },
  "userdoc": {
    "kind": "user",
    "methods": {
      "ABI(bytes32,uint256)": {
        "notice": "Returns the ABI associated with an DNS node. Defined in EIP205."
      },
      "addr(bytes32)": {
        "notice": "Returns the address associated with an DNS node."
      },
      "clearRecords(bytes32)": {
        "notice": "Increments the record version associated with an TomoNs node. May only be called by the owner of that node in the TomoNs registry."
      },
      "contenthash(bytes32)": {
        "notice": "Returns the contenthash associated with an DNS node."
      },
      "dnsRecord(bytes32,bytes32,uint16)": {
        "notice": "Obtain a DNS record."
      },
      "hasDNSRecords(bytes32,bytes32)": {
        "notice": "Check if a given node has records."
      },
      "interfaceImplementer(bytes32,bytes4)": {
        "notice": "Returns the address of a contract that implements the specified interface for this name. If an implementer has not been set for this interfaceID and name, the resolver will query the contract at `addr()`. If `addr()` is set, a contract exists at that address, and that contract implements EIP165 and returns `true` for the specified interfaceID, its address will be returned."
      },
      "name(bytes32)": {
        "notice": "Returns the name associated with an DNS node, for reverse records. Defined in EIP181."
      },
      "pubkey(bytes32)": {
        "notice": "Returns the SECP256k1 public key associated with an DNS node. Defined in EIP 619."
      },
      "setABI(bytes32,uint256,bytes)": {
        "notice": "Sets the ABI associated with an DNS node. Nodes may have one ABI of each content type. To remove an ABI, set it to the empty string."
      },
      "setAddr(bytes32,address)": {
        "notice": "Sets the address associated with an DNS node. May only be called by the owner of that node in the DNS registry."
      },
      "setContenthash(bytes32,bytes)": {
        "notice": "Sets the contenthash associated with an DNS node. May only be called by the owner of that node in the DNS registry."
      },
      "setDNSRecords(bytes32,bytes)": {
        "notice": "Set one or more DNS records.  Records are supplied in wire-format. Records with the same node/name/resource must be supplied one after the other to ensure the data is updated correctly. For example, if the data was supplied:     a.example.com IN A 1.2.3.4     a.example.com IN A 5.6.7.8     www.example.com IN CNAME a.example.com. then this would store the two A records for a.example.com correctly as a single RRSET, however if the data was supplied:     a.example.com IN A 1.2.3.4     www.example.com IN CNAME a.example.com.     a.example.com IN A 5.6.7.8 then this would store the first A record, the CNAME, then the second A record which would overwrite the first."
      },
      "setInterface(bytes32,bytes4,address)": {
        "notice": "Sets an interface associated with a name. Setting the address to 0 restores the default behaviour of querying the contract at `addr()` for interface support."
      },
      "setName(bytes32,string)": {
        "notice": "Sets the name associated with an DNS node, for reverse records. May only be called by the owner of that node in the DNS registry."
      },
      "setPubkey(bytes32,bytes32,bytes32)": {
        "notice": "Sets the SECP256k1 public key associated with an DNS node."
      },
      "setText(bytes32,string,string)": {
        "notice": "Sets the text data associated with an DNS node and key. May only be called by the owner of that node in the DNS registry."
      },
      "setZonehash(bytes32,bytes)": {
        "notice": "setZonehash sets the hash for the zone. May only be called by the owner of that node in the DNS registry."
      },
      "text(bytes32,string)": {
        "notice": "Returns the text data associated with an DNS node and key."
      },
      "zonehash(bytes32)": {
        "notice": "zonehash obtains the hash for the zone."
      }
    },
    "notice": "A simple resolver anyone can use; only allows the owner of a node to set its address.",
    "version": 1
  },
  "storageLayout": {
    "storage": [
      {
        "astId": 529,
        "contract": "contracts/resolvers/OwnedResolver.sol:OwnedResolver",
        "label": "_owner",
        "offset": 0,
        "slot": "0",
        "type": "t_address"
      },
      {
        "astId": 8002,
        "contract": "contracts/resolvers/OwnedResolver.sol:OwnedResolver",
        "label": "recordVersions",
        "offset": 0,
        "slot": "1",
        "type": "t_mapping(t_bytes32,t_uint64)"
      },
      {
        "astId": 8081,
        "contract": "contracts/resolvers/OwnedResolver.sol:OwnedResolver",
        "label": "versionable_abis",
        "offset": 0,
        "slot": "2",
        "type": "t_mapping(t_uint64,t_mapping(t_bytes32,t_mapping(t_uint256,t_bytes_storage)))"
      },
      {
        "astId": 8235,
        "contract": "contracts/resolvers/OwnedResolver.sol:OwnedResolver",
        "label": "versionable_addresses",
        "offset": 0,
        "slot": "3",
        "type": "t_mapping(t_uint64,t_mapping(t_bytes32,t_mapping(t_uint256,t_bytes_storage)))"
      },
      {
        "astId": 8426,
        "contract": "contracts/resolvers/OwnedResolver.sol:OwnedResolver",
        "label": "versionable_hashes",
        "offset": 0,
        "slot": "4",
        "type": "t_mapping(t_uint64,t_mapping(t_bytes32,t_bytes_storage))"
      },
      {
        "astId": 8516,
        "contract": "contracts/resolvers/OwnedResolver.sol:OwnedResolver",
        "label": "versionable_zonehashes",
        "offset": 0,
        "slot": "5",
        "type": "t_mapping(t_uint64,t_mapping(t_bytes32,t_bytes_storage))"
      },
      {
        "astId": 8526,
        "contract": "contracts/resolvers/OwnedResolver.sol:OwnedResolver",
        "label": "versionable_records",
        "offset": 0,
        "slot": "6",
        "type": "t_mapping(t_uint64,t_mapping(t_bytes32,t_mapping(t_bytes32,t_mapping(t_uint16,t_bytes_storage))))"
      },
      {
        "astId": 8534,
        "contract": "contracts/resolvers/OwnedResolver.sol:OwnedResolver",
        "label": "versionable_nameEntriesCount",
        "offset": 0,
        "slot": "7",
        "type": "t_mapping(t_uint64,t_mapping(t_bytes32,t_mapping(t_bytes32,t_uint16)))"
      },
      {
        "astId": 9262,
        "contract": "contracts/resolvers/OwnedResolver.sol:OwnedResolver",
        "label": "versionable_interfaces",
        "offset": 0,
        "slot": "8",
        "type": "t_mapping(t_uint64,t_mapping(t_bytes32,t_mapping(t_bytes4,t_address)))"
      },
      {
        "astId": 9454,
        "contract": "contracts/resolvers/OwnedResolver.sol:OwnedResolver",
        "label": "versionable_names",
        "offset": 0,
        "slot": "9",
        "type": "t_mapping(t_uint64,t_mapping(t_bytes32,t_string_storage))"
      },
      {
        "astId": 9541,
        "contract": "contracts/resolvers/OwnedResolver.sol:OwnedResolver",
        "label": "versionable_pubkeys",
        "offset": 0,
        "slot": "10",
        "type": "t_mapping(t_uint64,t_mapping(t_bytes32,t_struct(PublicKey)9534_storage))"
      },
      {
        "astId": 9644,
        "contract": "contracts/resolvers/OwnedResolver.sol:OwnedResolver",
        "label": "versionable_texts",
        "offset": 0,
        "slot": "11",
        "type": "t_mapping(t_uint64,t_mapping(t_bytes32,t_mapping(t_string_memory_ptr,t_string_storage)))"
      }
    ],
    "types": {
      "t_address": {
        "encoding": "inplace",
        "label": "address",
        "numberOfBytes": "20"
      },
      "t_bytes32": {
        "encoding": "inplace",
        "label": "bytes32",
        "numberOfBytes": "32"
      },
      "t_bytes4": {
        "encoding": "inplace",
        "label": "bytes4",
        "numberOfBytes": "4"
      },
      "t_bytes_storage": {
        "encoding": "bytes",
        "label": "bytes",
        "numberOfBytes": "32"
      },
      "t_mapping(t_bytes32,t_bytes_storage)": {
        "encoding": "mapping",
        "key": "t_bytes32",
        "label": "mapping(bytes32 => bytes)",
        "numberOfBytes": "32",
        "value": "t_bytes_storage"
      },
      "t_mapping(t_bytes32,t_mapping(t_bytes32,t_mapping(t_uint16,t_bytes_storage)))": {
        "encoding": "mapping",
        "key": "t_bytes32",
        "label": "mapping(bytes32 => mapping(bytes32 => mapping(uint16 => bytes)))",
        "numberOfBytes": "32",
        "value": "t_mapping(t_bytes32,t_mapping(t_uint16,t_bytes_storage))"
      },
      "t_mapping(t_bytes32,t_mapping(t_bytes32,t_uint16))": {
        "encoding": "mapping",
        "key": "t_bytes32",
        "label": "mapping(bytes32 => mapping(bytes32 => uint16))",
        "numberOfBytes": "32",
        "value": "t_mapping(t_bytes32,t_uint16)"
      },
      "t_mapping(t_bytes32,t_mapping(t_bytes4,t_address))": {
        "encoding": "mapping",
        "key": "t_bytes32",
        "label": "mapping(bytes32 => mapping(bytes4 => address))",
        "numberOfBytes": "32",
        "value": "t_mapping(t_bytes4,t_address)"
      },
      "t_mapping(t_bytes32,t_mapping(t_string_memory_ptr,t_string_storage))": {
        "encoding": "mapping",
        "key": "t_bytes32",
        "label": "mapping(bytes32 => mapping(string => string))",
        "numberOfBytes": "32",
        "value": "t_mapping(t_string_memory_ptr,t_string_storage)"
      },
      "t_mapping(t_bytes32,t_mapping(t_uint16,t_bytes_storage))": {
        "encoding": "mapping",
        "key": "t_bytes32",
        "label": "mapping(bytes32 => mapping(uint16 => bytes))",
        "numberOfBytes": "32",
        "value": "t_mapping(t_uint16,t_bytes_storage)"
      },
      "t_mapping(t_bytes32,t_mapping(t_uint256,t_bytes_storage))": {
        "encoding": "mapping",
        "key": "t_bytes32",
        "label": "mapping(bytes32 => mapping(uint256 => bytes))",
        "numberOfBytes": "32",
        "value": "t_mapping(t_uint256,t_bytes_storage)"
      },
      "t_mapping(t_bytes32,t_string_storage)": {
        "encoding": "mapping",
        "key": "t_bytes32",
        "label": "mapping(bytes32 => string)",
        "numberOfBytes": "32",
        "value": "t_string_storage"
      },
      "t_mapping(t_bytes32,t_struct(PublicKey)9534_storage)": {
        "encoding": "mapping",
        "key": "t_bytes32",
        "label": "mapping(bytes32 => struct PubkeyResolver.PublicKey)",
        "numberOfBytes": "32",
        "value": "t_struct(PublicKey)9534_storage"
      },
      "t_mapping(t_bytes32,t_uint16)": {
        "encoding": "mapping",
        "key": "t_bytes32",
        "label": "mapping(bytes32 => uint16)",
        "numberOfBytes": "32",
        "value": "t_uint16"
      },
      "t_mapping(t_bytes32,t_uint64)": {
        "encoding": "mapping",
        "key": "t_bytes32",
        "label": "mapping(bytes32 => uint64)",
        "numberOfBytes": "32",
        "value": "t_uint64"
      },
      "t_mapping(t_bytes4,t_address)": {
        "encoding": "mapping",
        "key": "t_bytes4",
        "label": "mapping(bytes4 => address)",
        "numberOfBytes": "32",
        "value": "t_address"
      },
      "t_mapping(t_string_memory_ptr,t_string_storage)": {
        "encoding": "mapping",
        "key": "t_string_memory_ptr",
        "label": "mapping(string => string)",
        "numberOfBytes": "32",
        "value": "t_string_storage"
      },
      "t_mapping(t_uint16,t_bytes_storage)": {
        "encoding": "mapping",
        "key": "t_uint16",
        "label": "mapping(uint16 => bytes)",
        "numberOfBytes": "32",
        "value": "t_bytes_storage"
      },
      "t_mapping(t_uint256,t_bytes_storage)": {
        "encoding": "mapping",
        "key": "t_uint256",
        "label": "mapping(uint256 => bytes)",
        "numberOfBytes": "32",
        "value": "t_bytes_storage"
      },
      "t_mapping(t_uint64,t_mapping(t_bytes32,t_bytes_storage))": {
        "encoding": "mapping",
        "key": "t_uint64",
        "label": "mapping(uint64 => mapping(bytes32 => bytes))",
        "numberOfBytes": "32",
        "value": "t_mapping(t_bytes32,t_bytes_storage)"
      },
      "t_mapping(t_uint64,t_mapping(t_bytes32,t_mapping(t_bytes32,t_mapping(t_uint16,t_bytes_storage))))": {
        "encoding": "mapping",
        "key": "t_uint64",
        "label": "mapping(uint64 => mapping(bytes32 => mapping(bytes32 => mapping(uint16 => bytes))))",
        "numberOfBytes": "32",
        "value": "t_mapping(t_bytes32,t_mapping(t_bytes32,t_mapping(t_uint16,t_bytes_storage)))"
      },
      "t_mapping(t_uint64,t_mapping(t_bytes32,t_mapping(t_bytes32,t_uint16)))": {
        "encoding": "mapping",
        "key": "t_uint64",
        "label": "mapping(uint64 => mapping(bytes32 => mapping(bytes32 => uint16)))",
        "numberOfBytes": "32",
        "value": "t_mapping(t_bytes32,t_mapping(t_bytes32,t_uint16))"
      },
      "t_mapping(t_uint64,t_mapping(t_bytes32,t_mapping(t_bytes4,t_address)))": {
        "encoding": "mapping",
        "key": "t_uint64",
        "label": "mapping(uint64 => mapping(bytes32 => mapping(bytes4 => address)))",
        "numberOfBytes": "32",
        "value": "t_mapping(t_bytes32,t_mapping(t_bytes4,t_address))"
      },
      "t_mapping(t_uint64,t_mapping(t_bytes32,t_mapping(t_string_memory_ptr,t_string_storage)))": {
        "encoding": "mapping",
        "key": "t_uint64",
        "label": "mapping(uint64 => mapping(bytes32 => mapping(string => string)))",
        "numberOfBytes": "32",
        "value": "t_mapping(t_bytes32,t_mapping(t_string_memory_ptr,t_string_storage))"
      },
      "t_mapping(t_uint64,t_mapping(t_bytes32,t_mapping(t_uint256,t_bytes_storage)))": {
        "encoding": "mapping",
        "key": "t_uint64",
        "label": "mapping(uint64 => mapping(bytes32 => mapping(uint256 => bytes)))",
        "numberOfBytes": "32",
        "value": "t_mapping(t_bytes32,t_mapping(t_uint256,t_bytes_storage))"
      },
      "t_mapping(t_uint64,t_mapping(t_bytes32,t_string_storage))": {
        "encoding": "mapping",
        "key": "t_uint64",
        "label": "mapping(uint64 => mapping(bytes32 => string))",
        "numberOfBytes": "32",
        "value": "t_mapping(t_bytes32,t_string_storage)"
      },
      "t_mapping(t_uint64,t_mapping(t_bytes32,t_struct(PublicKey)9534_storage))": {
        "encoding": "mapping",
        "key": "t_uint64",
        "label": "mapping(uint64 => mapping(bytes32 => struct PubkeyResolver.PublicKey))",
        "numberOfBytes": "32",
        "value": "t_mapping(t_bytes32,t_struct(PublicKey)9534_storage)"
      },
      "t_string_memory_ptr": {
        "encoding": "bytes",
        "label": "string",
        "numberOfBytes": "32"
      },
      "t_string_storage": {
        "encoding": "bytes",
        "label": "string",
        "numberOfBytes": "32"
      },
      "t_struct(PublicKey)9534_storage": {
        "encoding": "inplace",
        "label": "struct PubkeyResolver.PublicKey",
        "members": [
          {
            "astId": 9531,
            "contract": "contracts/resolvers/OwnedResolver.sol:OwnedResolver",
            "label": "x",
            "offset": 0,
            "slot": "0",
            "type": "t_bytes32"
          },
          {
            "astId": 9533,
            "contract": "contracts/resolvers/OwnedResolver.sol:OwnedResolver",
            "label": "y",
            "offset": 0,
            "slot": "1",
            "type": "t_bytes32"
          }
        ],
        "numberOfBytes": "64"
      },
      "t_uint16": {
        "encoding": "inplace",
        "label": "uint16",
        "numberOfBytes": "2"
      },
      "t_uint256": {
        "encoding": "inplace",
        "label": "uint256",
        "numberOfBytes": "32"
      },
      "t_uint64": {
        "encoding": "inplace",
        "label": "uint64",
        "numberOfBytes": "8"
      }
    }
  }
}