{
  "address": "0x0e269feD63A3cfF61fA66C82185CCEd4CA16d7d2",
  "abi": [
    {
      "inputs": [
        {
          "internalType": "bytes",
          "name": "key",
          "type": "bytes"
        },
        {
          "internalType": "bytes",
          "name": "data",
          "type": "bytes"
        },
        {
          "internalType": "bytes",
          "name": "sig",
          "type": "bytes"
        }
      ],
      "name": "verify",
      "outputs": [
        {
          "internalType": "bool",
          "name": "",
          "type": "bool"
        }
      ],
      "stateMutability": "view",
      "type": "function"
    }
  ],
  "transactionHash": "0xb8009e0cfd134ac38be80e223533ba358a18383b1575d141983983dfac7d85ca",
  "args": [],
  "numDeployments": 1,
  "solcInputHash": "ef30c679ec0e734b9949e6bb906c3fcc",
  "bytecode": "0x608060405234801561001057600080fd5b50610b31806100206000396000f3fe608060405234801561001057600080fd5b506004361061002b5760003560e01c8063de8f50a114610030575b600080fd5b61004361003e366004610953565b610057565b604051901515815260200160405180910390f35b600060608060006100a260048b8b8080601f01602080910402602001604051908101604052809392919081815260200183838082843760009201919091525092939250506103009050565b60ff169050801561016e576100f760058261ffff168c8c8080601f0160208091040260200160405190810160405280939291908181526020018383808284376000920191909152509294939250506103249050565b9250610167610107826005610a03565b61ffff9081169060059061011d9085168d610a29565b6101279190610a29565b8c8c8080601f0160208091040260200160405190810160405280939291908181526020018383808284376000920191909152509294939250506103249050565b9150610227565b6101b260058b8b8080601f01602080910402602001604051908101604052809392919081815260200183838082843760009201919091525092939250506103a89050565b90506101fe60078261ffff168c8c8080601f0160208091040260200160405190810160405280939291908181526020018383808284376000920191909152509294939250506103249050565b925061022461020e826007610a03565b61ffff9081169060079061011d9085168d610a29565b91505b6000606061026c84868a8a8080601f0160208091040260200160405190810160405280939291908181526020018383808284376000920191909152506103d092505050565b90925090508180156102f057506102916014825161028a9190610a29565b82906103eb565b6bffffffffffffffffffffffff19166102df8b8b8080601f01602080910402602001604051908101604052809392919081815260200183838082843760009201919091525061041e92505050565b6bffffffffffffffffffffffff1916145b9c9b505050505050505050505050565b600082828151811061031457610314610a40565b016020015160f81c905092915050565b82516060906103338385610a56565b111561033e57600080fd5b60008267ffffffffffffffff81111561035957610359610a6e565b6040519080825280601f01601f191660200182016040528015610383576020820181803683370190505b5090506020808201908686010161039b82828761081d565b50909150505b9392505050565b81516000906103b8836002610a56565b11156103c357600080fd5b50016002015161ffff1690565b600060606103df838587610873565b91509150935093915050565b81516000906103fb836014610a56565b111561040657600080fd5b5001602001516bffffffffffffffffffffffff191690565b60006040518251602084019350604067ffffffffffffffc06001830116016009828203106001811461044f57610456565b6040820191505b50776745230100efcdab890098badcfe001032547600c3d2e1f06104a8565b6000838310156103a1575080820151928290039260208410156103a15760001960208590036101000a0119169392505050565b60005b828110156107bc576104be848289610475565b85526104ce846020830189610475565b6020860152604081850310600181146104e6576104ef565b60808286038701535b506040830381146001811461050357610511565b602086018051600887021790525b5060405b608081101561059957858101603f19810151603719820151601f19830151600b198401516002911891909218189081027ffffffffefffffffefffffffefffffffefffffffefffffffefffffffefffffffe1663800000009091047c010000000100000001000000010000000100000001000000010000000116179052600c01610515565b5060805b61014081101561062257858101607f19810151606f19820151603f198301516017198401516004911891909218189081027ffffffffcfffffffcfffffffcfffffffcfffffffcfffffffcfffffffcfffffffc1663400000009091047c03000000030000000300000003000000030000000300000003000000031617905260180161059d565b508160008060005b60508110156107925760148104801561065a576001811461068157600281146106a657600381146106d0576106f1565b600160281b8504600160501b86048118600160781b870416189350635a82799992506106f1565b600160281b8504600160781b8604600160501b870418189350636ed9eba192506106f1565b600160501b8504600160781b8604818117600160281b8804169116179350638f1bbcdc92506106f1565b600160281b8504600160781b8604600160501b87041818935063ca62c1d692505b50601f600160bb1b8504168063ffffffe06001609b1b87041617905080840190508063ffffffff8616019050808301905080600160e01b600484028c015104019050600160a01b8102600160281b860417945050600160501b633fffffff600160521b86041663c00000006604000000000000870416170277ffffffff00ffffffff000000000000ffffffff00ffffffff851617935060018101905061062a565b5050509190910177ffffffff00ffffffff00ffffffff00ffffffff00ffffffff16906040016104ab565b50600160601b63ffffffff821667ffffffff000000006101008404166bffffffff00000000000000006201000085041663ffffffff60601b630100000086041663ffffffff60801b6401000000008704161717171702945050505050919050565b602081106108555781518352610834602084610a56565b9250610841602083610a56565b915061084e602082610a29565b905061081d565b905182516020929092036101000a6000190180199091169116179052565b60006060600085518551855188888860405160200161089796959493929190610abf565b6040516020818303038152906040529050835167ffffffffffffffff8111156108c2576108c2610a6e565b6040519080825280601f01601f1916602001820160405280156108ec576020820181803683370190505b50915083516020830182516020840160055afa925050935093915050565b60008083601f84011261091c57600080fd5b50813567ffffffffffffffff81111561093457600080fd5b60208301915083602082850101111561094c57600080fd5b9250929050565b6000806000806000806060878903121561096c57600080fd5b863567ffffffffffffffff8082111561098457600080fd5b6109908a838b0161090a565b909850965060208901359150808211156109a957600080fd5b6109b58a838b0161090a565b909650945060408901359150808211156109ce57600080fd5b506109db89828a0161090a565b979a9699509497509295939492505050565b634e487b7160e01b600052601160045260246000fd5b600061ffff808316818516808303821115610a2057610a206109ed565b01949350505050565b600082821015610a3b57610a3b6109ed565b500390565b634e487b7160e01b600052603260045260246000fd5b60008219821115610a6957610a696109ed565b500190565b634e487b7160e01b600052604160045260246000fd5b6000815160005b81811015610aa55760208185018101518683015201610a8b565b81811115610ab4576000828601525b509290920192915050565b8681528560208201528460408201526000610aef610ae9610ae36060850188610a84565b86610a84565b84610a84565b9897505050505050505056fea264697066735822122042ac5c50d135194d2c4917c91b234d74e44dc5bd920dfe210620dca010c8859c64736f6c634300080c0033",
  "devdoc": {
    "details": "Implements the DNSSEC RSASHA1 algorithm.",
    "kind": "dev",
    "methods": {},
    "version": 1
  },
  "userdoc": {
    "kind": "user",
    "methods": {},
    "version": 1
  },
  "storageLayout": {
    "storage": [],
    "types": null
  }
}