{
  "address": "0x8C799b7D49CB469709730f5E1494e9B9Ca621B04",
  "abi": [
    {
      "inputs": [
        {
          "internalType": "string",
          "name": "_metaDataUri",
          "type": "string"
        }
      ],
      "stateMutability": "nonpayable",
      "type": "constructor"
    },
    {
      "inputs": [],
      "name": "owner",
      "outputs": [
        {
          "internalType": "address",
          "name": "",
          "type": "address"
        }
      ],
      "stateMutability": "view",
      "type": "function"
    },
    {
      "inputs": [
        {
          "internalType": "string",
          "name": "_metaDataUri",
          "type": "string"
        }
      ],
      "name": "setUri",
      "outputs": [],
      "stateMutability": "nonpayable",
      "type": "function"
    },
    {
      "inputs": [
        {
          "internalType": "uint256",
          "name": "",
          "type": "uint256"
        }
      ],
      "name": "uri",
      "outputs": [
        {
          "internalType": "string",
          "name": "",
          "type": "string"
        }
      ],
      "stateMutability": "view",
      "type": "function"
    }
  ],
  "transactionHash": "0x7187ab38b790223b02de3b9c53e46aab22ebedfe198b67be3285fd7b3479b4f0",
  "args": [
    "metadata.tomons.domains/name/0x{id}"
  ],
  "numDeployments": 1,
  "solcInputHash": "ef30c679ec0e734b9949e6bb906c3fcc",
  "bytecode": "0x608060405234801561001057600080fd5b5060405161062b38038061062b83398101604081905261002f9161010a565b805161004290600090602084019061005b565b5050600180546001600160a01b03191633179055610214565b828054610067906101d9565b90600052602060002090601f01602090048101928261008957600085556100cf565b82601f106100a257805160ff19168380011785556100cf565b828001600101855582156100cf579182015b828111156100cf5782518255916020019190600101906100b4565b506100db9291506100df565b5090565b5b808211156100db57600081556001016100e0565b634e487b7160e01b600052604160045260246000fd5b6000602080838503121561011d57600080fd5b82516001600160401b038082111561013457600080fd5b818501915085601f83011261014857600080fd5b81518181111561015a5761015a6100f4565b604051601f8201601f19908116603f01168101908382118183101715610182576101826100f4565b81604052828152888684870101111561019a57600080fd5b600093505b828410156101bc578484018601518185018701529285019261019f565b828411156101cd5760008684830101525b98975050505050505050565b600181811c908216806101ed57607f821691505b6020821081141561020e57634e487b7160e01b600052602260045260246000fd5b50919050565b610408806102236000396000f3fe608060405234801561001057600080fd5b50600436106100415760003560e01c80630e89341c146100465780638da5cb5b1461006f5780639b642de11461009a575b600080fd5b610059610054366004610262565b6100af565b604051610066919061027b565b60405180910390f35b600154610082906001600160a01b031681565b6040516001600160a01b039091168152602001610066565b6100ad6100a83660046102e6565b610143565b005b6060600080546100be90610397565b80601f01602080910402602001604051908101604052809291908181526020018280546100ea90610397565b80156101375780601f1061010c57610100808354040283529160200191610137565b820191906000526020600020905b81548152906001019060200180831161011a57829003601f168201915b50505050509050919050565b6001546001600160a01b031633146101b25760405162461bcd60e51b815260206004820152602860248201527f4f6e6c792074686520636f6e7472616374206f776e65722063616e20736574206044820152673a3432902aa9249760c11b606482015260840160405180910390fd5b80516101c59060009060208401906101c9565b5050565b8280546101d590610397565b90600052602060002090601f0160209004810192826101f7576000855561023d565b82601f1061021057805160ff191683800117855561023d565b8280016001018555821561023d579182015b8281111561023d578251825591602001919060010190610222565b5061024992915061024d565b5090565b5b80821115610249576000815560010161024e565b60006020828403121561027457600080fd5b5035919050565b600060208083528351808285015260005b818110156102a85785810183015185820160400152820161028c565b818111156102ba576000604083870101525b50601f01601f1916929092016040019392505050565b634e487b7160e01b600052604160045260246000fd5b6000602082840312156102f857600080fd5b813567ffffffffffffffff8082111561031057600080fd5b818401915084601f83011261032457600080fd5b813581811115610336576103366102d0565b604051601f8201601f19908116603f0116810190838211818310171561035e5761035e6102d0565b8160405282815287602084870101111561037757600080fd5b826020860160208301376000928101602001929092525095945050505050565b600181811c908216806103ab57607f821691505b602082108114156103cc57634e487b7160e01b600052602260045260246000fd5b5091905056fea2646970667358221220664fcb81df280d54cd3ce27ca0a90dc8abb85e2e6d132fc695ad68ed9847816464736f6c634300080c0033",
  "devdoc": {
    "kind": "dev",
    "methods": {},
    "version": 1
  },
  "userdoc": {
    "kind": "user",
    "methods": {},
    "version": 1
  },
  "storageLayout": {
    "storage": [
      {
        "astId": 21090,
        "contract": "contracts/wrapper/StaticMetadataService.sol:StaticMetadataService",
        "label": "_uri",
        "offset": 0,
        "slot": "0",
        "type": "t_string_storage"
      },
      {
        "astId": 21092,
        "contract": "contracts/wrapper/StaticMetadataService.sol:StaticMetadataService",
        "label": "owner",
        "offset": 0,
        "slot": "1",
        "type": "t_address"
      }
    ],
    "types": {
      "t_address": {
        "encoding": "inplace",
        "label": "address",
        "numberOfBytes": "20"
      },
      "t_string_storage": {
        "encoding": "bytes",
        "label": "string",
        "numberOfBytes": "32"
      }
    }
  }
}