{
  "address": "0x2aFeA99c621Bc5d029De4F0dfb2dc09634E683D8",
  "abi": [
    {
      "inputs": [
        {
          "internalType": "address",
          "name": "_registry",
          "type": "address"
        }
      ],
      "stateMutability": "nonpayable",
      "type": "constructor"
    },
    {
      "inputs": [
        {
          "internalType": "address",
          "name": "sender",
          "type": "address"
        },
        {
          "internalType": "string[]",
          "name": "urls",
          "type": "string[]"
        },
        {
          "internalType": "bytes",
          "name": "callData",
          "type": "bytes"
        },
        {
          "internalType": "bytes4",
          "name": "callbackFunction",
          "type": "bytes4"
        },
        {
          "internalType": "bytes",
          "name": "extraData",
          "type": "bytes"
        }
      ],
      "name": "OffchainLookup",
      "type": "error"
    },
    {
      "inputs": [
        {
          "internalType": "bytes",
          "name": "name",
          "type": "bytes"
        }
      ],
      "name": "findResolver",
      "outputs": [
        {
          "internalType": "contract Resolver",
          "name": "",
          "type": "address"
        },
        {
          "internalType": "bytes32",
          "name": "",
          "type": "bytes32"
        }
      ],
      "stateMutability": "view",
      "type": "function"
    },
    {
      "inputs": [],
      "name": "registry",
      "outputs": [
        {
          "internalType": "contract TomoNs",
          "name": "",
          "type": "address"
        }
      ],
      "stateMutability": "view",
      "type": "function"
    },
    {
      "inputs": [
        {
          "internalType": "bytes",
          "name": "name",
          "type": "bytes"
        },
        {
          "internalType": "bytes",
          "name": "data",
          "type": "bytes"
        }
      ],
      "name": "resolve",
      "outputs": [
        {
          "internalType": "bytes",
          "name": "",
          "type": "bytes"
        },
        {
          "internalType": "address",
          "name": "",
          "type": "address"
        }
      ],
      "stateMutability": "view",
      "type": "function"
    },
    {
      "inputs": [
        {
          "internalType": "bytes",
          "name": "response",
          "type": "bytes"
        },
        {
          "internalType": "bytes",
          "name": "extraData",
          "type": "bytes"
        }
      ],
      "name": "resolveCallback",
      "outputs": [
        {
          "internalType": "bytes",
          "name": "",
          "type": "bytes"
        }
      ],
      "stateMutability": "view",
      "type": "function"
    },
    {
      "inputs": [
        {
          "internalType": "bytes",
          "name": "reverseName",
          "type": "bytes"
        }
      ],
      "name": "reverse",
      "outputs": [
        {
          "internalType": "string",
          "name": "",
          "type": "string"
        },
        {
          "internalType": "address",
          "name": "",
          "type": "address"
        },
        {
          "internalType": "address",
          "name": "",
          "type": "address"
        },
        {
          "internalType": "address",
          "name": "",
          "type": "address"
        }
      ],
      "stateMutability": "view",
      "type": "function"
    },
    {
      "inputs": [
        {
          "internalType": "bytes4",
          "name": "interfaceId",
          "type": "bytes4"
        }
      ],
      "name": "supportsInterface",
      "outputs": [
        {
          "internalType": "bool",
          "name": "",
          "type": "bool"
        }
      ],
      "stateMutability": "view",
      "type": "function"
    }
  ],
  "transactionHash": "0x5f85858783742f19d4288daf3115ece884d89938ee778b3c9582f6ebdf76f330",
  "args": [
    "0x669579145E221a9398B8d108ACbCC0608ADA90E5"
  ],
  "numDeployments": 1,
  "solcInputHash": "b63d9945e9d4fc281a733cf528efadab",
  "bytecode": "0x60a060405234801561001057600080fd5b506040516116e93803806116e983398101604081905261002f91610040565b6001600160a01b0316608052610070565b60006020828403121561005257600080fd5b81516001600160a01b038116811461006957600080fd5b9392505050565b608051611658610091600039600081816094015261079c01526116586000f3fe608060405234801561001057600080fd5b50600436106100625760003560e01c806301ffc9a7146100675780637b1039991461008f5780639061b923146100ce578063a1cbcbaf146100ef578063b4a8580114610121578063ec11c82314610141575b600080fd5b61007a610075366004610dff565b610164565b60405190151581526020015b60405180910390f35b6100b67f000000000000000000000000000000000000000000000000000000000000000081565b6040516001600160a01b039091168152602001610086565b6100e16100dc366004610f23565b61019b565b604051610086929190610fe8565b6101026100fd366004611012565b6102c8565b604080516001600160a01b039093168352602083019190915201610086565b61013461012f366004611054565b6102e9565b60405161008691906110c0565b61015461014f366004611012565b61037d565b60405161008694939291906110d3565b60006001600160e01b03198216639061b92360e01b148061019557506301ffc9a760e01b6001600160e01b03198316145b92915050565b60606000806101aa86866102c8565b5090506001600160a01b0381166101d5575050604080516020810190915260008082529091506102c0565b6040516301ffc9a760e01b8152639061b92360e01b60048201526001600160a01b038216906301ffc9a790602401602060405180830381865afa92505050801561023c575060408051601f3d908101601f191682019092526102399181019061110f565b60015b610245576102a9565b80156102a75761029b8288888860405160240161026493929190611131565b60408051601f198184030181529190526020810180516001600160e01b0316639061b92360e01b17905263b4a8580160e01b61058f565b829350935050506102c0565b505b6102bb818563b4a8580160e01b61058f565b925090505b935093915050565b6000806000806102da868660006106b3565b909450925050505b9250929050565b6060600080806102fb85870187611184565b92509250925061035c8289898460405160240161031a93929190611131565b60408051601f198184030181529190526020810180516001600160e01b03166001600160e01b0319909316929092179091526001600160a01b03851690610839565b80602001905181019061036f9190611221565b93505050505b949350505050565b60606000806000806000306001600160a01b0316639061b92389896103dc60008d8d8080601f016020809104026020016040519081016040528093929190818152602001838380828437600092019190915250929392505061085e9050565b6040516024016103ee91815260200190565b60408051601f198184030181529181526020820180516001600160e01b031663691f343160e01b179052516001600160e01b031960e086901b16815261043993929190600401611131565b600060405180830381865afa158015610456573d6000803e3d6000fd5b505050506040513d6000823e601f3d908101601f1916820160405261047e9190810190611256565b915091506000828060200190518101906104989190611221565b90506000806104a68361091d565b91509150600080306001600160a01b0316639061b92385856040516024016104d091815260200190565b60408051601f198184030181529181526020820180516001600160e01b0316631d9dabef60e11b179052516001600160e01b031960e085901b16815261051a9291906004016112a8565b600060405180830381865afa158015610537573d6000803e3d6000fd5b505050506040513d6000823e601f3d908101601f1916820160405261055f9190810190611256565b9150915060008280602001905181019061057991906112d6565b959e959d50959b50995092975050505050505050565b6060600061059d8585610b16565b90503d81156105ba576105b1600082610b99565b925050506106ac565b600481106106a15760006105d060006004610b99565b9050630556f18360e41b6105e3826112f3565b6001600160e01b031916141561069f57600061060960046106048186611340565b610b99565b90506000806000806000858060200190518101906106279190611367565b945094509450945094508c6001600160a01b0316856001600160a01b03161415610698573084848d8886866040516020016106649392919061149a565b60408051601f1981840301815290829052630556f18360e41b825261068f95949392916004016114ce565b60405180910390fd5b5050505050505b505b6106a9610bee565b50505b9392505050565b60008060008585858181106106ca576106ca611579565b919091013560f81c915050806106e75750600091508190506102c0565b60006106f3828661158f565b6106fe90600161158f565b90506000878761070f88600161158f565b61071b928592906115a7565b6040516107299291906115d1565b604051809103902090506000806107418a8a866106b3565b9150915060008184604051602001610763929190918252602082015260400190565b60408051601f19818403018152908290528051602090910120630178b8bf60e01b82526004820181905291506000906001600160a01b037f00000000000000000000000000000000000000000000000000000000000000001690630178b8bf90602401602060405180830381865afa1580156107e3573d6000803e3d6000fd5b505050506040513d601f19601f8201168201806040525081019061080791906112d6565b90506001600160a01b0381161561082757975095506102c0945050505050565b50919a91995090975050505050505050565b60606106ac83836040518060600160405280602581526020016115fe60259139610bf8565b600080600061086d8585610c70565b9092509050816108df57600185516108859190611340565b84146108d35760405162461bcd60e51b815260206004820152601d60248201527f6e616d65686173683a204a756e6b20617420656e64206f66206e616d65000000604482015260640161068f565b50600091506101959050565b6108e9858261085e565b6040805160208101929092528101839052606001604051602081830303815290604052805190602001209250505092915050565b80516060906000908190849061093481600261158f565b67ffffffffffffffff81111561094c5761094c610e5e565b6040519080825280601f01601f191660200182016040528015610976576020820181803683370190505b50945060009350806109b957600060f81b8560008151811061099a5761099a611579565b60200101906001600160f81b031916908160001a905350505050915091565b60001981015b8281815181106109d1576109d1611579565b6020910101516001600160f81b031916601760f91b1415610a61578360f81b868260010181518110610a0557610a05611579565b60200101906001600160f81b031916908160001a90535084610a2e846001840160ff8816610d27565b60408051602081019390935282015260600160405160208183030381529060405280519060200120945060009350610ab1565b600184019350828181518110610a7957610a79611579565b602001015160f81c60f81b868260010181518110610a9957610a99611579565b60200101906001600160f81b031916908160001a9053505b80610abb57610ac4565b600019016109bf565b5083610ad583600060ff8716610d27565b6040805160208101939093528201526060016040516020818303038152906040528051906020012093508260f81b8560008151811061099a5761099a611579565b60006001600160a01b0383163b610b865760405162461bcd60e51b815260206004820152602e60248201527f4c6f774c6576656c43616c6c5574696c733a207374617469632063616c6c207460448201526d1bc81b9bdb8b58dbdb9d1c9858dd60921b606482015260840161068f565b600080835160208501865afa9392505050565b60608167ffffffffffffffff811115610bb457610bb4610e5e565b6040519080825280601f01601f191660200182016040528015610bde576020820181803683370190505b5090508183602083013e92915050565b3d6000803e3d6000fd5b6060600080856001600160a01b031685604051610c1591906115e1565b600060405180830381855afa9150503d8060008114610c50576040519150601f19603f3d011682016040523d82523d6000602084013e610c55565b606091505b5091509150610c6686838387610d4b565b9695505050505050565b60008083518310610cc35760405162461bcd60e51b815260206004820152601e60248201527f726561644c6162656c3a20496e646578206f7574206f6620626f756e64730000604482015260640161068f565b6000848481518110610cd757610cd7611579565b016020015160f81c90508015610d0357610cfc85610cf686600161158f565b83610d27565b9250610d08565b600092505b610d12818561158f565b610d1d90600161158f565b9150509250929050565b8251600090610d36838561158f565b1115610d4157600080fd5b5091016020012090565b60608315610db7578251610db0576001600160a01b0385163b610db05760405162461bcd60e51b815260206004820152601d60248201527f416464726573733a2063616c6c20746f206e6f6e2d636f6e7472616374000000604482015260640161068f565b5081610375565b6103758383815115610dcc5781518083602001fd5b8060405162461bcd60e51b815260040161068f91906110c0565b6001600160e01b031981168114610dfc57600080fd5b50565b600060208284031215610e1157600080fd5b81356106ac81610de6565b60008083601f840112610e2e57600080fd5b50813567ffffffffffffffff811115610e4657600080fd5b6020830191508360208285010111156102e257600080fd5b634e487b7160e01b600052604160045260246000fd5b604051601f8201601f1916810167ffffffffffffffff81118282101715610e9d57610e9d610e5e565b604052919050565b600067ffffffffffffffff821115610ebf57610ebf610e5e565b50601f01601f191660200190565b600082601f830112610ede57600080fd5b8135610ef1610eec82610ea5565b610e74565b818152846020838601011115610f0657600080fd5b816020850160208301376000918101602001919091529392505050565b600080600060408486031215610f3857600080fd5b833567ffffffffffffffff80821115610f5057600080fd5b610f5c87838801610e1c565b90955093506020860135915080821115610f7557600080fd5b50610f8286828701610ecd565b9150509250925092565b60005b83811015610fa7578181015183820152602001610f8f565b83811115610fb6576000848401525b50505050565b60008151808452610fd4816020860160208601610f8c565b601f01601f19169290920160200192915050565b604081526000610ffb6040830185610fbc565b905060018060a01b03831660208301529392505050565b6000806020838503121561102557600080fd5b823567ffffffffffffffff81111561103c57600080fd5b61104885828601610e1c565b90969095509350505050565b6000806000806040858703121561106a57600080fd5b843567ffffffffffffffff8082111561108257600080fd5b61108e88838901610e1c565b909650945060208701359150808211156110a757600080fd5b506110b487828801610e1c565b95989497509550505050565b6020815260006106ac6020830184610fbc565b6080815260006110e66080830187610fbc565b6001600160a01b0395861660208401529385166040830152509216606090920191909152919050565b60006020828403121561112157600080fd5b815180151581146106ac57600080fd5b60408152826040820152828460608301376000606084830101526000601f19601f85011682016060838203016020840152610c666060820185610fbc565b6001600160a01b0381168114610dfc57600080fd5b60008060006060848603121561119957600080fd5b83356111a48161116f565b925060208401356111b481610de6565b9150604084013567ffffffffffffffff8111156111d057600080fd5b610f8286828701610ecd565b600082601f8301126111ed57600080fd5b81516111fb610eec82610ea5565b81815284602083860101111561121057600080fd5b610375826020830160208701610f8c565b60006020828403121561123357600080fd5b815167ffffffffffffffff81111561124a57600080fd5b610375848285016111dc565b6000806040838503121561126957600080fd5b825167ffffffffffffffff81111561128057600080fd5b61128c858286016111dc565b925050602083015161129d8161116f565b809150509250929050565b6040815260006112bb6040830185610fbc565b82810360208401526112cd8185610fbc565b95945050505050565b6000602082840312156112e857600080fd5b81516106ac8161116f565b805160208201516001600160e01b031980821692919060048310156113225780818460040360031b1b83161693505b505050919050565b634e487b7160e01b600052601160045260246000fd5b6000828210156113525761135261132a565b500390565b805161136281610de6565b919050565b600080600080600060a0868803121561137f57600080fd5b855161138a8161116f565b8095505060208087015167ffffffffffffffff808211156113aa57600080fd5b818901915089601f8301126113be57600080fd5b8151818111156113d0576113d0610e5e565b8060051b6113df858201610e74565b918252838101850191858101908d8411156113f957600080fd5b86860192505b83831015611435578251858111156114175760008081fd5b6114258f89838a01016111dc565b83525091860191908601906113ff565b60408d0151909a5095505050508083111561144f57600080fd5b61145b8a848b016111dc565b955061146960608a01611357565b9450608089015192508083111561147f57600080fd5b505061148d888289016111dc565b9150509295509295909350565b6001600160a01b03841681526001600160e01b0319831660208201526060604082018190526000906112cd90830184610fbc565b600060a0820160018060a01b0388168352602060a08185015281885180845260c08601915060c08160051b8701019350828a0160005b828110156115325760bf19888703018452611520868351610fbc565b95509284019290840190600101611504565b505050505082810360408401526115498187610fbc565b6001600160e01b0319861660608501529050828103608084015261156d8185610fbc565b98975050505050505050565b634e487b7160e01b600052603260045260246000fd5b600082198211156115a2576115a261132a565b500190565b600080858511156115b757600080fd5b838611156115c457600080fd5b5050820193919092039150565b8183823760009101908152919050565b600082516115f3818460208701610f8c565b919091019291505056fe416464726573733a206c6f772d6c6576656c207374617469632063616c6c206661696c6564a26469706673582212202c92185438b1a6bb87c31b140f85c3da4ec43e60564c6b49505fc8d51f1966c564736f6c634300080c0033",
  "devdoc": {
    "kind": "dev",
    "methods": {
      "findResolver(bytes)": {
        "details": "Finds a resolver by recursively querying the registry, starting at the longest name and progressively      removing labels until it finds a result.",
        "params": {
          "name": "The name to resolve, in TomoNs-encoded and normalised form."
        },
        "returns": {
          "_0": "The Resolver responsible for this name, and the namehash of the full name."
        }
      },
      "resolve(bytes,bytes)": {
        "details": "Performs TomoNs name resolution for the supplied name and resolution data.",
        "params": {
          "data": "The resolution data, as specified in ONSIP-10.",
          "name": "The name to resolve, in normalised and TomoNs-encoded form."
        },
        "returns": {
          "_0": "The result of resolving the name."
        }
      },
      "resolveCallback(bytes,bytes)": {
        "details": "Callback function for `resolve`.",
        "params": {
          "extraData": "Extra data encoded by `callWithOffchainLookupPropagation` to allow completing the request.",
          "response": "Response data returned by the target address that invoked the inner `OffchainData` revert."
        }
      },
      "reverse(bytes)": {
        "details": "Performs TomoNs name reverse resolution for the supplied reverse name.",
        "params": {
          "reverseName": "The reverse name to resolve, in normalised and TomoNs-encoded form. e.g. b6E040C9ECAaE172a89bD561c5F73e1C48d28cd9.addr.reverse"
        },
        "returns": {
          "_0": "The resolved name, the resolved address, the reverse resolver address, and the resolver address."
        }
      },
      "supportsInterface(bytes4)": {
        "details": "See {IERC165-supportsInterface}."
      }
    },
    "version": 1
  },
  "userdoc": {
    "kind": "user",
    "methods": {},
    "notice": "The Universal Resolver is a contract that handles the work of resolving a name entirely onchain, making it possible to make a single smart contract call to resolve an TomoNs name.",
    "version": 1
  },
  "storageLayout": {
    "storage": [],
    "types": null
  }
}